:020000040800F2
:10800000C0E70020C1810008118200080D8200082D
:108010000F82000809820008C582000800000000E5
:10802000000000000000000000000000378200088F
:108030000B82000800000000358200083982000829
:10804000DB810008DB810008DB810008DB810008A0
:10805000DB810008DB810008DB810008DB81000890
:10806000DB810008DB810008DB810008DB81000880
:10807000DB810008DB810008DB810008DB81000870
:10808000DB810008DB810008DB810008DB81000860
:10809000DB810008DB810008DB810008DB81000850
:1080A000DB810008DB810008DB810008DB81000840
:1080B000DB810008DB810008DB810008DB81000830
:1080C000DB810008DB810008DB810008DB81000820
:1080D000DB810008DB810008DB810008DB81000810
:1080E000DB810008DB810008DB810008DB81000800
:1080F000DB810008DB810008DB810008DB810008F0
:10810000DB810008DB810008DB810008DB810008DF
:10811000DB810008DB810008DB810008DB810008CF
:10812000DB810008DB810008DB810008DB810008BF
:10813000DB810008DB810008DB810008DB810008AF
:10814000DB810008DB810008DB810008DB8100089F
:10815000DB810008DB810008DB810008DB8100088F
:10816000DB810008DB810008DB810008DB8100087F
:10817000DB810008DB810008DB81000800000000D3
:10818000DB810008DB810008DB810008DB8100085F
:10819000DB810008DB810008DB81000800000000B3
:1081A000DB810008DB810008DB810008DFF80CD0F0
:1081B00000F018F80048004711860008C0E70020CA
:1081C0000648804706480047FEE7FEE7FEE7FEE771
:1081D000FEE7FEE7FEE7FEE7FEE7FEE73D8200087A
:1081E000AD810008064C074D06E0E06840F0010351
:1081F00094E8070098471034AC42F6D3FFF7DAFF53
:1082000070360C0890360C08FEE77047FEE7FEE774
:10821000704700000907090E002803DA00F00F007C
:10822000024A00E0024A81547047000014ED00E069
:1082300000E400E07047704700F05CB81D4818B4D7
:10824000016841F4700101601B49086840F00100B9
:10825000086019480830026842F08002026000227B
:108260004CF250330092009C641C00949C42FAD360
:10827000046844F0900404600092009C641C009424
:108280009C42FAD3036823F0030303600B680B4C92
:1082900023400B600B6823F480230B6002600068AE
:1082A00005490748091D086003480C30026018BCE6
:1082B00000F080BB88ED00E000380240FFFFF6FED2
:1082C00010300024FEE702E008C8121F08C1002A8F
:1082D000FAD170477047002001E001C1121F002A47
:1082E000FBD170470249086008680028FCD170473C
:1082F0000000002003480168002902D00168491EDF
:108300000160704700000020F0B5036A446A002550
:1083100001260F2706FA05FC1CEA020F09D04FEAD6
:10832000850C07FA0CFE23EA0E0301FA0CFE4EEA56
:1083300003036D1CADB2082DECD3082506FA05FC2D
:108340001CEA020F0BD04FEA850CACF1200C07FAA7
:108350000CFE24EA0E0401FA0CFE4EEA04046D1C25
:10836000ADB2102DEAD303624462F0BD8161704763
:108370002DE9F047894601689246C268002401272A
:108380004FF0030C07FA04F51D420BD066000CFAFF
:1083900006F5A943AA4309FA06F80AFA06F548EAD7
:1083A00001012A43641CA4B2102CEBD30160C2600B
:1083B000BDE8F087F0B50129416819D099434160C3
:1083C0008168002401274FF0030C00BF07FA04F670
:1083D0001E4207D066000CFA06F521EA050502FAEE
:1083E00006F12943641CA4B2102CEFD38160F0BDC8
:1083F0001943E4E770B5064692B040F6174000F026
:1084000083FA00F023F8002000F0EEF800240225A3
:1084100005940694CDE903540B48CDE90004762079
:1084200008900294F7200790684600F01BF8CDE909
:108430000C450B94CDE9096410940F9409A80E948F
:1084400000F088F812B070BD0800002010B540F2AE
:108450001744204600F074FA2046BDE8104000F0B2
:1084600061BA000070B53A4900240A68D20704D006
:108470000A68012422F001020A604A6B22F0070216
:108480004A63C2684A63C2680025052A1CD2DFE835
:1084900002F0030F374250008A6B8D63D0E905323A
:1084A00042EA0322038A067A1B0443EA066309E0D0
:1084B0008A6B02F07F428A634269038A120242EAAF
:1084C000034226E01A438A63CA6BCD630268CA631B
:1084D0000A6C6FF30D020A6442680A644A6C02F087
:1084E00040424A644A6C036A808B1A4342EA004065
:1084F0004864012C03D1086840F00100086070BD99
:108500008A6B6FF30F028A6342690369520142EA80
:10851000C3228369D6E78A6B6FF30F028A63D0E9BF
:10852000053242EA4312036986689B0243EAC63376
:10853000C8E78A6B6FF30F028A63D0E9053242EA1B
:108540000312036986681B0243EA0633BAE7000098
:1085500000B002401D4910B50B680022DB0704D0B3
:108560000B68012223F001030B60CB680023CB6072
:108570000368CB600B696FF30D030B6143680B61FC
:10858000CB69134C2340CB61CB69047A43EA046383
:10859000CB61CB69C4682343CB61CB6904692343B6
:1085A000CB610B6A03F07F430B620B6AC469234300
:1085B000848A8069240444EA002003430B62012A70
:1085C00003D1086840F00100086010BD00B002400F
:1085D000F0FFFC0003494968014201D001207047C7
:1085E0000020704700B0024004490A6822F440327B
:1085F0000A600A6802430A607047000000B0024047
:108600000248016841F001010160704700B002407A
:108610004FF40041080300F0CFF800F021FA00F019
:1086200033FB00F0B3FA574800F088FC554880301F
:1086300000F084FC002000F0CFFC00F01DFB00F0F7
:108640002FFA012000F0C8FC4F48FFF7D3FEFFF7D8
:10865000D7FF0220FFF7BEFF0028FAD03220FFF735
:1086600041FE4A48FFF7C6FEFFF7CAFF0220FFF7A8
:10867000B1FF0028FAD03220FFF734FE4448FFF75C
:10868000B9FEFFF7BDFF0220FFF7A4FF0028FAD0D4
:108690003220FFF727FE3F48FFF7ACFEFFF7B0FFA1
:1086A0000220FFF797FF0028FAD03220FFF71AFECA
:1086B0003948FFF79FFEFFF7A3FF0220FFF78AFF6D
:1086C0000028FAD03220FFF70DFE3448FFF792FE63
:1086D000FFF796FF0220FFF77DFF0028FAD0322037
:1086E000FFF700FE2E48FFF785FEFFF789FF022007
:1086F000FFF770FF0028FAD03220FFF7F3FD29487A
:10870000FFF778FEFFF77CFF0220FFF763FF0028EA
:10871000FAD03220FFF7E6FD2348FFF76BFEFFF7A4
:108720006FFF0220FFF756FF0028FAD03220FFF734
:10873000D9FD1E48FFF75EFEFFF762FF0220FFF73C
:1087400049FF0028FAD03220FFF7CCFD1848FFF788
:1087500051FEFFF755FF0220FFF73CFF0028FAD03B
:108760003220FFF7BFFD1348FFF744FEFFF748FF35
:108770000220FFF72FFF0028FAD03220FFF7B2FDCA
:1087800062E7000000680140008A0108B46D020839
:10879000685103081C350408D018050884FC050836
:1087A00038E00608ECC30708A0A70808548B09089E
:1087B000086F0A08BC520B08034A114001430348E2
:1087C0000160BFF34F8F704780FFFF1F08ED00E08F
:1087D000064901EB9011096800F01F02012090404A
:1087E000014201D00120704700207047003802404C
:1087F000054901EB90110A6800F01F030120984021
:1088000002430A60704700000038024070B5002340
:108810003C4C1D461C2867D007DC98B3102815D0A7
:1088200018284FD01A286BD155E0B0F5E05F1AD068
:10883000B0F5E85F43D0A0F54050103860D132E089
:108840001120FFF7C5FF5B1C18B104E04FF6FF7461
:10885000F6E7A342F4D111204EE03046FFF7B8FF0F
:108860005B1C28B106E06FF0704441F60146F4E766
:10887000A342F2D130463FE00120FFF7A9FF5B1C85
:1088800020B105E0FFE74FF4A064F5E7A342F3D180
:10889000012031E03046FFF79BFF5B1C0028E9D147
:1088A000A342F7D1E6E743F21106F3E73046FFF7BC
:1088B0008FFF5B1C0028DDD1A342F7D1DAE741F638
:1088C0000156F3E71920FFF783FF5B1C08B9A342A9
:1088D000F8D1192010E01B20FFF77AFF5B1C08B9C4
:1088E000A342F8D11B2007E01D20FFF771FF5B1C9E
:1088F00008B9A342F8D11D20FFF76AFF00B1012596
:10890000284670BDFFFF0F00054901EB90110A6872
:1089100000F01F030120984002430A6070470000E6
:1089200000380240054901EB90110A6800F01F036E
:108930000120984082430A607047000000380240DE
:10894000054901EB90110A6800F01F0301209840CF
:1089500002430A607047000000380240A0F1320371
:10896000B3F5E17F16D8022905D0042903D00629E2
:1089700001D008290ED1931E052B0BD8064B4908B0
:1089800003EB014141EA8010044940EA02700860AB
:1089900001207047002070470000FFFF8838024028
:1089A000034A116821F4403101431160704700000F
:1089B0008C380240274910B50A68002042F4803202
:1089C0000A604FF6FF730A68401C12F4003F01D1A1
:1089D0009842F8D10868800300D4FEE71D48403073
:1089E000026842F0805202601B48026842F4404232
:1089F0000260184A083213681360136843F4004396
:108A00001360136843F4A0531360141F134B2360C7
:108A10000B6843F080730B600B689B01FCD5016809
:108A200041F4803101604168C903FCD5016841F41B
:108A30000031016041688903FCD5106820F0030013
:108A40001060106840F00200106010680007FCD54C
:108A500010BD000000380240007000401964400959
:108A600070B50E484FF47A710068B0FBF1F0401E0B
:108A7000B0F1807F11D24FF0E024606165170F21C3
:108A80002846FFF7C7FB0020A06107202061284689
:108A9000BDE870400021FFF7BDBBFEE704000020E9
:108AA00030B597B041F21A10FFF72EFF00F0ECF846
:108AB00003220221C020FFF751FF002860D04FF4AD
:108AC0000030FFF76DFF1C20FFF792FE1C20FFF720
:108AD0009DFEE0B300240A942820ADF8020009208E
:108AE000ADF800000B942A20ADF806000B20ADF87D
:108AF000040040F20A2003900C9440F21B100290F4
:108B00004FF403700590FF25099440F21D10049066
:108B1000069507950895684600F0CCF97B20ADF8DE
:108B2000360040F27110ADF834002020ADF83A0064
:108B30009520ADF8380002200F904FF4C0601290DD
:108B40008DF84050072013908DF8414000E018E068
:108B50000C488DF8434014908DF8424040F2F110DB
:108B6000ADF85600C01EADF854008DF84440762094
:108B7000ADF858000DA9044800F0E6F917B030BD73
:108B8000FEE7FEE7080000208068014030B597B09E
:108B900041F21A10FFF7B8FE00F076F80322022126
:108BA000C020FFF7DBFE002860D04FF40030FFF755
:108BB000F7FE1C20FFF71CFE1C20FFF727FEE8B382
:108BC00000250A952820ADF802000920ADF8000024
:108BD0000B952A20ADF806000B20ADF8040040F2FA
:108BE0000A2003900C9540F21B1002904FF4037082
:108BF0000590FF24099540F21D10049006940794F7
:108C00000894684600F056F97B20ADF836004FF422
:108C1000DD70ADF83400A220ADF83A00A01D8DF84B
:108C20004040ADF838008DF8434002208DF84240B6
:108C30000F908DF844408DF8415000E017E04FF45C
:108C4000C0601290072013900948149040F28320CE
:108C5000ADF85600C01EADF854006420ADF85800C1
:108C60000DA9044800F070F917B030BDFEE7FEE72B
:108C700000900008006801400248016841F00101CD
:108C800001607047186801402DE9F05F40F601402F
:108C9000FFF73AFE40F60440FFF736FE40F6074085
:108CA000FFF732FE40F60840FFF72EFE40F6064082
:108CB000FFF72AFE40F60540FFF726FEDFF8DC91BD
:108CC00020220E214846FFF71FFB40220E21484676
:108CD000FFF71AFB10220E214846FFF715FBDFF8BD
:108CE000C0A104220E215046FFF70EFB08220E21E0
:108CF0005046FFF709FB4FF480720E215046FFF7F4
:108D000003FB4FF4007632460E215046FFF7FCFA83
:108D100075002A460E215046FFF7F6FA6F003A46D4
:108D20000E215046FFF7F0FA4FF4805842460E21CC
:108D30005046FFF7E9FAEA000E215046FFF7E4FA41
:108D40002A010E215046FFF7DFFA6C0122460E2160
:108D50005046FFF7D9FADFF84CB101220E215846F0
:108D6000FFF7D2FA02220E215846FFF7CDFA04226D
:108D70000E215846FFF7C8FA10220E215846FFF779
:108D8000C3FA20220E215846FFF7BEFA40220E21D8
:108D90005846FFF7B9FA80220E215846FFF7B4FA79
:108DA00032460E215846FFF7AFFA2A460E215846A2
:108DB000FFF7AAFA40220E213B48FFF7A5FA8022CE
:108DC0000E213948FFF7A0FA2A460E213648FFF750
:108DD0009BFA3A460E213448FFF796FA42460E2196
:108DE0003148FFF791FA314E2A460E213046FFF7FF
:108DF0008BFA7023002202214846FFF7B9FA70234C
:108E0000032200214846FFF7D5FA4FF60C773B4680
:108E1000002202215046FFF7ABFA3B460322002115
:108E20005046FFF7C7FA40F2F7673B46002202219F
:108E30005846FFF79DFA3B46032200215846FFF7AC
:108E4000B9FA4FF4E6573B46002202211648FFF7D5
:108E50008FFA3B46032200211348FFF7ABFA2B465B
:108E6000002202213046FFF783FA2B46032200211D
:108E70003046FFF79FFA0E4D012223461146284641
:108E8000FFF776FA2346022200212846FFF792FADE
:108E900021462846BDE8F05FFFF768BA001002409F
:108EA000001C024000200240001802400014024052
:108EB0000004024020490A6802F0F0220A600268B9
:108EC0000A60091D0A6802F0F0220A6042680A601E
:108ED000091D0A6802F0F0220A608389826842EA6A
:108EE00003420A60091D0A6802F0F0220A60838AC0
:108EF000026942EA03420A600F4924310A6802F01B
:108F00007F420A60C269038B120242EA0342036A8B
:108F10001A430A60084910310A6822F070420A6058
:108F2000D0E909231A43D0E90B30034308681A43F8
:108F300002430A60704700000868014050F8841F2F
:108F400041F001010160704710B550F8882F02F020
:108F5000F02202600A684FEA32420260426802F080
:108F6000F02242604A684FEA32424260C26822F010
:108F70000702C2608A68C260026922F0FF020261D1
:108F80000A7B0261426900224261B1F80F308C7B9A
:108F90005BBA64F31F434C7B43EA04634361836918
:108FA00040F20774A3438361D1E9054323438361FE
:108FB000436A4262CA694262826A02F0C0228262E5
:108FC0000A6A4FEA32428262C26A6FF30A02C262DE
:108FD000898CC16210BD000005490028086803D0D3
:108FE00040F001000860704740F00200FAE700001E
:108FF00024680140000000000000000000000000A4
:10900000FFFFFFFFFFFFFFFFFFFFFFFFFFFFFFFF70
:10901000FFFFFFFFFFFFFFFFFFFFFFFFFFFFFFFF60
:10902000FFFFFFFFFFFFFFFFFFFFFFFFFFFFFFFF50
:10903000FFFFFFFFFFFFFFFFFFFFFFFFFFFFFFFF40
:10F6B000FFFFFFFFFFFFFFFFFFFFFFFFBFDFBEE713
:10F6C000BEDFBEDFBFDFBEE7BEDFBEDFBFDFBEE740
:10F6D000BEDFBEDFBFDFBEE7BEDFBEDFBFDFBEE730
:10F6E000BEDFBEDFBFDFBEE7BEDFBEDFBFDFBEE720
:10F6F000BEDFBEDFBFDFBEE7BEDFBEDFBFDFBEE710
:10F70000BEDFBEDFBFDFBEE7BEDFBEDFBFDFBEE7FF
:10F71000BEDFBEDFBFDFBEE7FFFFFFFFFFFFFFFF74
:10F72000FFFFFFFFFFFFFFFFFFFFFFFFFFFFFFFFE9
:10F73000FFFFFFFFFFFFFFFFFFFFFFFFFFFFFFFFD9
:10F74000FFFFFFFFFFFFFFFFFFFFFFFFFFFFFFFFC9
:10F75000FFFFFFFFFFFFFFFFFFFFFFFFFFFFFFFFB9
:10F76000FFFFFFFFFFFFFFFFFFFFFFFFFFFFFFFFA9
:10F77000FFFFFFFFFFFFFFFFFFFFFFFFFFFFFFFF99
:10F78000FFFFFFFFFFFFFFFFFFFFFFFFFFFFFFFF89
:10F79000FFFFFFFFFFFFFFFFFFFFFFFFFFFFFFFF79
:10F7A000FFFFFFFFFFFFFFFFFFFFFFFFFFFFFFFF69
:10F7B000FFFFFFFFFFFFFFFFFFFFFFFFFFFFFFFF59
:10F7C000FFFFFFFFFFFFFFFFFFFFFFFFFFFFFFFF49
:10F7D000FFFFFFFFFFFFFFFFFFFFFFFFFFFFFFFF39
:10F7E000FFFFFFFFFFFFFFFFFFFFFFFFFFFFFFFF29
:10F7F000FFFFFFFFFFFFFFFFFFFFFFFFFFFFFFFF19
:10F80000FFFFFFFFFFFFFFFFFFFFFFFFFFFFFFFF08
:10F81000FFFFFFFFFFFFFFFFFFFFFFFFFFFFFFFFF8
:10F82000FFFFFFFFFFFFFFFFFFFFFFFFFFFFFFFFE8
:10F83000FFFFFFFFFFFFFFFFFFFFFFFFFFFFFFFFD8
:10F84000FFFFFFFFFFFFFFFFFFFFFFFFFFFFFFFFC8
:10F85000FFFFFFFFFFFFFFFFFFFFFFFFFFFFFFFFB8
:10F86000FFFFFFFFFFFFFFFFFFFFFFFFFFFFFFFFA8
:10F87000FFFFFFFFFFFFFFFFFFFFFFFFFFFFFFFF98
:10F88000FFFFFFFFFFFFFFFFFFFF7DEF7EE7BEF7FC
:10F890007DE7FFFFFFFFFFFFFFFFFFFFFFFFFFFF12
:10F8A000FFFFFFFFFFFFFFFFFFFFFFFFFFFFFFFF68
:10F8B000FFFFFFFFFFFFFFFFFFFFFFFFFFFFFFFF58
:10F8C000FFFFFFFFFFFFFFFFFFFFFFFFFFFFFFFF48
:10F8D000FFFFFFFFFFFFFFFFFFFFFFFFFFFFFFFF38
:10F8E000FFFFFFFFFFFFFFFFFFFFFFFFFFFFFFFF28
:10F8F000FFFFFFFFFFFFFFFFFFFFFFFFFFFFFFFF18
:10F90000FFFFFFFFFFFFFFFFFFFFFFFFFFFFFFFF07
:10F91000FFFFFFFFFFFFFFFFFFFFFFFFFFFFFFFFF7
:10F92000FFFFFFFFFFFFFFFFFFFFFFFFFFFFFFFFE7
:10F93000FFFFFFFFFFFFFFFFFFFFBEE7751CB614D1
:10F940007514B614751CB6147514B614751CB6145B
:10F950007514B614751CB6147514B614751CB6144B
:10F960007514B614751CB6147514B614751CB6143B
:10F970007514B614751CB6147514B614751CB6142B
:10F980007514B614751CB6147514B614751CB6141B
:10F990007514B614751CB6147EDFFFFFFFFFFFFF62
:10F9A000FFFFFFFFFFFFFFFFFFFFFFFFFFFFFFFF67
:10F9B000FFFFFFFFFFFFFFFFFFFFFFFFFFFFFFFF57
:10F9C000FFFFFFFFFFFFFFFFFFFFFFFFFFFFFFFF47
:10F9D000FFFFFFFFFFFFFFFFFFFFFFFFFFFFFFFF37
:10F9E000FFFFFFFFFFFFFFFFFFFFFFFFFFFFFFFF27
:10F9F000FFFFFFFFFFFFFFFFFFFFFFFFFFFFFFFF17
:10FA0000FFFFFFFFFFFFFFFFFFFFFFFFFFFFFFFF06
:10FA1000FFFFFFFFFFFFFFFFFFFFFFFFFFFFFFFFF6
:10FA2000FFFFFFFFFFFFFFFFFFFFFFFFFFFFFFFFE6
:10FA3000FFFFFFFFFFFFFFFFFFFFFFFFFFFFFFFFD6
:10FA4000FFFFFFFFFFFFFFFFFFFFFFFFFFFFFFFFC6
:10FA5000FFFFFFFFFFFFFFFFFFFFFFFFFFFFFFFFB6
:10FA6000FFFFFFFFFFFFFFFFFFFFFFFFFFFFFFFFA6
:10FA7000FFFFFFFFFFFFFFFFFFFF30844DA34D6B34
:10FA80000D6BBFCE796EBA6EF96CB36EFFD7FFFF08
:10FA9000FFFFFFFFFFFFFFFFFFFFFFFFFFFFFFFF76
:10FAA000FFFFFFFFFFFFFFFFFFFFFFFFFFFFFFFF66
:10FAB000FFFFFFFFFFFFFFFFFFFFFFFFFFFFFFFF56
:10FAC000FFFFFFFFFFFFFFFFFFFFFFFFFFFFFFFF46
:10FAD000FFFFFFFFFFFFFFFFFFFFFFFFFFFFFFFF36
:10FAE000FFFFFFFFFFFFFFFFFFFFFFFFFFFFFFFF26
:10FAF000FFFFFFFFFFFFFFFFFFFFFFFFFFFFFFFF16
:10FB0000FFFFFFFFFFFF3DDF3AC63ABE3AC6BBC666
:10FB1000BBD6FFFFFFFFFFFFFFFFFFFFFFFFFFFF62
:10FB2000FFFFFFFFFFFFFFFFFFFFFFFFFFFFFFFFE5
:10FB3000FFFFFFFFFFFFFFFFFFFFFFFFFFFFFFFFD5
:10FB4000FFFFFFFFFFFFFFFFFFFFFFFFFFFFFFFFC5
:10FB5000FFFFFFFFFFFFFFFFFFFFFFFFFFFFFFFFB5
:10FB6000FFFFFFFFFFFFFFFFFFFFFFFFFFFFFFFFA5
:10FB7000FFFFFFFFFFFFFFFFFFFFFFFFFFFFFFFF95
:10FB8000FFFFFFFFFFFFFFFFFFFFFFFFFFFFFFFF85
:10FB9000FFFFFFFFFFFFFFFFFFFFFFFFFFFFFFFF75
:10FBA000FFFFFFFFFFFFFFFFFFFFFFFFFFFFFFFF65
:10FBB000FFFFFFFFFFFFFFFFFFFFBEE7B614751457
:10FBC000B6147514B6147514B6147514B6147514E9
:10FBD000B6147514B6147514B6147514B6147514D9
:10FBE000B6147514B6147514B6147514B6147514C9
:10FBF000B6147514B6147514B6147514B6147514B9
:10FC0000B6147514B6147514B6147514B6147514A8
:10FC1000B6147514B6147514BFDFFFFFFFFFFFFFA6
:10FC2000FFFFFFFFFFFFFFFFFFFFFFFFFFFFFFFFE4
:10FC3000FFFFFFFFFFFFFFFFFFFFFFFFFFFFFFFFD4
:10FC4000FFFFFFFFFFFFFFFFFFFFFFFFFFFFFFFFC4
:10FC5000FFFFFFFFFFFFFFFFFFFFFFFFFFFFFFFFB4
:10FC6000FFFFFFFFFFFFFFFFFFFFFFFFFFFFFFFFA4
:10FC7000FFFFFFFFFFFFFFFFFFFFFFFFFFFFFFFF94
:10FC8000FFFFFFFFFFFFFFFFFFFFFFFFFFFFFFFF84
:10FC9000FFFFFFFFFFFFFFFFFFFFFFFFFFFFFFFF74
:10FCA000FFFFFFFFFFFFFFFFFFFFFFFFFFFFFFFF64
:10FCB000FFFFFFFFFFFFFFFFFFFFFFFFFFFFFFFF54
:10FCC000FFFFFFFFFFFFFFFFFFFFFFFFFFFFFFFF44
:10FCD000FFFFFFFFFFFFFFFFFFFFFFFFFFFFFFFF34
:10FCE000FFFFFFFFFFFFFFFFFFFFFFFFFFFFFFFF24
:10FCF000FFFFFFFFFFFFFFFFFFFF8639C731863998
:10FD0000C73138C63335F304F404F304BACEFFFF29
:10FD1000FFFFFFFFFFFFFFFFFFFFFFFFFFFFFFFFF3
:10FD2000FFFFFFFFFFFFFFFFFFFFFFFFFFFFFFFFE3
:10FD3000FFFFFFFFFFFFFFFFFFFFFFFFFFFFFFFFD3
:10FD4000FFFFFFFFFFFFFFFFFFFFFFFFFFFFFFFFC3
:10FD5000FFFFFFFFFFFFFFFFFFFFFFFFFFFFFFFFB3
:10FD6000FFFFFFFFFFFFFFFFFFFFFFFFFFFFFFFFA3
:10FD7000FFFFFFFFFFFFFFFFFFFFFFFFFFFFFFFF93
:10FD8000FFFFBFFF39B6F8AD39B639BE7BBEBACE7C
:10FD9000BCCEFCDEBEEFFFFFFFFFFFFFFFFFFFFF5C
:10FDA000FFFFFFFFFFFFFFFFFFFFFFFFFFFFFFFF63
:10FDB000FFFFFFFFFFFFFFFFFFFFFFFFFFFFFFFF53
:10FDC000FFFFFFFFFFFFFFFFFFFFFFFFFFFFFFFF43
:10FDD000FFFFFFFFFFFFFFFFFFFFFFFFFFFFFFFF33
:10FDE000FFFFFFFFFFFFFFFFFFFFFFFFFFFFFFFF23
:10FDF000FFFFFFFFFFFFFFFFFFFFFFFFFFFFFFFF13
:10FE0000FFFFFFFFFFFFFFFFFFFFFFFFFFFFFFFF02
:10FE1000FFFFFFFFFFFFFFFFFFFFFFFFFFFFFFFFF2
:10FE2000FFFFFFFFFFFFFFFFFFFFFFFFFFFFFFFFE2
:10FE3000FFFFFFFFFFFFFFFFFFFFBEE77514B614D4
:10FE4000751CB514751CB614751CB5147514B61450
:10FE5000751CB514751CB614751CB5147514B61440
:10FE6000751CB514751CB614751CB5147514B61430
:10FE7000751CB514751CB614751CB5147514B61420
:10FE8000751CB514751CB614751CB5147514B61410
:10FE9000751CB514751CB6147EE7FFFFFFFFFFFF4E
:10FEA000FFFFFFFFFFFFFFFFFFFFFFFFFFFFFFFF62
:10FEB000FFFFFFFFFFFFFFFFFFFFFFFFFFFFFFFF52
:10FEC000FFFFFFFFFFFFFFFFFFFFFFFFFFFFFFFF42
:10FED000FFFFFFFFFFFFFFFFFFFFFFFFFFFFFFFF32
:10FEE000FFFFFFFFFFFFFFFFFFFFFFFFFFFFFFFF22
:10FEF000FFFFFFFFFFFFFFFFFFFFFFFFFFFFFFFF12
:10FF0000FFFFFFFFFFFFFFFFFFFFFFFFFFFFFFFF01
:10FF1000FFFFFFFFFFFFFFFFFFFFFFFFFFFFFFFFF1
:10FF2000FFFFFFFFFFFFFFFFFFFFFFFFFFFFFFFFE1
:10FF3000FFFFFFFFFFFFFFFFFFFFFFFFFFFFFFFFD1
:10FF4000FFFFFFFFFFFFFFFFFFFFFFFFFFFFFFFFC1
:10FF5000FFFFFFFFFFFFFFFFFFFFFFFFFFFFFFFFB1
:10FF6000FFFFFFFFFFFFFFFFFFFFFFFFFFFFFFFFA1
:10FF7000FFFFFFFFFFFFFFFFFFFFC6318639C731DD
:10FF80008639BAD6F304F304F304F304FFD7FFFF72
:10FF9000FFFFFFFFFFFFFFFFFFFFFFFFFFFFFFFF71
:10FFA000FFFFFFFFFFFFFFFFFFFFFFFFFFFFFFFF61
:10FFB000FFFFFFFFFFFFFFFFFFFFFFFFFFFFFFFF51
:10FFC000FFFFFFFFFFFFFFFFFFFFFFFFFFFFFFFF41
:10FFD000FFFFFFFFFFFFFFFFFFFFFFFFFFFFFFFF31
:10FFE000FFFFFFFFFFFFFFFFFFFFFFFFFFFFFFFF21
:10FFF000FFFFFFFFFFFFFFFFFFFFFFFFFFFFFFFF11
:020000040801F1
:100000003DE7B8AD78ADF9ADF9B53ABE3AC6BBC675
:10001000BBD6FCD6FCDE7EEFFFFFFFFFFFFFFFFF3E
:10002000FFFFFFFFFFFFFFFFFFFFFFFFFFFFFFFFE0
:10003000FFFFFFFFFFFFFFFFFFFFFFFFFFFFFFFFD0
:10004000FFFFFFFFFFFFFFFFFFFFFFFFFFFFFFFFC0
:10005000FFFFFFFFFFFFFFFFFFFFFFFFFFFFFFFFB0
:10006000FFFFFFFFFFFFFFFFFFFFFFFFFFFFFFFFA0
:10007000FFFFFFFFFFFFFFFFFFFFFFFFFFFFFFFF90
:10008000FFFFFFFFFFFFFFFFFFFFFFFFFFFFFFFF80
:10009000FFFFFFFFFFFFFFFFFFFFFFFFFFFFFFFF70
:1000A000FFFFFFFFFFFFFFFFFFFFFFFFFFFFFFFF60
:1000B000FFFFFFFFFFFFFFFFFFFFBEE7B614751452
:1000C000B614B514B6147514B614B514B614751464
:1000D000B614B514B6147514B614B514B614751454
:1000E000B614B514B6147514B614B514B614751444
:1000F000B614B514B6147514B614B514B614751434
:10010000B614B514B6147514B614F62C383DF73C75
:10011000B614B514B6147514BEDFFFFFFFFFFFFF62
:10012000FFFFFFFFFFFFFFFFFFFFFFFFFFFFFFFFDF
:10013000FFFFFFFFFFFFFFFFFFFFFFFFFFFFFFFFCF
:10014000FFFFFFFFFFFFFFFFFFFFFFFFFFFFFFFFBF
:10015000FFFFFFFFFFFFFFFFFFFFFFFFFFFFFFFFAF
:10016000FFFFFFFFFFFFFFFFFFFFFFFFFFFFFFFF9F
:10017000FFFFFFFFFFFFFFFFFFFFFFFFFFFFFFFF8F
:10018000FFFFFFFFFFFFFFFFFFFFFFFFFFFFFFFF7F
:10019000FFFFFFFFFFFFFFFFFFFFFFFFFFFFFFFF6F
:1001A000FFFFFFFFFFFFFFFFFFFFFFFFFFFFFFFF5F
:1001B000FFFFFFFFFFFFFFFFFFFFFFFFFFFFFFFF4F
:1001C000FFFFFFFFFFFFFFFFFFFFFFFFFFFFFFFF3F
:1001D000FFFFFFFFFFFFFFFFFFFFFFFFFFFFFFFF2F
:1001E000FFFFFFFFFFFFFFFFFFFFFFFFFFFFFFFF1F
:1001F000FFFFFFFFFFFFFFFFFFFF8631C73186399B
:10020000C73138C6F404F3043305F304BACEFFFF54
:10021000FFFFFFFFFFFFFFFFFFFFFFFFFFFFFFFFEE
:10022000FFFFFFFFFFFFFFFFFFFFFFFFFFFFFFFFDE
:10023000FFFFFFFFFFFFFFFFFFFFFFFFFFFFFFFFCE
:10024000FFFFFFFFFFFFFFFFFFFFFFFFFFFFFFFFBE
:10025000FFFFFFFFFFFFFFFFFFFFFFFFFFFFFFFFAE
:10026000FFFFFFFFFFFFFFFFFFFFFFFFFFFFFFFF9E
:10027000FFFFFFFFFFFFFFFFFFFFFFFFFFFFFFFF8E
:10028000359577A5B8A5F8AD39B639BE7BBEBBCEDE
:10029000FCCEFBD63DDF3DE7BEE7FFFFFFFFFFFFE4
:1002A000FFFFFFFFFFFFFFFFFFFFFFFFFFFFFFFF5E
:1002B000FFFFFFFFFFFFFFFFFFFFFFFFFFFFFFFF4E
:1002C000FFFFFFFFFFFFFFFFFFFFFFFFFFFFFFFF3E
:1002D000FFFFFFFFFFFFFFFFFFFFFFFFFFFFFFFF2E
:1002E000FFFFFFFFFFFFFFFFFFFFFFFFFFFFFFFF1E
:1002F000FFFFFFFFFFFFFFFFFFFFFFFFFFFFFFFF0E
:10030000FFFFFFFFFFFFFFFFFFFFFFFFFFFFFFFFFD
:10031000FFFFFFFFFFFFFFFFFFFFFFFFFFFFFFFFED
:10032000FFFFFFFFFFFFFFFFFFFFFFFFFFFFFFFFDD
:10033000FFFFFFFFFFFFFFFFFFFFBEE7751CB614C7
:100340007514B614751CB6147514B614751CB61451
:100350007514B614751CB6147514B614751CB61441
:100360007514B614751CB6147514B614751CB61431
:100370007514B614751CB6147514B614751CB51422
:10038000B865BCA6F97DB6143A86BCA63A8E7B8EBB
:10039000FDC6F624751CB6147EDFFFFFFFFFFFFFCE
:1003A000FFFFFFFFFFFFFFFFFFFFFFFFFFFFFFFF5D
:1003B000FFFFFFFFFFFFFFFFFFFFFFFFFFFFFFFF4D
:1003C000FFFFFFFFFFFFFFFFFFFFFFFFFFFFFFFF3D
:1003D000FFFFFFFFFFFFFFFFFFFFFFFFFFFFFFFF2D
:1003E000FFFFFFFFFFFFFFFFFFFFFFFFFFFFFFFF1D
:1003F000FFFFFFFFFFFFFFFFFFFFFFFFFFFFFFFF0D
:10040000FFFFFFFFFFFFFFFFFFFFFFFFFFFFFFFFFC
:10041000FFFFFFFFFFFFFFFFFFFFFFFFFFFFFFFFEC
:10042000FFFFFFFFFFFFFFFFFFFFFFFFFFFFFFFFDC
:10043000FFFFFFFFFFFFFFFFFFFFFFFFFFFFFFFFCC
:10044000FFFFFFFFFFFFFFFFFFFFFFFFFFFFFFFFBC
:10045000FFFFFFFFFFFFFFFFFFFFFFFFFFFFFFFFAC
:10046000FFFFFFFFFFFFFFFFFFFFFFFFFFFFFFFF9C
:10047000FFFFFFFFFFFFFFFFFFFFF39CF3A43084AC
:10048000F39CBACE79A6BA9E796EBA9EFFD7FFFFCB
:10049000FFFFFFFFFFFFFFFFFFFFFFFFFFFFFFFF6C
:1004A000FFFFFFFFFFFFFFFFFFFFFFFFFFFFFFFF5C
:1004B000FFFFFFFFFFFFFFFFFFFFFFFFFFFFFFFF4C
:1004C000FFFFFFFFFFFFFFFFFFFFFFFFFFFFFFFF3C
:1004D000FFFFFFFFFFFFFFFFFFFFFFFFFFFFFFFF2C
:1004E000FFFFFFFFFFFFFFFFFFFFFFFFFFFFFFFF1C
:1004F000FFFFFFFFFFFFFFFFFFFFFFFFFFFFFFFF0C
:10050000F49C779DB8ADF9ADF9B53ABE7AC6BBC6D5
:10051000BBD6FCD6FCE63DE77EEF7EEF7DEF7EEFBF
:10052000FFFFFFFFFFFFFFFFFFFFFFFFFFFFFFFFDB
:10053000FFFFFFFFFFFFFFFFFFFFFFFFFFFFFFFFCB
:10054000FFFFFFFFFFFFFFFFFFFFFFFFFFFFFFFFBB
:10055000FFFFFFFFFFFFFFFFFFFFFFFFFFFFFFFFAB
:10056000FFFFFFFFFFFFFFFFFFFFFFFFFFFFFFFF9B
:10057000FFFFFFFFFFFFFFFFFFFFFFFFFFFFFFFF8B
:10058000FFFFFFFFFFFFFFFFFFFFFFFFFFFFFFFF7B
:10059000FFFFFFFFFFFFFFFFFFFFFFFFFFFFFFFF6B
:1005A000FFFFFFFFFFFFFFFFFFFFFFFFFFFFFFFF5B
:1005B000FFFFFFFFFFFFFFFFFFFFBEE7B61475144D
:1005C000B6147514B614B514B6147514B61475149F
:1005D000B6147514B614B514B6147514B61475148F
:1005E000B6147514B614B514B6147514B61475147F
:1005F000B6147514B614B514B6147514B614B51C27
:10060000B95DBBA6B95D774DBC9E7514B614751463
:10061000B855B865B614B514BFDFFFFFFFFFFFFF85
:10062000FFFFFFFFFFFFFFFFFFFFFFFFFFFFFFFFDA
:10063000FFFFFFFFFFFFFFFFFFFFFFFFFFFFFFFFCA
:10064000FFFFFFFFFFFFFFFFFFFFFFFFFFFFFFFFBA
:10065000FFFFFFFFFFFFFFFFFFFFFFFFFFFFFFFFAA
:10066000FFFFFFFFFFFFFFFFFFFFFFFFFFFFFFFF9A
:10067000FFFFFFFFFFFFFFFFFFFFFFFFFFFFFFFF8A
:10068000FFFFFFFFFFFFFFFFFFFFFFFFFFFFFFFF7A
:10069000FFFFFFFFFFFFFFFFFFFFFFFFFFFF796E81
:1006A000BA6E796EB466BFFEFFFFFFFFFFFFFFFF6C
:1006B000FFFFFFFF38C64C6B4D9B4D6B339DFFFF1B
:1006C000FFFFFFFFFFFFFFFFFFFFFFFFBA66796E2F
:1006D000BA6E796EFFFFFFFFFFFFFFFFFFFFFFFF17
:1006E000FFFFF39C4D6330844D6B38C6FFFFFFFF67
:1006F000FFFFFFFFFFFFFFFFFFFFF96C3A65796E19
:10070000FA6CFFD73084308430844D6BBACEFFFF53
:10071000FFFFFFFFFFFFFFFFFFFFFFFFFFFFFFFFE9
:10072000FFFFFFFFFFFFFFFFFFFFFFFFFFFFFFFFD9
:10073000FFFFFFFFFFFFFFFFFFFFFFFFFFFFFFFFC9
:10074000FFFFFFFFFFFFFFFFFFFFFFFFFFFFFFFFB9
:10075000FFFFFFFFFFFFFFFFFFFFFFFFFFFFFFFFA9
:10076000FFFFFFFFFFFFFFFFFFFFFFFFFFFFFFFF99
:10077000FFFFFFFFFFFFFFFFFFFFFFFFFFFFFFFF89
:10078000FBDE718CF38CB294CF6BB38C359535A5B1
:10079000BCCEFCD63DDF3DE77EE77EEF7EE73DE762
:1007A0007EE7FFFFFFFFFFFFFFFFFFFFFFFFFFFFF2
:1007B000FFFFFFFFFFFFFFFFFFFFFFFFFFFFFFFF49
:1007C000FFFFFFFFFFFFFFFFFFFFFFFFFFFFFFFF39
:1007D000FFFFFFFFFFFFFFFFFFFFFFFFFFFFFFFF29
:1007E000FFFFFFFFFFFFFFFFFFFFFFFFFFFFFFFF19
:1007F000FFFFFFFFFFFFFFFFFFFFFFFFFFFFFFFF09
:10080000FFFFFFFFFFFFFFFFFFFFFFFFFFFFFFFFF8
:10081000FFFFFFFFFFFFFFFFFFFFFFFFFFFFFFFFE8
:10082000FFFFFFFFFFFFFFFFFFFFFFFFFFFFFFFFD8
:10083000FFFFFFFFFFFFFFFFFFFFBEE7751CB614C2
:10084000751CB5147514B614751CB514751CB61446
:10085000751CB5147514B614751CB514751CB61436
:10086000751CB5147514B614751CB514751CB61426
:10087000751CB5147514B614751CB514751CB61416
:10088000F97578553A8EB624FCBEFCAEFCB6FCAECB
:100890003DC7B9657514B6147EE7FFFFFFFFFFFF84
:1008A000FFFFFFFFFFFFFFFFFFFFFFFFFFFFFFFF58
:1008B000FFFFFFFFFFFFFFFFFFFFFFFFFFFFFFFF48
:1008C000FFFFFFFFFFFFFFFFFFFFFFFFFFFFFFFF38
:1008D000FFFFFFFFFFFFFFFFFFFFFFFFFFFFFFFF28
:1008E000FFFFFFFFFFFFFFFFFFFFFFFFFFFFFFFF18
:1008F000FFFFBAD638C638C638C638C67AD6FFFF24
:10090000FFFFFFFFFFFFFFFFFFFFFFFFFFFFFFFFF7
:10091000FFFFFFFFFFFFFFFFFFFFFFFFFFFFF304EE
:10092000F304F304F304FFCFFFFFFFFFFFFFFFFF1C
:10093000FFFFFFFF3084C7318639C6310D6BFFFFE3
:10094000FFFFFFFFFFFFFFFFFFFFFFD7F304F304ED
:10095000F304F3047FFEFFFFFFFFFFFFFFFFFFFF36
:10096000FFFF30848639C73106384D6BFFFFFFFF2C
:10097000FFFFFFFFFFFFFFFFFFFFF334F304F3046C
:10098000F304BFD68639C7318639C6317AD6FFFF20
:10099000FFFFFFFFFFFFFFFFFFFFFFFFFFFFFFFF67
:1009A000FFFFFFFFFFFFFFFFFFFFFFFFFFFFFFFF57
:1009B000FFFFFFFFFFFFFFFFFFFFFFFFFFFFFFFF47
:1009C000FFFFFFFFFFFFFFFFFFFFFFFFFFFFFFFF37
:1009D000FFFFFFFFFFFFFFFFFFFFFFFFFFFFFFFF27
:1009E000FFFFFFFFFFFFFFFFFFFFFFFFFFFFFFFF17
:1009F000FFFFFFFFFFFFFFFFFFFFFFFFFFFFFFFF07
:100A0000FFFFFFFFFFFFFFFFFFFF3CDFFBE675ADD2
:100A100039C6FCD6FCDE3DE77EEFBEEF7EEF7DE71C
:100A20003DE77EEFFFFFFFFFFFFFFFFFFFFFFFFF41
:100A3000FFFFFFFFFFFFFFFFFFFFFFFFFFFFFFFFC6
:100A4000FFFFFFFFFFFFFFFFFFFFFFFFFFFFFFFFB6
:100A5000FFFFFFFFFFFFFFFFFFFFFFFFFFFFFFFFA6
:100A6000FFFFFFFFFFFFFFFFFFFFFFFFFFFFFFFF96
:100A7000FFFFFFFFFFFFFFFFFFFFFFFFFFFFFFFF86
:100A8000FFFFFFFFFFFFFFFFFFFFFFFFFFFFFFFF76
:100A9000FFFFFFFFFFFFFFFFFFFFFFFFFFFFFFFF66
:100AA000FFFFFFFFFFFFFFFFFFFFFFFFFFFFFFFF56
:100AB000FFFFFFFFFFFFFFFFFFFFBEE7B614751448
:100AC000B614B514B6147514B614B514B61475145A
:100AD000B614B514B6147514B614B514B61475144A
:100AE000B614B514B6147514B614B514B61475143A
:100AF000B614B514B6147514B614B514B61475142A
:100B0000B61C774DF6247514372DB514B61C751424
:100B1000F624F62CB6147514BEDFFFFFFFFFFFFFAF
:100B2000FFFFFFFFFFFFFFFFFFFFFFFFFFFFFFFFD5
:100B3000FFFFFFFFFFFFFFFFFFFFFFFFFFFFFFFFC5
:100B4000FFFFFFFFFFFFFFFFFFFFFFFFFFFFFFFFB5
:100B5000FFFFFFFFFFFFFFFFFFFFFFFFFFFFFFFFA5
:100B6000FFFFFFFFFFFFFFFFFFFFFFFFF49C4D6B49
:100B7000C73186310030863900308631C731863939
:100B80004D63FFFFFFFFFFFFFFFFFFFFFFFFFFFFC3
:100B9000FFFFFFFFFFFFFFFFFFFFFFFFFAFFF30471
:100BA0003305F3043405FFD7FFFFFFFFFFFFFFFF0F
:100BB000FFFFFFFF30848639C73186314D6BFFFF61
:100BC000FFFFFFFFFFFFFFFFFFFFFFFFF404F30442
:100BD0003305F304FACFFFFFFFFFFFFFFFFFFFFF27
:100BE000FFFF3084C7318639C7313084FFFFFFFFF4
:100BF000FFFFFFFFFFFFFFFFFFFFF304F404F30419
:100C00003305B9D6C7318639C731863138C6FFFFBB
:100C1000FFFFFFFFFFFFFFFFFFFFFFFFFFFFFFFFE4
:100C2000FFFFFFFFFFFFFFFFFFFFFFFFFFFFFFFFD4
:100C3000FFFFFFFFFFFFFFFFFFFFFFFFFFFFFFFFC4
:100C4000FFFFFFFFFFFFFFFFFFFFFFFFFFFFFFFFB4
:100C5000FFFFFFFFFFFFFFFFFFFFFFFFFFFFFFFFA4
:100C6000FFFFFFFFFFFFFFFFFFFFFFFFFFFFFFFF94
:100C7000FFFFFFFFFFFFFFFFFFFFFFFFFFFFFFFF84
:100C8000FFFFFFFFFFFFFFFFFFFFFFFFFFFFBEF7BD
:100C900038B6FBD63DDF3DE77EE77EEF7EE73DE7FA
:100CA0007DDF3CDFBEEFFFFFFFFFFFFFFFFFFFFF2A
:100CB000FFFFFFFFFFFFFFFFFFFFFFFFFFFFFFFF44
:100CC000FFFFFFFFFFFFFFFFFFFFFFFFFFFFFFFF34
:100CD000FFFFFFFFFFFFFFFFFFFFFFFFFFFFFFFF24
:100CE000FFFFFFFFFFFFFFFFFFFFFFFFFFFFFFFF14
:100CF000FFFFFFFFFFFFFFFFFFFFFFFFFFFFFFFF04
:100D0000FFFFFFFFFFFFFFFFFFFFFFFFFFFFFFFFF3
:100D1000FFFFFFFFFFFFFFFFFFFFFFFFFFFFFFFFE3
:100D2000FFFFFFFFFFFFFFFFFFFFFFFFFFFFFFFFD3
:100D3000FFFFFFFFFFFFFFFFFFFFBEE7751CB614BD
:100D40007514B614751CB6147514B614751CB61447
:100D50007514B614751CB6147514B614751CB61437
:100D60007514B614751CB6147514B614751CB61427
:100D70007514B614751CB6147514B614751CB61417
:100D80007514B614751CB6147B9EB6147B9EB614EF
:100D9000784DB965751CB6147EDFFFFFFFFFFFFFBE
:100DA000FFFFFFFFFFFFFFFFFFFFFFFFFFFFFFFF53
:100DB000FFFFFFFFFFFFFFFFFFFFFFFFFFFFFFFF43
:100DC000FFFFFFFFFFFFFFFFFFFFFFFFFFFFFFFF33
:100DD000FFFFFFFFFFFFFFFFFFFFFFFFFFFFFFFF23
:100DE000FFFFFFFFFFFFFFFF38C687698639C73166
:100DF000863987318639C731863987318639C73197
:100E00000D6BFFFFFFFFFFFFFFFFFFFFFFFFFFFF78
:100E1000FFFFFFFFFFFFFFFFFFFFFFFF7FD6F30492
:100E2000F304F3043004BAD6FFFFFFFFFFFFFFFF18
:100E3000FFFFFFFF3084C731863987313084FFFFE1
:100E4000FFFFFFFFFFFFFFFF79D6FFCFF304300462
:100E5000F304F3047FD6FFFFFFFFFFFFFFFFFFFF59
:100E6000FFFF30848639C73186394D6BFFFFFFFFA6
:100E7000FFFFFFFFFFFFFFFFFFFFF3343004F3042A
:100E8000F304BFCE8639C7318639873179D6FFFF63
:100E9000FFFFFFFFFFFFFFFFFFFFFFFFFFFFFFFF62
:100EA000FFFFFFFFFFFFFFFFFFFFFFFFFFFFFFFF52
:100EB000FFFFFFFFFFFFFFFFFFFFFFFFFFFFFFFF42
:100EC000FFFFFFFFFFFFFFFFFFFFFFFFFFFFFFFF32
:100ED000FFFFFFFFFFFFFFFFFFFFFFFFFFFFFFFF22
:100EE000FFFFFFFFFFFFFFFFFFFFFFFFFFFFFFFF12
:100EF000FFFFFFFFFFFFFFFFFFFFFFFFFFFFFFFF02
:100F0000FFFFFFFFFFFFFFFFFFFFFFFFFFFF7DE78B
:100F1000F8BDFCD6FCE63DE77EEF7EEF7DEF7DE79A
:100F20003DE73DDFFCDEBEEFFFFFFFFFFFFFFFFF02
:100F3000FFFFFFFFFFFFFFFFFFFFFFFFFFFFFFFFC1
:100F4000FFFFFFFFFFFFFFFFFFFFFFFFFFFFFFFFB1
:100F5000FFFFFFFFFFFFFFFFFFFFFFFFFFFFFFFFA1
:100F6000FFFFFFFFFFFFFFFFFFFFFFFFFFFFFFFF91
:100F7000FFFFFFFFFFFFFFFFFFFFFFFFFFFFFFFF81
:100F8000FFFFFFFFFFFFFFFFFFFFFFFFFFFFFFFF71
:100F9000FFFFFFFFFFFFFFFFFFFFFFFFFFFFFFFF61
:100FA000FFFFFFFFFFFFFFFFFFFFFFFFFFFFFFFF51
:100FB000FFFFFFFFFFFFFFFFFFFFBEE7B614751443
:100FC000B6147514B6147514B6147514B6147514D5
:100FD000B6147514B6147514B6147514B6147514C5
:100FE000B6147514B6147514B6147514B6147514B5
:100FF000B6147514B6147514B6147514B6147514A5
:10100000B6147514B6147514FCA6374DFDAE774DA5
:10101000FA75B965B6147514BFDFFFFFFFFFFFFF58
:10102000FFFFFFFFFFFFFFFFFFFFFFFFFFFFFFFFD0
:10103000FFFFFFFFFFFFFFFFFFFFFFFFFFFFFFFFC0
:10104000FFFFFFFFFFFFFFFFFFFFFFFFFFFFFFFFB0
:10105000FFFFFFFFFFFFFFFFFFFFFFFFFFFFFFFFA0
:10106000FFFFFFFFFFFFF39CC7318639C731863989
:10107000C7318639C7318639C7318639C731863994
:101080003084FFFFFFFFFFFFFFFFFFFFFFFFFFFFBA
:10109000FFFFFFFFFFFFFFFFFFFFFFFFFFFF736E7D
:1010A000FA6C796EBA66FFFFFFFFFFFFFFFFFFFFDD
:1010B000FFFFFFFF38C64C6B30844C9B349DFFFF15
:1010C000BFCE796E3335F304BA6EFFFF3A65796EA1
:1010D000FA6C736EFFFFFFFFFFFFFFFFFFFFFFFFD5
:1010E000FFFF38C64D6330844D9BF39CFFFFFFFF2D
:1010F000FFFFFFFFFFFFFFFFFFFFF99CBA66739E34
:10110000FA6CF9FF339D3084F49C3084BACEFFFF33
:10111000FFFFFFFFFFFFFFFFFFFFFFFFFFFFFFFFDF
:10112000FFFFFFFFFFFFFFFFFFFFFFFFFFFFFFFFCF
:10113000FFFFFFFFFFFFFFFFFFFFFFFFFFFFFFFFBF
:10114000FFFFFFFFFFFFFFFFFFFFFFFFFFFFFFFFAF
:10115000FFFFFFFFFFFFFFFFFFFFFFFFFFFFFFFF9F
:10116000FFFFFFFFFFFFFFFFFFFFFFFFFFFFFFFF8F
:10117000FFFFFFFFFFFFFFFFFFFFFFFFFFFFFFFF7F
:10118000FFFFFFFFFFFFFFFFFFFFFFFFFFFFFEFF70
:10119000359DFCDE3DDF3DE77EE77EEF7EE73DE708
:1011A0003DE73CE73CDFFCDE7DE7FFFFFFFFFFFFA5
:1011B000FFFFFFFFFFFFFFFFFFFFFFFFFFFFFFFF3F
:1011C000FFFFFFFFFFFFFFFFFFFFFFFFFFFFFFFF2F
:1011D000FFFFFFFFFFFFFFFFFFFFFFFFFFFFFFFF1F
:1011E000FFFFFFFFFFFFFFFFFFFFFFFFFFFFFFFF0F
:1011F000FFFFFFFFFFFFFFFFFFFFFFFFFFFFFFFFFF
:10120000FFFFFFFFFFFFFFFFFFFFFFFFFFFFFFFFEE
:10121000FFFFFFFFFFFFFFFFFFFFFFFFFFFFFFFFDE
:10122000FFFFFFFFFFFFFFFFFFFFFFFFFFFFFFFFCE
:10123000FFFFFFFFFFFFFFFFFFFFBEE77514B614C0
:10124000751CB514751CB614751CB5147514B6143C
:10125000751CB514751CB614751CB5147514B6142C
:10126000751CB514751CB614751CB5147514B6141C
:10127000751CB514751CB614751CB5147514B6140C
:10128000751CB514751CB614B96D3A7EFA7D3A7E9C
:101290003A863735751CB6147EE7FFFFFFFFFFFF68
:1012A000FFFFFFFFFFFFFFFFFFFFFFFFFFFFFFFF4E
:1012B000FFFFFFFFFFFFFFFFFFFFFFFFFFFFFFFF3E
:1012C000FFFFFFFFFFFFFFFFFFFFFFFFFFFFFFFF2E
:1012D000FFFFFFFFFFFFFFFFFFFFFFFFFFFFFFFF1E
:1012E000FFFFFFFFF3A4C7318639C6318639C73106
:1012F0008639C6310D6B308430844D6B8639C731E9
:1013000038CEFFFFFFFFFFFFFFFFFFFFFFFFFFFFE5
:10131000FFFFFFFFFFFFFFFFFFFFFFFFFFFFFFFFDD
:10132000FFFFFFFFFFFFFFFFFFFFFFFFFFFFFFFFCD
:10133000FFFFFFFFFFFFFFFFFFFFFFFFFFFFBACE33
:10134000F30CF304F304F304796EFFFFFFFFFFFFD8
:10135000FFFFFFFFFFFFFFFFFFFFFFFFFFFFFFFF9D
:10136000FFFFFFFFFFFFFFFFFFFFFFFFFFFFFFFF8D
:10137000FFFFFFFFFFFFFFFFFFFFFFFFFFFFFFFF7D
:10138000FFFFFFFFFFFFFFFFFFFFFFFFFFFFFFFF6D
:10139000FFFFFFFFFFFFFFFFFFFFFFFFFFFFFFFF5D
:1013A000FFFFFFFFFFFFFFFFFFFFFFFFFFFFFFFF4D
:1013B000FFFFFFFFFFFFFFFFFFFFFFFFFFFFFFFF3D
:1013C000FFFFFFFFFFFFFFFFFFFFFFFFFFFFFFFF2D
:1013D000FFFFFFFFFFFFFFFFFFFFFFFFFFFFFFFF1D
:1013E000FFFFFFFFFFFFFFFFFFFFFFFFFFFFFFFF0D
:1013F000FFFFFFFFFFFFFFFFFFFFFFFFFFFFFFFFFD
:10140000FFFFFFFFFFFFFFF73AC63ABE7BCE7DE747
:1014100035A5FCD6FCE63DE77DEFBEEF7EEF7DE730
:101420003DE73DDFFCDEFCDEFCDEFCD6FCDE7EEFD5
:10143000BEFFFFFFFFFFFFFFFFFFFFFFFFFFFFFFFD
:10144000FFFFFFFFFFFFFFFFFFFFFFFFFFFFFFFFAC
:10145000FFFFFFFFFFFFFFFFFFFFFFFFFFFFFFFF9C
:10146000FFFFFFFFFFFFFFFFFFFFFFFFFFFFFFFF8C
:10147000FFFFFFFFFFFFFFFFFFFFFFFFFFFFFFFF7C
:10148000FFFFFFFFFFFFFFFFFFFFFFFFFFFFFFFF6C
:10149000FFFFFFFFFFFFFFFFFFFFFFFFFFFFFFFF5C
:1014A000FFFFFFFFFFFFFFFFFFFFFFFFFFFFFFFF4C
:1014B000FFFFFFFFFFFFFFFFFFFFBEE7B61475143E
:1014C000B614B514B6147514B614B514B614751450
:1014D000B614B514B6147514B614B514B614751440
:1014E000B614B514B6147514B614B514B614751430
:1014F000B614B514B6147514B614B514B614751420
:10150000B614B514B6147514B955FCB6B95D7B9E06
:10151000FCAE774DB6147514BEDFFFFFFFFFFFFF73
:10152000FFFFFFFFFFFFFFFFFFFFFFFFFFFFFFFFCB
:10153000FFFFFFFFFFFFFFFFFFFFFFFFFFFFFFFFBB
:10154000FFFFFFFFFFFFFFFFFFFFFFFFFFFFFFFFAB
:10155000FFFFFFFFFFFFFFFFFFFFFFFFFFFFFFFF9B
:10156000FFFF38C6C7318639C7318631C731863962
:1015700038C6BFFEFFFFFFFFFFFFFFFFFFFF79D66B
:10158000FFFFFFFFFFFFFFFFFFFFFFFFFFFFFFFF6B
:10159000FFFFFFFFFFFFFFFFFFFFFFFFFFFFFFFF5B
:1015A000FFFFFFFFFFFFFFFFFFFFFFFFFFFFFFFF4B
:1015B000FFFFFFFFFFFFFFFFFFFFFFFFFFFFFFFF3B
:1015C0003305F304F404F3043365FFFFFFFFFFFF6B
:1015D000FFFFFFFFFFFFFFFFFFFFFFFFFFFFFFFF1B
:1015E000FFFFFFFFFFFFFFFFFFFFFFFFFFFFFFFF0B
:1015F000FFFFFFFFFFFFFFFFFFFFFFFFFFFFFFFFFB
:10160000FFFFFFFFFFFFFFFFFFFFFFFFFFFFFFFFEA
:10161000FFFFFFFFFFFFFFFFFFFFFFFFFFFFFFFFDA
:10162000FFFFFFFFFFFFFFFFFFFFFFFFFFFFFFFFCA
:10163000FFFFFFFFFFFFFFFFFFFFFFFFFFFFFFFFBA
:10164000FFFFFFFFFFFFFFFFFFFFFFFFFFFFFFFFAA
:10165000FFFFFFFFFFFFFFFFFFFFFFFFFFFFFFFF9A
:10166000FFFFFFFFFFFFFFFFFFFFFFFFFFFFFFFF8A
:10167000FFFFFFFFFFFFFFFFFFFFFFFFFFFFFFFF7A
:10168000FFFFFFFFFFFF79C6F9ADD07BF9B57BCE39
:10169000FCCEFBD63DDF3DE77EE77EEF7EE73DE714
:1016A0007DDF3CDF3DDFFCDEFCD6FBD6FCCEBBCED7
:1016B000BBC639BE7BC67ACEBBC6BBCEFCD63DE729
:1016C000BEEFFFFFFFFFFFFFFFFFFFFFFFFFFFFF7B
:1016D000FFFFFFFFFFFFFFFFFFFFFFFFFFFFFFFF1A
:1016E000FFFFFFFFFFFFFFFFFFFFFFFFFFFFFFFF0A
:1016F000FFFFFFFFFFFFFFFFFFFFFFFFFFFFFFFFFA
:10170000FFFFFFFFFFFFFFFFFFFFFFFFFFFFFFFFE9
:10171000FFFFFFFFFFFFFFFFFFFFFFFFFFFFFFFFD9
:10172000FFFFFFFFFFFFFFFFFFFFFFFFFFFFFFFFC9
:10173000FFFFFFFFFFFFFFFFFFFFBEE7751CB614B3
:101740007514B614751CB6147514B614751CB6143D
:101750007514B614751CB6147514B614751CB6142D
:101760007514B614751CB6147514B614751CB6141D
:101770007514B614751CB6147514B614751CB6140D
:101780007514B614751CB614BCAEB61CFCB6373D49
:10179000B6247514751CB6147EDFFFFFFFFFFFFF34
:1017A000FFFFFFFFFFFFFFFFFFFFFFFFFFFFFFFF49
:1017B000FFFFFFFFFFFFFFFFFFFFFFFFFFFFFFFF39
:1017C000FFFFFFFFFFFFFFFFFFFFFFFFFFFFFFFF29
:1017D000FFFFFFFFFFFFFFFFFFFFFFFFFFFFFFFF19
:1017E000FFFF4D6B8639C731863987314D6BBACED5
:1017F000FFFFFFFFFFFFFFFFFFFFFFFFFFFFFFFFF9
:10180000FFFFFFFFFFFFFFFFFFFFFFFF38C6F39C57
:1018100030843084F3A438C67FFEFFFFFFFFFFFF54
:10182000FFFFFFFFFFFF38C679D6BACE79D6FFFF9C
:10183000FFFFFFFFF3A4308438C6FFFFFFD7BA9E37
:10184000F304F304F304F304793EFFCFF9D7FFCF99
:10185000FFFFFFFFFFFFFFFFFFD7BACE79A6BA6EEB
:10186000796EBA9E7FFEFFFFFFFFFFFFFFD7FFCF1E
:10187000FFD7FFCFFFD7FFCFFFFFFFFFFFFFFFFF28
:10188000FFFFFFCFFFD7FFCFFFD7FFCFFFFFFFFF48
:1018900079FEFFCFFFFFFFFFFFFFFFFFFFFFFFFF0F
:1018A000FFFFFFFFFFFFFFFFFFFFFFFFFFFFFFFF48
:1018B000FFFFFFFFFFFFFFFFFFFFFFFFFFFFFFFF38
:1018C000FFFFFFFFFFFFFFFFFFFFFFFFFFFFFFFF28
:1018D000FFFFFFFFFFFFFFFFFFFFFFFFFFFFFFFF18
:1018E000FFFFFFFFFFFFFFFFFFFFFFFFFFFFFFFF08
:1018F000FFFFFFFFFFFFFFFFFFFFFFFFFFFFFFFFF8
:10190000FFFFFFFFFFFFF394B7AD7DE77194728493
:101910007BCEFCD6FCE63DE779CE7EEF7DEF7DE722
:101920003DE73DDFFCDEFCDEFCDEFCD6BBD6BBCEFD
:10193000F8BD7ABE3AC63ABE3ABE39B6F9B5F9B57F
:10194000B8B5F9B5BCD6FFFFFFFFFFFFFFFFFFFFF4
:10195000FFFFFFFFFFFFFFFFFFFFFFFFFFFFFFFF97
:10196000FFFFFFFFFFFFFFFFFFFFFFFFFFFFFFFF87
:10197000FFFFFFFFFFFFFFFFFFFFFFFFFFFFFFFF77
:10198000FFFFFFFFFFFFFFFFFFFFFFFFFFFFFFFF67
:10199000FFFFFFFFFFFFFFFFFFFFFFFFFFFFFFFF57
:1019A000FFFFFFFFFFFFFFFFFFFFFFFFFFFFFFFF47
:1019B000FFFFFFFFFFFFFFFFFFFFBEE7B614751439
:1019C000B6147514B614B514B6147514B61475148B
:1019D000B6147514B614B514B6147514B61475147B
:1019E000B6147514B614B514B6147514B61475146B
:1019F000B6147514B614B514B6147514B61475145B
:101A0000B6147514B614B514FCAEF9753DC7F97566
:101A1000FA6DF634B614B514BFDFFFFFFFFFFFFF0A
:101A2000FFFFFFFFFFFFFFFFFFFFFFFFFFFFFFFFC6
:101A3000FFFFFFFFFFFFFFFFFFFFFFFFFFFFFFFFB6
:101A4000FFFFFFFFFFFFFFFFFFFFFFFFFFFFFFFFA6
:101A5000FFFFFFFFFFFFFFFFFFFFFFFFFFFFFFFF96
:101A6000BACE8639C7318639C731863938C6FFFFC5
:101A7000FFFFFFFFFFFFFFFFFFFFFFFFFFFFFFFF76
:101A8000FFFFFFFFFFFFFFFF38C64D6BC7318639F1
:101A9000C7318639C7318639C731F39CFFFFFFFF55
:101AA000FFFFFFFFFFFF8639C7318639C7317FFE51
:101AB00038C68639C731863930847FD63305F3047A
:101AC000F404F3043405F304F404F3043305F304D9
:101AD000FFCFFFFFFFFFB99EF434F3043305F30497
:101AE000F404F3043405B96EFFFFFFFFBA9EF3045C
:101AF000F404F3043405F304FFCFFFFFFFFFFFFFFF
:101B0000BF9EF3043405F304F404F33CFFCFFFFF5E
:101B100038C6F39CFFFFFFFFFFFFFFFFFFFFFFFF44
:101B2000FFFFFFFFFFFFFFFFFFFFFFFFFFFFFFFFC5
:101B3000FFFFFFFFFFFFFFFFFFFFFFFFFFFFFFFFB5
:101B4000FFFFFFFFFFFFFFFFFFFFFFFFFFFFFFFFA5
:101B5000FFFFFFFFFFFFFFFFFFFFFFFFFFFFFFFF95
:101B6000FFFFFFFFFFFFFFFFFFFFFFFFFFFFFFFF85
:101B7000FFFFFFFFFFFFFFFFFFFFFFFFFFFFFFFF75
:101B8000FFFFFFFFFFFFBEF7B6B5FFFFFFFFFBDE66
:101B9000728C30847AC63DE735A576AD7EE73DE7A9
:101BA0003DE73CE73DDFFCDEFCD6BBD6FCCEBBCE42
:101BB000BBC67AC67BBE3ABE3ABEF9BD39B6F8B5E9
:101BC000F9ADB8ADB8A5F8AD7EE7FFFFFFFFFFFFA9
:101BD000FFFFFFFFFFFFFFFFFFFFFFFFFFFFFFFF15
:101BE000FFFFFFFFFFFFFFFFFFFFFFFFFFFFFFFF05
:101BF000FFFFFFFFFFFFFFFFFFFFFFFFFFFFFFFFF5
:101C0000FFFFFFFFFFFFFFFFFFFFFFFFFFFFFFFFE4
:101C1000FFFFFFFFFFFFFFFFFFFFFFFFFFFFFFFFD4
:101C2000FFFFFFFFFFFFFFFFFFFFFFFFFFFFFFFFC4
:101C3000FFFFFFFFFFFFFFFFFFFFBEE7751CB614AE
:101C4000751CB5147514B614751CB514751CB61432
:101C5000751CB5147514B614751CB514751CB61422
:101C6000751CB5147514B614751CB514751CB61412
:101C7000751CB5147514B614751CB514751CB61402
:101C8000751CB5147514B614384DB85D785DB9552A
:101C9000785DF62C7514B6147EE7FFFFFFFFFFFF9B
:101CA000FFFFFFFFFFFFFFFFFFFFFFFFFFFFFFFF44
:101CB000FFFFFFFFFFFFFFFFFFFFFFFFFFFFFFFF34
:101CC000FFFFFFFFFFFFFFFFFFFFFFFFFFFFFFFF24
:101CD000FFFFFFFFFFFFFFFFFFFFFFFFFFFFFFFF14
:101CE0003084C6318639C73186393084FFFFFFFF23
:101CF000FFFFFFFFFFFFFFFFFFFFFFFFFFFFFFFFF4
:101D0000FFFFFFFFFFFFF39C8639C6318639C731DD
:101D10008639C6318639C7318639C6318D39BACE52
:101D2000FFFFFFFF7AD6C7318639C6318639F39C6B
:101D30008639C6318639C7313084BAD6F304F30404
:101D4000F304F304F304F304F304F304F304F304DB
:101D500079D6FFFFFA6CF304F304F304F304F304FD
:101D6000F304F304F304F304F33CFFD7FFFFF36C35
:101D7000F304F304F304F304796EFFFFFFFFFFFFA6
:101D8000F33CF304F304F304F304BAD6FFFFFFFFBC
:101D9000FFFFFFFFFFFFFFFFFFFFFFFFFFFFFFFF53
:101DA000FFFFFFFFFFFFFFFFFFFFFFFFFFFFFFFF43
:101DB000FFFFFFFFFFFFFFFFFFFFFFFFFFFFFFFF33
:101DC000FFFFFFFFFFFFFFFFFFFFFFFFFFFFFFFF23
:101DD000FFFFFFFFFFFFFFFFFFFFFFFFFFFFFFFF13
:101DE000FFFFFFFFFFFFFFFFFFFFFFFFFFFFFFFF03
:101DF000FFFFFFFFFFFFFFFFFFFFFFFFFFFFFFFFF3
:101E0000FFFFFFFFFFFFFFFFFFFFFFFFFFFFFFFFE2
:101E1000FFFFFFFFB294B7B5FFFF78C6D083B7B519
:101E20003DE73DDFFCDEFCDEFCDEFCD67BCE3DDFAD
:101E3000B7B5BAC63AC63ABE3ABE39B6F9BDF9B573
:101E4000B8B5F8ADB8ADB8A5B8ADFFF7FFFFFFFF67
:101E5000FFFFFFFFFFFFFFFFFFFFFFFFFFFFFFFF92
:101E6000FFFFFFFFFFFFFFFFFFFFFFFFFFFFFFFF82
:101E7000FFFFFFFFFFFFFFFFFFFFFFFFFFFFFFFF72
:101E8000FFFFFFFFFFFFFFFFFFFFFFFFFFFFFFFF62
:101E9000FFFFFFFFFFFFFFFFFFFFFFFFFFFFFFFF52
:101EA000FFFFFFFFFFFFFFFFFFFFFFFFFFFFFFFF42
:101EB000FFFFFFFFFFFFFFFFFFFFBEE7B614751434
:101EC000B614B514B6147514B614B514B614751446
:101ED000B614B514B6147514B614B514B614751436
:101EE000B614B514B6147514B614B514B614751426
:101EF000B614B514B6147514B614B514B614751416
:101F0000B614B514B6147514BB96B5143A7E751C88
:101F1000784DB865B6147514BEDFFFFFFFFFFFFFF5
:101F2000FFFFFFFFFFFFFFFFFFFFFFFFFFFFFFFFC1
:101F3000FFFFFFFFFFFFFFFFFFFFFFFFFFFFFFFFB1
:101F4000FFFFFFFFFFFFFFFFFFFFFFFFFFFFFFFFA1
:101F5000FFFFFFFFFFFFFFFFFFFFFFFFFFFFFFFF91
:101F60004D638631C7318639C731F39CFFFFFFFFD0
:101F7000FFFFFFFFFFFFFFFFFFFFFFFFFFFFFFFF71
:101F8000FFFFFFFF349D8639C7318631C73186395F
:101F9000C7310630C7318639C7318631C7314D6BFD
:101FA000FFFFFFFFFFFF8639C7318631C7314D6B19
:101FB000C7318631C73186393084BFD6F404F30483
:101FC0003305F3043405F3043305F304F404F30494
:101FD000FFCFB99E3405F3043305F304F434796E6E
:101FE0003335F3043405F3043305B99EFFFFFFD7FF
:101FF0003335F3043405F3043305BFD6FFFF799E70
:102000003305F3043405F304BA9EFFFFFFFFFFFF1F
:10201000FFFFFFFFFFFFFFFFFFFFFFFFFFFFFFFFD0
:10202000FFFFFFFFFFFFFFFFFFFFFFFFFFFFFFFFC0
:10203000FFFFFFFFFFFFFFFFFFFFFFFFFFFFFFFFB0
:10204000FFFFFFFFFFFFFFFFFFFFFFFFFFFFFFFFA0
:10205000FFFFFFFFFFFFFFFFFFFFFFFFFFFFFFFF90
:10206000FFFFFFFFFFFFFFFFFFFFFFFFFFFFFFFF80
:10207000FFFFFFFFFFFFFFFFFFFFFFFFFFFFFFFF70
:10208000FFFFFFFFFFFFFFFFFFFFFFFFFFFFFFFF60
:10209000FFFFFFFFFFFFFFFFFFFFFFFFFFFF78CE08
:1020A000B28C718CB28CB28CF39475A538BEFFFFE4
:1020B00034957AC67BC63ABE7ABE39B639B6F9B51A
:1020C000F9ADB8ADB8A5F494B89D7AC6FFFFFFFF8F
:1020D000FFFFFFFFFFFFFFFFFFFFFFFFFFFFFFFF10
:1020E000FFFFFFFFFFFFFFFFFFFFFFFFFFFFFFFF00
:1020F000FFFFFFFFFFFFFFFFFFFFFFFFFFFFFFFFF0
:10210000FFFFFFFFFFFFFFFFFFFFFFFFFFFFFFFFDF
:10211000FFFFFFFFFFFFFFFFFFFFFFFFFFFFFFFFCF
:10212000FFFFFFFFFFFFFFFFFFFFFFFFFFFFFFFFBF
:10213000FFFFFFFFFFFFFFFFFFFFBEE7751CB614A9
:102140007514B614751CB6147514B614751CB61433
:102150007514B614751CB6147514B614751CB61423
:102160007514B614751CB6147514B614751CB61413
:102170007514B614751CB6147514B614751CB61403
:102180007514B614751CB6147B9E75147B9EB6141C
:10219000384DB965751CB6147EDFFFFFFFFFFFFFEA
:1021A000FFFFFFFFFFFFFFFFFFFFFFFFFFFFFFFF3F
:1021B000FFFFFFFFFFFFFFFFFFFFFFFFFFFFFFFF2F
:1021C000FFFFFFFFFFFFFFFFFFFFFFFFFFFFFFFF1F
:1021D000FFFFFFFFFFFFFFFFFFFFFFFFFFFFFFFF0F
:1021E000863987318639C7318639BACEFFFFFFFF7E
:1021F000FFFFFFFFFFFFFFFFFFFFFFFFFFFFFFFFEF
:10220000FFFFBAFE8639C731863987318639F39C9C
:10221000FFFFFFFF38C6C731863987318639C7319E
:10222000F39CFFFFFFFFC731863987318639C731FD
:10223000863987318639C7693084FFFF79A6BA9E0F
:10224000F304F304F304F304F33CBA9E7FA6BA9EAE
:102250007AD6F304F304F304F304BA6EFFFFFFFF2E
:10226000FFFFBA6EF304F304F304F304FFFFFFFF70
:102270007A9EF304F304F304F304F334FFD7F33446
:10228000F304F304F304F334FFFFFFFFFFFFFFFF4A
:10229000FFFFFFFFFFFFFFFFFFFFFFFFFFFFFFFF4E
:1022A000FFFFFFFFFFFFFFFFFFFFFFFFFFFFFFFF3E
:1022B000FFFFFFFFFFFFFFFFFFFFFFFFFFFFFFFF2E
:1022C000FFFFFFFFFFFFFFFFFFFFFFFFFFFFFFFF1E
:1022D000FFFFFFFFFFFFFFFFFFFFFFFFFFFFFFFF0E
:1022E000FFFFFFFFFFFFFFFFFFFFFFFFFFFFFFFFFE
:1022F000FFFFFFFFFFFFFFFFFFFFFFFFFFFFFFFFEE
:10230000FFFFFFFFFFFFFFFFFFFFFFFFFFFFFFFFDD
:10231000FFFFFFFFFFFFFFFFFFFFFFFFFFFFFFFFCD
:10232000FFFFFFFFFFFFFFFFFFFFFFFFFFFFFFFFBD
:10233000718C39BE3AC63ABE3ABE39B6F9BDF9B566
:10234000B8B5B8AD78AD359D9073779D7DEFFFFF43
:10235000FFFFFFFFFFFFFFFFFFFFFFFFFFFFFFFF8D
:10236000FFFFFFFFBEF7FFFFFFFFFFFFFFFFFFFFC6
:10237000FFFFFFFFFFFFFFFFFFFFFFFFFFFFFFFF6D
:10238000FFFFFFFFFFFFFFFFFFFFFFFFFFFFFFFF5D
:10239000FFFFFFFFFFFFFFFFFFFFFFFFFFFFFFFF4D
:1023A000FFFFFFFFFFFFFFFFFFFFFFFFFFFFFFFF3D
:1023B000FFFFFFFFFFFFFFFFFFFFBEE7B61475142F
:1023C000B6147514B6147514B6147514B6147514C1
:1023D000B6147514B6147514B6147514B6147514B1
:1023E000B6147514B6147514B6147514B6147514A1
:1023F000B6147514B6147514B6147514B614751491
:10240000B6147514B61475147B96FCB63DB7FCB6BD
:10241000FDB6774DB6147514BFDFFFFFFFFFFFFF5A
:10242000FFFFFFFFFFFFFFFFFFFFFFFFFFFFFFFFBC
:10243000FFFFFFFFFFFFFFFFFFFFFFFFFFFFFFFFAC
:10244000FFFFFFFFFFFFFFFFFFFFFFFFFFFFFFFF9C
:10245000FFFFFFFFFFFFFFFFFFFFFFFFFFFFFFFF8C
:10246000C7318639C7318639C73179D6FFFFFFFFBB
:10247000FFFFFFFFFFFFFFFFFFFFFFFFFFFFFFFF6C
:10248000FFFF3084C7318639C73186393084FFFF7A
:10249000FFFFFFFFFFFFF39CC7318639C731863945
:1024A0004D6BFFFFFFFF8639C7318639C73186394B
:1024B000C731F39CBAFEFFD7FFFFFFFFFFFFFFD737
:1024C000F404F3043305F304BA6EFFFFFFFFFFFFCC
:1024D000BA6EF3043305F304F434FFFFFFFFFFFF8C
:1024E000FFFFFFFF3305F304F404F304BA9EFFFF7C
:1024F000FFFF739E3305F304F404F304BA66F30498
:10250000F404F3043305FFD7FFFFFFFFFFFFFFFFD6
:10251000FFFFFFFFFFFFFFFFFFFFFFFFFFFFFFFFCB
:10252000FFFFFFFFFFFFFFFFFFFFFFFFFFFFFFFFBB
:10253000FFFFFFFFFFFFFFFFFFFFFFFFFFFF7CE746
:10254000FBD679CE39BE79C63DE7FFFFFFFFFFFF1F
:10255000FFFFFFFFFFFFFFFFFFF7FFFFFFF7BEF7E4
:102560007DE73CE7FBD63CE7FFFFFFFFFFFFFFFFF8
:10257000FFFFFFFFFFFFFFFFFFFFFFFFFFFFFFFF6B
:10258000FFFFBEF77DE73CE7BEF7FFFFFFFFFFFF62
:10259000FFFFFFFFFFFFFFFFFFFFFFFFFFFFFFFF4B
:1025A000FFFFFFFFFFF7FEFFFFFFFFFFFFFFFFFF44
:1025B000FFFFCF7BF9B53ABE3ABE39BE39B6F8B5A2
:1025C000F9ADB8ADB8A57AC638C68F6BB8A57EEFA1
:1025D000FFFFFFFFFFFFFFFFFFFFFFFFFFFF3CDFEE
:1025E0003AB6B7A5F8A53CDFFFFFFFFFFFFFFFFFEF
:1025F000FFFFFFFFFFFFFFFFFFFFFFFFFFFFFFFFEB
:10260000FFFFFFFFFFFFFFFFFFFFFFFFFFFFFFFFDA
:10261000FFFFFFFFFFFFFFFFFFFFFFFFFFFFFFFFCA
:10262000FFFFFFFFFFFFFFFFFFFFFFFFFFFFFFFFBA
:10263000FFFFFFFFFFFFFFFFFFFFBEE77514B614AC
:10264000751CB514751CB614751CB5147514B61428
:10265000751CB514751CB614751CB5147514B61418
:10266000751CB514751CB614751CB5147514B61408
:10267000751CB514751CB614751CB5147514B614F8
:10268000751CB514751CB6147A963A863745B6147F
:10269000751CB514751CB6147EE7FFFFFFFFFFFF26
:1026A000FFFFFFFFFFFFFFFFFFFFFFFFFFFFFFFF3A
:1026B000FFFFFFFFFFFFFFFFFFFFFFFFFFFFFFFF2A
:1026C000FFFFFFFFFFFFFFFFFFFFFFFFFFFFFFFF1A
:1026D000FFFFFFFFFFFFFFFFFFFFFFFFFFFFFFFF0A
:1026E0008639C6318639C7318639BAD6FFFFFFFF32
:1026F000FFFFFFFFFFFFFFFFFFFFFFFFFFFFFFFFEA
:10270000FFFF4D6B8639C7318639C6317AD6FFFF58
:10271000FFFFFFFFFFFFBACE466BC6318639C731D8
:102720008639BAD6FFFFC7318639C6318639C731F7
:1027300038CEFFFFFFFFFFFFFFFFFFFFFFFFFFCFD1
:10274000F30CF304F304F304796EFFFFFFFFFFFFC4
:10275000F33CF304F304F304F36CFFD77A9EFFCF4A
:1027600079D6BA9EF33CF304F304F3047A6EFFFFC8
:10277000FFFFFFD7F33CF304F304F304F304F30483
:10278000F30CF3047AA6FFFFFFFFFFFFFFFFFFFF3D
:10279000FFFFFFFFFFFFFFFFFFFFFFFFFFFFFFFF49
:1027A000FFFFFFFFFFFFFFFFFFFFFFFFFFFFFFFF39
:1027B000FFFFFFFFFFFFFFFFFFFFBEF7FCE63DDF70
:1027C0003DE73DE73DE73DDFBAD639BEFCDEFFFF22
:1027D000FFFFFFFFFFFFBACE3CE73DDF3CE73DDFF9
:1027E000FCE63CDFFCDE7AC6F7BD39BE7EF7FFFFB4
:1027F000FFFFFFFFFFFFFFFFFFFFFFFFFFFFBEEF3A
:10280000FCDEFBD6BBD6BAC6F8BDF7B539C6FFF7B6
:10281000FFFFFFFFFFFFFFFFFFFFFFFFFFFFBEEF19
:10282000FCDE7AC639C6F8B5B7B5F7B539C63CDFB0
:10283000FFFFFFFF31843ABE39BE39B6F9B5F9B5AD
:10284000B8B5B8ADB8AD7ABEFFFFBAD60E63F59491
:10285000BBD6FFFFFFFFFFFFBEF7FBD676A5B38C0D
:1028600035AD75ADF4A4FFFFFFFFFFFFFFFFFFFFD6
:10287000FFFFFFFFFFFFFFFFFFFFFFFFFFFFFFFF68
:10288000FFFFFFFFFFFFFFFFFFFFFFFFFFFFFFFF58
:10289000FFFFFFFFFFFFFFFFFFFFFFFFFFFFFFFF48
:1028A000FFFFFFFFFFFFFFFFFFFFFFFFFFFFFFFF38
:1028B000FFFFFFFFFFFFFFFFFFFFBEE7B61475142A
:1028C000B614B514B6147514B614B514B61475143C
:1028D000B614B514B6147514B614B514B61475142C
:1028E000B614B514B6147514B614B514B61475141C
:1028F000B614B514B6147514B614B514B61475140C
:10290000B614B514B6147514B61437453A76BB9E92
:10291000BC9E373DB6147514BEDFFFFFFFFFFFFFFF
:10292000FFFFFFFFFFFFFFFFFFFFFFFFFFFFFFFFB7
:10293000FFFFFFFFFFFFFFFFFFFFFFFFFFFFFFFFA7
:10294000FFFFFFFFFFFFFFFFFFFFFFFFFFFFFFFF97
:10295000FFFFFFFFFFFFFFFFFFFFFFFFFFFFFFFF87
:10296000C7318631C7318639C73138C6FFFFFFFF0F
:10297000FFFFFFFFFFFFFFFFFFFFFFFFFFFFFFFF67
:10298000FFFF8631C7318639C7318631BACEFFFFA6
:10299000FFFFFFFFFFFFFFFFCD318631C7318639D3
:1029A000C731B9D6FFFF8639C7318631C73186397D
:1029B000FFFFFFFFFFFFFFFFFFFFFFFFFFFF79FEAE
:1029C0003305F304F404F3043365FFFFFFFFFFFF57
:1029D0003305F304F404F3043305F3043405F3047A
:1029E0003305F304F404F3043305F3043A35FFFF2D
:1029F000FFFFFFFFBFCEF3043305F3043405F304F8
:102A00003305B36EFFFFFFFFFFFFFFFFFFFFFFFF79
:102A1000FFFFFFFFFFFFFFFFFFFFFFFFFFFFFFFFC6
:102A2000FFFFFFFFFFFFFFFFFFFFFFFFFFFFFFFFB6
:102A3000FFFFFFFFFFFFFFFFBEEF7DEFBEEF3CDFBD
:102A400038B6F394F49439C6BEE77DEFFCD6FBDECE
:102A5000FFFFFFFFFFFF79CEBEE77DEFBEEF7DEF0B
:102A60007DDFFCDE3CDF7DEFBEE77DEF7AC63CE735
:102A7000FFFFFFFFFFFFFFFFFFFFFFFFBEEF7DEF49
:102A80007EE7FBD6F8B5B6ADFBD67DEF7EE738BE68
:102A90007DE7FFFFFFFFFFFFFFFFFFFFBEEF3DE70B
:102AA0007DE73CDF7AC638BEFBCE3DE77DE7BBD68F
:102AB00079BEFFFF79C6F49C7ABE39B63AB6F9B54D
:102AC000F9ADB8ADB8A53AC6FFFFFFFFFFF7F39C1D
:102AD0008E63317C779DF494727C349D7ACEFFFFB7
:102AE000FFFFFFFFFFFFFFFFFFFFFFFFFFFFFFFFF6
:102AF000FFFFFFFFFFFFFFFFFFFFFFFFFFFFFFFFE6
:102B0000FFFFFFFFFFFFFFFFFFFFFFFFFFFFFFFFD5
:102B1000FFFFFFFFFFFFFFFFFFFFFFFFFFFFFFFFC5
:102B2000FFFFFFFFFFFFFFFFFFFFFFFFFFFFFFFFB5
:102B3000FFFFFFFFFFFFFFFFFFFFBEE7751CB6149F
:102B40007514B614751CB6147514B614751CB61429
:102B50007514B614751CB6147514B614751CB61419
:102B60007514B614751CB6147514B614751CB61409
:102B70007514B614751CB6147514B614751CB614F9
:102B80007514B614751CB6143745FA757B9EBB9E3A
:102B90007B96F734751CB6147EDFFFFFFFFFFFFF47
:102BA000FFFFFFFFFFFFFFFFFFFFFFFFFFFFFFFF35
:102BB000FFFFFFFFFFFFFFFFFFFFFFFFFFFFFFFF25
:102BC000FFFFFFFFFFFFFFFFFFFFFFFFFFFFFFFF15
:102BD000FFFFFFFFFFFFFFFFFFFFFFFFFFFFFFFF05
:102BE0000D6B87318639C73186393084FFFFFFFF8F
:102BF000FFFFFFFFFFFFFFFFFFFFFFFFFFFFFFFFE5
:102C0000FFFF87318639C73186398731FFFFFFFFE4
:102C1000FFFFFFFFFFFFFFFF066B87318639C731DC
:102C2000863938C6FFFFC7318639873186394D6B03
:102C3000FFFFFFFFFFFFFFFFFFFFFFFFFFFFFFCFD4
:102C4000F304F304F304F304796EFFFFFFFFFACFFC
:102C5000F304F304F304F304F304F304F304F304BC
:102C6000F304F304F304F304F304F304F36CFFFF3D
:102C7000FFFFFFFFFFFFF334F304F304F304F30457
:102C8000F304BA9EFFFFFFFFFFFFFFFFFFFFFFFF01
:102C9000FFFFFFFFFFFFFFFFFFFFFFFFFFFFFFFF44
:102CA000FFFFFFFFFFFFFFFFFFFFFFFFFFFFFFFF34
:102CB000FFFFFFFFFFFF7EEF7DEF7EE7F8BD75A50D
:102CC000F7BDBACE38CEB2940D6BBBCE7DEFBBCE86
:102CD000BEF7FFFFFFFF79CE7DEF7EEFB7BD34A5D6
:102CE000F4A4F39430844D6B31847DE77EEF7AC693
:102CF000BEFFFFFFFFFFFFFFFFFF7EEF7EEF7EE7E0
:102D0000F8BD76ADF7BDB6B58F7BB3947EEF7EEFA1
:102D1000F8BDFFFFFFFFFFFFFFFF7EEF7EEF7EEFBF
:102D2000F8BDF49CF4A4F49CCF7B8E6BFCDE7EEFAC
:102D30003DE7BBCEFFFFF394F59C39B6F9BDF9B57D
:102D4000B8B5B8ADB8AD7ABEFFFFFFFFFFFFFFFF1C
:102D5000FFFFFBD638C63CDFFFFFFFFFFFFFFFFF93
:102D6000FFFFFFFFFFFFFFFFFFFFFFFFFFFFFFFF73
:102D7000FFFFFFFFFFFFFFFFFFFFFFFFFFFFFFFF63
:102D8000FFFFFFFFFFFFFFFFFFFFFFFFFFFFFFFF53
:102D9000FFFFFFFFFFFFFFFFFFFFFFFFFFFFFFFF43
:102DA000FFFFFFFFFFFFFFFFFFFFFFFFFFFFFFFF33
:102DB000FFFFFFFFFFFFFFFFFFFFBEE7B614751425
:102DC000B6147514B614B514B6147514B614751477
:102DD000B6147514B614B514B6147514B614751467
:102DE000B6147514B614B514B6147514B614751457
:102DF000B6147514B614B514B6147514B614751447
:102E0000B6147514B614B514FCA6FCBEB95DB62C88
:102E1000B6147514B614B514BFDFFFFFFFFFFFFF34
:102E2000FFFFFFFFFFFFFFFFFFFFFFFFFFFFFFFFB2
:102E3000FFFFFFFFFFFFFFFFFFFFFFFFFFFFFFFFA2
:102E4000FFFFFFFFFFFFFFFFFFFFFFFFFFFFFFFF92
:102E5000FFFFFFFFFFFFFFFFFFFFFFFFFFFFFFFF82
:102E6000F49C8639C7318639C7318639BACEFFFF1F
:102E7000FFFFFFFFFFFFFFFFFFFFFFFFFFFFFFFF62
:102E8000BACE8639C7318639C7318639FFFFFFFF91
:102E9000FFFFFFFFFFFFFFFFCD698639C73186398E
:102EA000C73179D6FFFF8639C7318639C7318639B0
:102EB000FFFFFFFFFFFFFFFFFFFFFFFFFFFFFFD74A
:102EC000F404F3043405F304BA6EFFFFFFFF7FD66A
:102ED000F404F3043405F304F404F3043335F30485
:102EE000F43430043004F33CF4043004BA66FFFFD9
:102EF000FFFFFFFFBA9EF304F404F3043305F30469
:102F0000F404F304BFCEFFFFFFFFFFFFFFFFFFFF4F
:102F1000FFFFFFFFFFFFFFFFFFFFFFFFFFFFFFFFC1
:102F2000FFFFFFFFFFFFFFFFFFFFFFFFFFFFFFFFB1
:102F3000FFFFFFFFBEEF3DE77EE73CE7BEF7FFFF89
:102F4000FFFFFFFFFFFFFFFFFFF7CF7B7DDF3DE7C9
:102F5000FCD6FFFFFFFF79CE7EE77DE7FFFFFFFF97
:102F6000FFFFFFFFFFFFFFFFBAD6D07B7DE73DE706
:102F7000BBCEFFFFFFFFFFFFBEEF3DE77DE77DEF2D
:102F8000FFFFFFFFFFFFFFFFFFFF34A53CD77DE7FB
:102F9000BBCE3DE7FFFFFFFFBEEF7DEF7EE73DE7E6
:102FA000BEF7FFFFFFFFFFFFFFFF7DF7307C7DE7F0
:102FB0007EE77AC6FFFFFFFF75A58F7377A5F8B58B
:102FC000F9ADB8ADB8A5F8B5FFFFFFFFFFFFFFFFF4
:102FD000FFFFFFFFFFFFFFFFFFFFFFFFFFFFFFFF01
:102FE000FFFFFFFFFFFFFFFFFFFFFFFFFFFFFFFFF1
:102FF000FFFFFFFFFFFFFFFFFFFFFFFFFFFFFFFFE1
:10300000FFFFFFFFFFFFFFFFFFFFFFFFFFFFFFFFD0
:10301000FFFFFFFFFFFFFFFFFFFFFFFFFFFFFFFFC0
:10302000FFFFFFFFFFFFFFFFFFFFFFFFFFFFFFFFB0
:10303000FFFFFFFFFFFFFFFFFFFFBEE7751CB6149A
:10304000751CB5147514B614751CB514751CB6141E
:10305000751CB5147514B614751CB514751CB6140E
:10306000751CB5147514B614751CB514751CB614FE
:10307000751CB5147514B614751CB514751CB614EE
:10308000751CB5147514B614751CB61C384D7B8EA2
:103090003DC7784D7514B6147EE7FFFFFFFFFFFFB5
:1030A000FFFFFFFFFFFFFFFFFFFFFFFFFFFFFFFF30
:1030B000FFFFFFFFFFFFFFFFFFFFFFFFFFFFFFFF20
:1030C000FFFFFFFFFFFFFFFFFFFFFFFFFFFFFFFF10
:1030D000FFFFFFFFFFFFFFFFFFFFFFFFFFFFFFFF00
:1030E00079D6C6318639C7318639C6310D6BFFFFB7
:1030F000FFFFFFFFFFFFFFFFFFFFFFFFFFFFFFFFE0
:10310000FFFF4D6B8639C7318639C63138C6FFFFA0
:10311000FFFFFFFFFFFFFFFF8639C6318639C7314A
:103120008639BAD6FFFFC7318639C63186394D6B2D
:10313000FFFFFFFFFFFFFFFFFFFFFFFFFFFFBACE15
:10314000F33CF304F304F304796EFFFFFFFFFFFF8A
:10315000F304F304F304F304F96CFAD77FD6FAFF0F
:10316000FFD7FFD7FFFFBFCEF9FFFFD7FFFFFFFF5E
:10317000FFFFFFD7F33CF304F304F304F304F30479
:10318000F304F304733EFFFFFFFFFFFFFFFFFFFFAA
:10319000FFFFFFFFFFFFFFFFFFFFFFFFFFFFFFFF3F
:1031A000FFFFFFFFFFFFFFFFFFFFFFFFFFFFFFFF2F
:1031B000FFFFFFFF3DE73DDF3DE7FFFFFFFFFFFFB5
:1031C000FFFFFFFFFFFFFFFFFFFFFBDE35A5B7ADF2
:1031D000F7B5FFFFFFFF79C63DE77DE7FFFFFFFF84
:1031E000FFFFFFFFFFFFFFFFFFFF38C6B8BD3DDF5A
:1031F0007ACEFFFFFFFFFFFF75ADF394B294FCDEC4
:10320000FFFFFFFFFFFFFFFFFFFF3CE7FCDE3DDFAF
:103210007ACE7DE7FFFFFFFFF7BDFBD63DE7BEF7A8
:10322000FFFFFFFFFFFFFFFFFFFFFFFFF8C57DE789
:103230003DE7BAC6BFFFFFFFFFFFFEF735AD8F6B5F
:10324000F59CF8ADB8ADB8A5F9BD39B63ABEFFFFEB
:10325000FFFFFFFFFFFFFFFFFFFFFFFFFFFFFFFF7E
:10326000FFFFFFFFFFFFFFFFFFFFFFFFFFFFFFFF6E
:10327000FFFFFFFFFFFFFFFFFFFFFFFFFFFFFFFF5E
:10328000FFFFFFFFFFFFFFFFFFFFFFFFFFFFFFFF4E
:10329000FFFFFFFFFFFFFFFFFFFFFFFFFFFFFFFF3E
:1032A000FFFFFFFFFFFFFFFFFFFFFFFFFFFFFFFF2E
:1032B000FFFFFFFFFFFFFFFFFFFFBEE7B614751420
:1032C000B614B514B6147514B614B514B614751432
:1032D000B614B514B6147514B614B514B614751422
:1032E000B614B514B6147514B614B514B614751412
:1032F000B614B514B6147514B614B514B614751402
:10330000B614B514B6147514B95DBB9EFCAEBB9E65
:10331000F965B624B6147514BEDFFFFFFFFFFFFF8B
:10332000FFFFFFFFFFFFFFFFFFFFFFFFFFFFFFFFAD
:10333000FFFFFFFFFFFFFFFFFFFFFFFFFFFFFFFF9D
:10334000FFFFFFFFFFFFFFFFFFFFFFFFFFFFFFFF8D
:10335000FFFFFFFFFFFFFFFFFFFFFFFFFFFFFFFF7D
:10336000FFFF3084C7318639C7318631C73186695E
:10337000BACEFFFFFFFFFFFFFFFFFFFFFFFFFFFFD3
:10338000FFFFF39CC7318639C73186314D6BFFFF94
:10339000FFFFFFFFFFFFF39CC7318631C73186393E
:1033A0004D63FFFFFFFF8639C7318631C7314D6B53
:1033B000BACEFFFFFFFFFFFFFFFFFFFFFFFFFFD7BB
:1033C0003305F3043405F3043335FFFFFFFFFFFF3C
:1033D000BA66F3043405F3043335FFD7FFFFFFFF6C
:1033E000FFFFFFFFFFFFFFFFFFFFFFFFFFFFFFFFED
:1033F000FFFFF3343405F3043305F334FA6CF304BC
:103400003305F3043405799EFFFFFFFFFFFFFFFF45
:10341000FFFFFFFFFFFFFFFFFFFFFFFFFFFFFFFFBC
:10342000FFFFFFFFFFFFFFFFFFFFFFFFFFFFFFFFAC
:10343000FFFF7DEF3DD73DDFBEEFFFFFFFFFFFFF4B
:10344000FFFFFFFFFFFFFFFFFFFFFFFFB6AD79CEDE
:10345000FFFFFFFFFFFF79C63DD73DDFFFFFFFFF07
:10346000FFFFFFFFFFFFFFFFFFFFFFFF359D3DDF7A
:10347000FCCEBEEFFFFFFFFFFFFFFFFFFFFFFFFFE1
:10348000FFFFFFFFFFFFBEFFFBD6BBCE3DDF3CDFF4
:10349000F8ADFFFFFFFFFFFFBACEB6B575A53CE75D
:1034A000FFFFFFFFFFFFFFFFFFFFFFFFFBCE3DDF43
:1034B0007DDF79BEFFFFFFFFFFFFFFFFFFFFFFFF85
:1034C00075A58E6BF58C77A5B89D779D779DBBCE46
:1034D000FFFFFFFFFFFFFFFFFFFFFFFFFFFFFFFFFC
:1034E000FFFFFFFFFFFFFFFFFFFFFFFFFFFFFFFFEC
:1034F000FFFFFFFFFFFFFFFFFFFFFFFFFFFFFFFFDC
:10350000FFFFFFFFFFFFFFFFFFFFFFFFFFFFFFFFCB
:10351000FFFFFFFFFFFFFFFFFFFFFFFFFFFFFFFFBB
:10352000FFFFFFFFFFFFFFFFFFFFFFFFFFFFFFFFAB
:10353000FFFFFFFFFFFFFFFFFFFFBEE7751CB61495
:103540007514B614751CB6147514B614751CB6141F
:103550007514B614751CB6147514B614751CB6140F
:103560007514B614751CB6147514B614751CB614FF
:103570007514B614751CB6147514B614751CB614EF
:103580007514B614751CB614784D373DF634F72C07
:10359000761CB614751CB6147EDFFFFFFFFFFFFF1D
:1035A000FFFFFFFFFFFFFFFFFFFFFFFFFFFFFFFF2B
:1035B000FFFFFFFFFFFFFFFFFFFFFFFFFFFFFFFF1B
:1035C000FFFFFFFFFFFFFFFFFFFFFFFFFFFFFFFF0B
:1035D000FFFFFFFFFFFFFFFFFFFFFFFFFFFFFFFFFB
:1035E000FFFFBACE0D6BC731863987318639C731B7
:1035F0008639476B136BF39CF39C30844D6BC7315A
:103600007AD6BACE8639C731863987318639F39C66
:10361000FFFFFFFF38C6C731863987318639C7318A
:10362000F39CFFFF79D6C7318639873186394D6BD8
:10363000FFFFFFFFFFFFFFFFFFFFFFFFFFFFFFFF9A
:10364000F304F304F304F304F304FA6C79A6BA9ECA
:103650007A9EF304F304F304F304F30479A6FFCF92
:103660007FFEFFFF79D6FFD7796EBFCEFFFFFFFF4A
:103670007A9EF304F304F304F304BA9EFFD73004F4
:10368000F304F304F304F334FFD7FFFFFFFFFFFF5E
:10369000FFFFFFFFFFFFFFFFFFFFFFFFFFFFFFFF3A
:1036A000FFFFFFFFFFFFFFFFFFFFFFFFFFFFFFFF2A
:1036B000FFFFBACEB8ADF9ADBEF7FFFFFFFFFFFFCA
:1036C000FFFFFFFFFFFFFFFFFFFFFFFFFFFFFFFF0A
:1036D000FFFFFFFFFFFF38BE3ABE7BC6FFFFFFFFC5
:1036E000FFFFFFFFFFFFFFFFFFFFFFFFB6B57BC63A
:1036F0007AC63DE7FFFFFFFFFFFFFFFFFFFFFFFF72
:10370000FFFF79C6B8B5F8AD7BCEBBC638BEF49422
:103710007DEFFFFFFFFFFFFFFFFFFFFFFFFFFFFF4B
:10372000FFFFFFFFFFFFFFFFFFFFFBD6FCD63DD7EC
:103730007BCEBBD6FFFFFFFFFFFFFFFFFFFFFFFFBB
:10374000FFFFFFFF75B5CF739073779D379DB8A5C9
:10375000FFFFFFFFFFFFFFFFFFFFFFFFFFFFFFFF79
:10376000FFFFFFFFFFFFFFFFFFFFFFFFFFFFFFFF69
:10377000FFFFFFFFFFFFFFFFFFFFFFFFFFFFFFFF59
:10378000FFFFFFFFFFFFFFFFFFFFFFFFFFFFFFFF49
:10379000FFFFFFFFFFFFFFFFFFFFFFFFFFFFFFFF39
:1037A000FFFFFFFFFFFFFFFFFFFFFFFFFFFFFFFF29
:1037B000FFFFFFFFFFFFFFFFFFFFBEE7B61475141B
:1037C000B6147514B6147514B6147514B6147514AD
:1037D000B6147514B6147514B6147514B61475149D
:1037E000B6147514B6147514B6147514B61475148D
:1037F000B6147514B6147514B6147514B61475147D
:10380000B6147514B61475147B8EBBA6BC967B9E3D
:103810003DBF373DB6147514BFDFFFFFFFFFFFFF4D
:10382000FFFFFFFFFFFFFFFFFFFFFFFFFFFFFFFFA8
:10383000FFFFFFFFFFFFFFFFFFFFFFFFFFFFFFFF98
:10384000FFFFFFFFFFFFFFFFFFFFFFFFFFFFFFFF88
:10385000FFFFFFFFFFFFFFFFFFFFFFFFFFFFFFFF78
:10386000FFFFFFFFBACE8639C7318639C7318639A7
:10387000C7318639C7318639C7318639C73186396C
:10388000F49CFFFF339D8639C7318639C7318639AD
:10389000C7318639C7318639C7318639C7314C6B54
:1038A000FFFFFFFFFFFF8639C7318639C7318639F1
:1038B000FFFFFFFFFFFFFFFFFFFFFFFFFFFFFFFF18
:1038C000FA34F3043305F304F404F3043405F30485
:1038D000FFFFF93C3305F304F404F3043405F30467
:1038E000F404F30433053004F404796EFFFFFFD7CA
:1038F000F404F3043305F304F434FFFFFFFFF96C21
:10390000F404F3043305F304B46EFFFFFFFFFFFF7D
:10391000FFFFFFFFFFFFFFFFFFFFFFFFFFFFFFFFB7
:10392000FFFFFFFFFFFFFFFFFFFFFFFFFFFFFFFFA7
:10393000FFFFF8BD779D77A5FFFFFFFFFFFFFFFFAC
:10394000FFFFFBDE3595359D77A5B7ADB7A5B7ADC4
:1039500039AEFFFFFFFFB7B5779DB8ADFFFFFFFFA3
:10396000FFFFFFFFFFFFFFFFFFFFFFFFF7B5779DA3
:10397000779D3CE7FFFFFFFFFFFFFFFFFFFFFFFF1C
:10398000FFFF359D3695F48C3695779D7795359567
:103990007ABEFFFFFFFFFFFFFFFFFFFFFFFFFFFFFD
:1039A000FFFFFFFFFFFFBEF7F8AD77A5B8A576A52F
:1039B000F8ADFFFFFFFFFFFFFFFFFFFFFFFFFFFF70
:1039C000FFFFFFFFFFFFFFFFFBDE4D637795369D97
:1039D0007ABEFFFFFFFFFFFFFFFFFFFFFFFFFFFFBD
:1039E000FFFFFFFFFFFFFFFFFFFFFFFFFFFFFFFFE7
:1039F000FFFFFFFFFFFFFFFFFFFFFFFFFFFFFFFFD7
:103A0000FFFFFFFFFFFFFFFFFFFFFFFFFFFFFFFFC6
:103A1000FFFFFFFFFFFFFFFFFFFFFFFFFFFFFFFFB6
:103A2000FFFFFFFFFFFFFFFFFFFFFFFFFFFFFFFFA6
:103A3000FFFFFFFFFFFFFFFFFFFFBEE77514B61498
:103A4000751CB514751CB614751CB5147514B61414
:103A5000751CB514751CB614751CB5147514B61404
:103A6000751CB514751CB614751CB5147514B614F4
:103A7000751CB514751CB614751CB5147514B614E4
:103A8000751CB514751CB6147BA6B5147514B61444
:103A9000F73C3A7E751CB6147EE7FFFFFFFFFFFF81
:103AA000FFFFFFFFFFFFFFFFFFFFFFFFFFFFFFFF26
:103AB000FFFFFFFFFFFFFFFFFFFFFFFFFFFFFFFF16
:103AC000FFFFFFFFFFFFFFFFFFFFFFFFFFFFFFFF06
:103AD000FFFFFFFFFFFFFFFFFFFFFFFFFFFFFFFFF6
:103AE000FFFFFFFFFFFFBACE4D6BC6318639C731EE
:103AF0008639C6318639C7318639C6318639C731EC
:103B0000308CFFFFFFFF30848639C6318639C731DC
:103B10008639C6318639C7318639C6310D6BBAFE52
:103B2000FFFFFFFF7AD6C7318639C63186394D6B24
:103B3000FFFFFFFFFFFFFFFFFFFFFFFFFFFFFFFF95
:103B400079A6F304F304F304F304F304F304F33465
:103B5000FFD7FFFFF33CF304F304F304F304F3048F
:103B6000F30CF304F304F304F304F36CFFFFF334F6
:103B7000F30CF304F304F30479A6FFFFFFFFFFCF78
:103B8000F30CF304F304F304F304BA9EFFFFFFFF06
:103B9000FFFFFFFFFFFFFFFFFFFFFFFFFFFFFFFF35
:103BA000FFFFFFFFFFFFFFFFFFFFFFFFFFFFFFFF25
:103BB000FFFFF7B5B8ADB9ADBFFFFFFFFFFFFFFFD8
:103BC000FFFF38BEB8ADB8A5B8ADB8ADB8ADB8A5B3
:103BD000B8ADFFFFFFFFF8B5B8ADF9B5FFFFFFFFC8
:103BE000FFFFFFFFFFFFFFFFFFFFFFFFF8BDB8A5CF
:103BF00078AD3DE7FFFFFFFFFFFFFFFFFFFFFFFF88
:103C0000FFFFB294F39CF3948E7B0C5B37A5B8A5B1
:103C100077A579BEFFFFFFFFFFFFFFFFFFFFFFFF5D
:103C2000FFFFFFFFBBDE77A577A5B7A5B48C76A510
:103C3000FFFFFFFFFFFFFFFFFFFFFFFFFFFFFFFF94
:103C4000FFFFFFFFFFFFFFFFFFFF7DEF4E6BF58CD8
:103C5000379DFCD6FFFFFFFFFFFFFFFFFFFFFFFFCA
:103C6000FFFFFFFFFFFFFFFFFFFFFFFFFFFFFFFF64
:103C7000FFFFFFFFFFFFFFFFFFFFFFFFFFFFFFFF54
:103C8000FFFFFFFFFFFFFFFFFFFFFFFFFFFFFFFF44
:103C9000FFFFFFFFFFFFFFFFFFFFFFFFFFFFFFFF34
:103CA000FFFFFFFFFFFFFFFFFFFFFFFFFFFFFFFF24
:103CB000FFFFFFFFFFFFFFFFFFFFBEE7B614751416
:103CC000B614B514B6147514B614B514B614751428
:103CD000B614B514B6147514B614B514B614751418
:103CE000B614B514B6147514B614B514B614751408
:103CF000B614B514B6147514B614B514B6147514F8
:103D0000B614B514B61475147B8EBBA6BC9EBB9EB0
:103D10003DBF373DB6147514BEDFFFFFFFFFFFFF49
:103D2000FFFFFFFFFFFFFFFFFFFFFFFFFFFFFFFFA3
:103D3000FFFFFFFFFFFFFFFFFFFFFFFFFFFFFFFF93
:103D4000FFFFFFFFFFFFFFFFFFFFFFFFFFFFFFFF83
:103D5000FFFFFFFFFFFFFFFFFFFFFFFFFFFFFFFF73
:103D6000FFFFFFFFFFFFFFFFFFFFF39C4D6B863957
:103D7000C7310630C7318639C7318631C7318639F8
:103D80003084FFFFFFFFFFFF339D8C69C731863909
:103D9000C7318631C7318639C731F39CFFFFFFFF3A
:103DA000FFFFFFFFFFFF8639C7318631C7314D6BFB
:103DB000FFFFFFFFFFFFFFFFFFFFFFFFFFFFFFFF13
:103DC000FFFFB99E3004F3043305F3043405F30414
:103DD000FFFFFFFFFFFF799E3305F3043405F30473
:103DE0003305F304F404F3043335B96EBA9EF304D7
:103DF0003305F304F404F33CFFFFFFFFFFFFFFFF75
:103E0000BA9EF304F404F3043004F304FFCFFFFF7D
:103E1000FFFFFFFFFFFFFFFFFFFFFFFFFFFFFFFFB2
:103E2000FFFFFFFFFFFFFFFFFFFFFFFFFFFFFFFFA2
:103E3000FFFFF7B5FAADF9B5BEEFFFFFFFFFFFFFDC
:103E4000FFFF75ADCD520D5B4E5B4E63F58CF9B542
:103E5000F9ADFFFFFFFFF8BDF9AD3ABEFFFFFFFF71
:103E6000FFFFFFFFFFFFFFFFFFFFFFFF39BEF9ADC1
:103E7000F9A57DEFFFFFFFFFFFFFFFFFFFFFFFFF44
:103E8000FFFFFFFFFFFFFFFFFFFF7CEF8F6BB9AD71
:103E9000F9ADB8ADBFEFFFFFFFFFFFFFFFFFFFFF73
:103EA000BEEF39BEF9ADB8AD779DD0737ACEFFFFC6
:103EB000FFFFFFFFFFFFFFFFFFFFFFFFFFFFFFFF12
:103EC000FFFFFFFFFFFFFFFFFFFFFFFFFFFFCF7BB6
:103ED000737C779DBCCEFCDEBFEFFFFFFFFFFFFFD3
:103EE000FFFFFFFFFFFFFFFFFFFFFFFFFFFFFFFFE2
:103EF000FFFFFFFFFFFFFFFFFFFFFFFFFFFFFFFFD2
:103F0000FFFFFFFFFFFFFFFFFFFFFFFFFFFFFFFFC1
:103F1000FFFFFFFFFFFFFFFFFFFFFFFFFFFFFFFFB1
:103F2000FFFFFFFFFFFFFFFFFFFFFFFFFFFFFFFFA1
:103F3000FFFFFFFFFFFFFFFFFFFFBEE7751CB6148B
:103F40007514B614751CB6147514B614751CB61415
:103F50007514B614751CB6147514B614751CB61405
:103F60007514B614751CB6147514B614751CB614F5
:103F70007514B614751CB6147514B614751CB614E5
:103F80007514B614751CB6147514373DF634F72C39
:103F9000751CB614751CB6147EDFFFFFFFFFFFFF14
:103FA000FFFFFFFFFFFFFFFFFFFFFFFFFFFFFFFF21
:103FB000FFFFFFFFFFFFFFFFFFFFFFFFFFFFFFFF11
:103FC000FFFFFFFFFFFFFFFFFFFFFFFFFFFFFFFF01
:103FD000FFFFFFFFFFFFFFFFFFFFFFFFFFFFFFFFF1
:103FE000FFFFFFFFFFFFFFFFFFFFFFFFFFFFBACE57
:103FF00038C6F39C308430843084F39C38C6BACE03
:10400000FFFFFFFFFFFFFFFFFFFFFFFF79D6F39CDE
:1040100030843084F3A4BACEFFFFFFFFFFFFFFFF21
:10402000FFFFFFFFFFFFBACE79D6BACE79D6BACE60
:10403000FFFFFFFFFFFFFFFFFFFFFFFFFFFFFFFF90
:10404000FFFFFFFFFFD7BA9E796EBA9E79A6BA9E90
:10405000FFFFFFFFFFFFFFFFFFFFBACE79A6BA6E9B
:10406000799EBA6E79A6BFCEFFD7FFFF7FD6BACEB4
:10407000FFD7BFCE7FD6FFCFFFFFFFFFFFFFFFFFC2
:10408000FFFFBFCE7FD6BFCEFFD7BFCEFFFFFFFF64
:10409000FFFFFFFFFFFFFFFFFFFFFFFFFFFFFFFF30
:1040A000FFFFFFFFFFFFFFFFFFFFFFFFFFFFFFFF20
:1040B000FFFF38C6F9B53ABEFCDEFFFFFFFFFFFF8A
:1040C000FFFFFFFFFFFFFFFFFFFFFFFF36A53ABE29
:1040D000F9B5FFFFFFFFF8BD3ABE7BC6FFFFFFFF4C
:1040E000FFFFFFFFFFFFFFFFFFFFFFFFF9BD3AB636
:1040F000F8B5FFFFFFFFFFFFFFFFFFF7BEF7FFFF72
:10410000FFFFFFFFFFFFFFFFFFFFFFFFF7BDF9B559
:10411000FAB5F9AD3DE7FFFFFFFFFFFFFFFF7DE7CA
:104120003ABEFAB5F9B5327C728CBEF7FFFFFFFFDD
:10413000FFFFFFFFFFFFFFFFFFFFFFFFFFFFFFFF8F
:10414000FFFFFFFFFFFFFFFFFFFFFFFFFFFFFFFF7F
:1041500034AD4E63B48C779DB8A5FFFFFFFFFFFF22
:10416000FFFFFFFFFFFFFFFFFFFFFFFFFFFFFFFF5F
:10417000FFFFFFFFFFFFFFFFFFFFFFFFFFFFFFFF4F
:10418000FFFFFFFFFFFFFFFFFFFFFFFFFFFFFFFF3F
:10419000FFFFFFFFFFFFFFFFFFFFFFFFFFFFFFFF2F
:1041A000FFFFFFFFFFFFFFFFFFFFFFFFFFFFFFFF1F
:1041B000FFFFFFFFFFFFFFFFFFFFBEE7B614751411
:1041C000B6147514B614B514B6147514B614751463
:1041D000B6147514B614B514B6147514B614751453
:1041E000B6147514B614B514B6147514B614751443
:1041F000B6147514B614B514B6147514B614751433
:10420000B6147514B614B5147B8EBBA63DBF7514D9
:10421000B6147514B614B514BFDFFFFFFFFFFFFF20
:10422000FFFFFFFFFFFFFFFFFFFFFFFFFFFFFFFF9E
:10423000FFFFFFFFFFFFFFFFFFFFFFFFFFFFFFFF8E
:10424000FFFFFFFFFFFFFFFFFFFFFFFFFFFFFFFF7E
:10425000FFFFFFFFFFFFFFFFFFFFFFFFFFFFFFFF6E
:10426000FFFFFFFFFFFFFFFFFFFFFFFFFFFFFFFF5E
:10427000FFFFFFFFFFFFFFFFFFFFFFFFFFFFFFFF4E
:10428000FFFFFFFFFFFFFFFFFFFFFFFFFFFFFFFF3E
:10429000FFFFFFFFFFFFFFFFFFFFFFFFFFFFFFFF2E
:1042A000FFFFFFFFFFFFFFFFFFFFFFFFFFFFFFFF1E
:1042B000FFFFFFFFFFFFFFFFFFFFFFFFFFFFFFFF0E
:1042C000FFFFFFFFFFFFFFFFFFFFFFFFFFFFFFFFFE
:1042D000FFFFFFFFFFFFFFFFFFFFFFFFFFFFFFFFEE
:1042E000FFFFFFFFFFFFFFFFFFFFFFFFFFFFFFFFDE
:1042F000FFFFFFFFFFFFFFFFFFFFFFFFFFFFFFFFCE
:10430000FFFFFFFFFFFFFFFFFFFFFFFFFFFFFFFFBD
:10431000FFFFFFFFFFFFFFFFFFFFFFFFFFFFFFFFAD
:10432000FFFFFFFFFFFFFFFFFFFFFFFFFFFFFFFF9D
:10433000FFFFFFFFB38C7BC6BCC6BEF7FFFFFFFFCE
:10434000FFFFFFFFFFFFFFFFFFFFFFFFB7AD7BC6D4
:104350003AB6FFFFFFFF38BE7CBE7BCEFFFFFFFFFC
:10436000FFFFFFFFFFFFFFFFFFFF7DEF7BBE7BC671
:104370007ABEFFFFFFFFFFFFB7A57BC67BBEBEF780
:10438000FFFFFFFFFFFFFFFFFFFFFFFFFBD67ABE30
:104390007BBEF9B5BEEFFFFFFFFFFFFFFDD63ABEC4
:1043A0007BBEF8ADB284BAD6FFFFFFFFFFFFFFFF71
:1043B000FFFFFFFFFFFFFFFFFFFFFFFFFFFFFFFF0D
:1043C000FFFFFFFFFFFFFFFFFFFFFFFFFFFFFFFFFD
:1043D000FFFFBEFFB6ADCF7BF48CFFFFFFFFFFFFFB
:1043E000FFFFFFFFFFFFFFFFFFFFFFFFFFFFFFFFDD
:1043F000FFFFFFFFFFFFFFFFFFFFFFFFFFFFFFFFCD
:10440000FFFFFFFFFFFFFFFFFFFFFFFFFFFFFFFFBC
:10441000FFFFFFFFFFFFFFFFFFFFFFFFFFFFFFFFAC
:10442000FFFFFFFFFFFFFFFFFFFFFFFFFFFFFFFF9C
:10443000FFFFFFFFFFFFFFFFFFFFBEE7751CB61486
:10444000751CB5147514B614751CB514751CB6140A
:10445000751CB5147514B614751CB514751CB614FA
:10446000751CB5147514B614751CB514751CB614EA
:10447000751CB5147514B614751CB514751CB614DA
:10448000751CB5147514B614BBA6B5143B8EF62472
:104490007514B5147514B6147EE7FFFFFFFFFFFF18
:1044A000FFFFFFFFFFFFFFFFFFFFFFFFFFFFFFFF1C
:1044B000FFFFFFFFFFFFFFFFFFFFFFFFFFFFFFFF0C
:1044C000FFFFFFFFFFFFFFFFFFFFFFFFFFFFFFFFFC
:1044D000FFFFFFFFFFFFFFFFFFFFFFFFFFFFFFFFEC
:1044E000FFFFFFFFFFFFFFFFFFFFFFFFFFFFFFFFDC
:1044F000FFFFFFFFFFFFFFFFFFFFFFFFFFFFFFFFCC
:10450000FFFFFFFFFFFFFFFFFFFFFFFFFFFFFFFFBB
:10451000FFFFFFFFFFFFFFFFFFFFFFFFFFFFFFFFAB
:10452000FFFFFFFFFFFFFFFFFFFFFFFFFFFFFFFF9B
:10453000FFFFFFFFFFFFFFFFFFFFFFFFFFFFFFFF8B
:10454000FFFFFFFFFFFFFFFFFFFFFFFFFFFFFFFF7B
:10455000FFFFFFFFFFFFFFFFFFFFFFFFFFFFFFFF6B
:10456000FFFFFFFFFFFFFFFFFFFFFFFFFFFFFFFF5B
:10457000FFFFFFFFFFFFFFFFFFFFFFFFFFFFFFFF4B
:10458000FFFFFFFFFFFFFFFFFFFFFFFFFFFFFFFF3B
:10459000FFFFFFFFFFFFFFFFFFFFFFFFFFFFFFFF2B
:1045A000FFFFFFFFFFFFFFFFFFFFFFFFFFFFFFFF1B
:1045B000FFFFFFFF34A53ABE7CCEBCCEFCDEFFF78A
:1045C000FFFFFFFFFFFFFFFFBFFFFBD63BC6BCC6E1
:1045D0003ABEFFFFFFFF39BE7CCEFCCEFFFFFFFFE0
:1045E000FFFFFFFFFFFFFFFFBBDE7BC67CCE3AB6BF
:1045F0007DEFFFFFFFFFFFFFB394BCCE7CCEFCD668
:104600007DEFFFFFFFFFFFFFFFFF7EEF3BC6BCC656
:104610007BCE38B6FFFFFFFFFFFFFCD67CCE7CC60B
:10462000F8BDF7BDFFFFFFFFFFFFFFFFFFFFFFFF2D
:10463000FFFFFFFFFFFFFFFFFFFFFFFFFFFFFFFF8A
:10464000FFFFFFFFFFFFFFFFFFFFFFFFFFFFFFFF7A
:10465000FFFFFFFFFFFFFFFFFFFFFFFFFFFFFFFF6A
:10466000FFFFFFFFFFFFFFFFFFFFFFFFFFFFFFFF5A
:10467000FFFFFFFFFFFFFFFFFFFFFFFFFFFFFFFF4A
:10468000FFFFFFFFFFFFFFFFFFFFFFFFFFFFFFFF3A
:10469000FFFFFFFFFFFFFFFFFFFFFFFFFFFFFFFF2A
:1046A000FFFFFFFFFFFFFFFFFFFFFFFFFFFFFFFF1A
:1046B000FFFFFFFFFFFFFFFFFFFFBEE7B61475140C
:1046C000B614B514B6147514F624373D383DB62427
:1046D000B614B514B6147514F72C373D383D37456C
:1046E000773DF634B61C7514B614B514B6143745B8
:1046F000773DB524B6147514B614B514B614B624A3
:10470000783D373DB6147514BCA6FCB63DC7FCB663
:10471000FCAE774DB6147514BEDFFFFFFFFFFFFF41
:10472000FFFFFFFFFFFFFFFFFFFFFFFFFFFFFFFF99
:10473000FFFFFFFFFFFFFFFFFFFFFFFFFFFFFFFF89
:10474000FFFFFFFFFFFFFFFFFFFFFFFFFFFFFFFF79
:10475000FFFFFFFFFFFFFFFFFFFFFFFFFFFFFFFF69
:10476000FFFFFFFFFFFFFFFFFFFFFFFFFFFFFFFF59
:10477000FFFFFFFFFFFFFFFFFFFFFFFFFFFFFFFF49
:10478000FFFFFFFFFFFFFFFFFFFFFFFFFFFFFFFF39
:10479000FFFFFFFFFFFFFFFFFFFFFFFFFFFFFFFF29
:1047A000FFFFFFFFFFFFFFFFFFFFFFFFFFFFFFFF19
:1047B000FFFFFFFFFFFFFFFFFFFFFFFFFFFFFFFF09
:1047C000FFFFFFFFFFFFFFFFFFFFFFFFFFFFFFFFF9
:1047D000FFFFFFFFFFFFFFFFFFFFFFFFFFFFFFFFE9
:1047E000FFFFFFFFFFFFFFFFFFFFFFFFFFFFFFFFD9
:1047F000FFFFFFFFFFFFFFFFFFFFFFFFFFFFFFFFC9
:10480000FFFFFFFFFFFFFFFFFFFFFFFFFFFFFFFFB8
:10481000FFFFFFFFFFFFFFFFFFFFFFFFFFFFFFFFA8
:10482000FFFFFFFFFFFFFFFFFFFFFFFFFFFFFFFF98
:10483000FFFFFFFFFFFFD07B7BBE7BC6BCC639BE40
:1048400039B6F8B5F8B5F8B53AB67BC6BCC67ABE87
:1048500038AEFFFFFFFF38C6BCC6BBC63DD7FCD68F
:10486000BBC639BEF8ADB7ADBCBE7BC63AB639C61D
:10487000FFFFFFFFFFFFFFFF79C6F494BCC67BC6B6
:10488000BBC639BE7ABE38BEF9B53ABEBCC67BC619
:10489000769D7DEFFFFFFFFF3DD77BC6BCC6BBCE3D
:1048A0007BBE39BEF9AD77A5B7A5B7ADF9ADF9B502
:1048B0003AB6F8ADFFF7FFFFFFFFFFFFFFFFFFFF77
:1048C000FFFFFFFFFFFFFFFFFFFFFFFFFFFFFFFFF8
:1048D000FFFFFFFFFFFFFFFFFFFFFFFFFFFFFFFFE8
:1048E000FFFFFFFFFFFFFFFFFFFFFFFFFFFFFFFFD8
:1048F000FFFFFFFFFFFFFFFFFFFFFFFFFFFFFFFFC8
:10490000FFFFFFFFFFFFFFFFFFFFFFFFFFFFFFFFB7
:10491000FFFFFFFFFFFFFFFFFFFFFFFFFFFFFFFFA7
:10492000FFFFFFFFFFFFFFFFFFFFFFFFFFFFFFFF97
:10493000FFFFFFFFFFFFFFFFFFFFBEE7751CB61481
:104940007514B614751CB514FDC6FFFFFFFFFCAE51
:104950007514B614751CB614BCA6FFFFFFFFFFFF4D
:10496000FFFFFFFFFFF7F9757514B614F62CFFFF74
:10497000FFFF3DC7751CB6147514B614B51C3DC7B2
:10498000FFFFFFFFB624B6147514B614751CB614D9
:104990007514B614751CB6147EDFFFFFFFFFFFFF12
:1049A000FFFFFFFFFFFFFFFFFFFFFFFFFFFFFFFF17
:1049B000FFFFFFFFFFFFFFFFFFFFFFFFFFFFFFFF07
:1049C000FFFFFFFFFFFFFFFFFFFFFFFFFFFFFFFFF7
:1049D000FFFFFFFFFFFFFFFFFFFFFFFFFFFFFFFFE7
:1049E000FFFFFFFFFFFFFFFFFFFFFFFFFFFFFFFFD7
:1049F000FFFFFFFFFFFFFFFFFFFFFFFFFFFFFFFFC7
:104A0000FFFFFFFFFFFFFFFFFFFFFFFFFFFFFFFFB6
:104A1000FFFFFFFFFFFFFFFFFFFFFFFFFFFFFFFFA6
:104A2000FFFFFFFFFFFFFFFFFFFFFFFFFFFFFFFF96
:104A3000FFFFFFFFFFFFFFFFFFFFFFFFFFFFFFFF86
:104A4000FFFFFFFFFFFFFFFFFFFFFFFFFFFFFFFF76
:104A5000FFFFFFFFFFFFFFFFFFFFFFFFFFFFFFFF66
:104A6000FFFFFFFFFFFFFFFFFFFFFFFFFFFFFFFF56
:104A7000FFFFFFFFFFFFFFFFFFFFFFFFFFFFFFFF46
:104A8000FFFFFFFFFFFFFFFFFFFFFFFFFFFFFFFF36
:104A9000FFFFFFFFFFFFFFFFFFFFFFFFFFFFFFFF26
:104AA000FFFFFFFFFFFFFFFFFFFFFFFFFFFFFFFF16
:104AB000FFFFFFFFFFFFBEF7D08376A57AC67BBE60
:104AC0003BBE7BBE3BC67BBE3BBE3AB6F49C75A5E7
:104AD000BEF7FFFFFFFF39BE7BC67BBE7BC67BBE3A
:104AE0007BC67BBE7BC67BBEF9B5F48C76ADFFFF83
:104AF000FFFFFFFFFFFFFFFFFFFF38BE30843ABE1E
:104B00007BC67BBE7BC67BBE7BC63AB6359DB28C70
:104B10003CE7FFFFFFFF7DEF7BC67BBE7BC67BBE16
:104B20007BC67BBE7BC67BC67BC67BBE7BC67BC68D
:104B30007BC63AB6BEF7FFFFFFFFFFFFFFFFFFFF99
:104B4000FFFFFFFFFFFFFFFFFFFFFFFFFFFFFFFF75
:104B5000FFFFFFFFFFFFFFFFFFFFFFFFFFFFFFFF65
:104B6000FFFFFFFFFFFFFFFFFFFFFFFFFFFFFFFF55
:104B7000FFFFFFFFFFFFFFFFFFFFFFFFFFFFFFFF45
:104B8000FFFFFFFFFFFFFFFFFFFFFFFFFFFFFFFF35
:104B9000FFFFFFFFFFFFFFFFFFFFFFFFFFFFFFFF25
:104BA000FFFFFFFFFFFFFFFFFFFFFFFFFFFFFFFF15
:104BB000FFFFFFFFFFFFFFFFFFFFBEE7B614751407
:104BC000B6147514B614F634FFFFFFFFFFFFFFFFA6
:104BD000F6247514B6147514BCA6FFFFFFFF3DC77D
:104BE0003DC7FFF7FFFFFFFF78457514F72CFFFF68
:104BF000FFFFFFFFBC9E7514B6147514FCA6FFFFE3
:104C0000FFFFFFFFF6247514B6147514B61475145F
:104C1000B6147514B6147514BFDFFFFFFFFFFFFF56
:104C2000FFFFFFFFFFFFFFFFFFFFFFFFFFFFFFFF94
:104C3000FFFFFFFFFFFFFFFFFFFFFFFFFFFFFFFF84
:104C4000FFFFFFFFFFFFFFFFFFFFFFFFFFFFFFFF74
:104C5000FFFFFFFFFFFFFFFFFFFFFFFFFFFFFFFF64
:104C6000BACEFFFFFFFFFFFFFFFFFFFFFFFFFFFFCA
:104C7000FFFFFFFFFFFF79D6FFFF79D6FFFFFFFFA2
:104C8000FFFFFFFFFFFFFFFFFFFFFFFFFFFFFFFF34
:104C9000FFFFFFFFFFFFFFFFFFFFFFFFBACE79D649
:104CA000FFCFFFFFFFFFFFFFFFFFFFFFFFFFFFFF44
:104CB000FFFFFFFFFFFFFFFFFFFFFFFFFFFFFFFF04
:104CC000FFFFFFFFFFFFFFFFFFFFFFFFFFFFFFFFF4
:104CD000FFFFFFFFFFFFFFFFFFFFFFFFFFFF79D693
:104CE000FFFFFFFFFFFFFFFFFFFFFFFFFFFFFFFFD4
:104CF000FFFFFFFFBACEFFFFFFFF79D6BACEFFFF5F
:104D0000FFFF79D6FFFFFFFFFFFF79D6FFFFFFFF11
:104D1000FFFFFFFFFFFFFFFFFFFFFFFFFFFFFFFFA3
:104D2000FFFFFFFFFFFFFFFFFFFFFFFFFFFFFFFF93
:104D3000FFFFFFFFFFFFFFFFFFFFF7BD317C8F6B22
:104D4000327C728432748F6B8F6BB2943CDFFFFFC6
:104D5000FFFFFFFFFFFF75ADB38CB28CB38C728C7D
:104D6000317C8F738E634D637284BAD6FFFFFFFF71
:104D7000FFFFFFFFFFFFFFFFFFFFFFFFFFF734A570
:104D8000728CD07B8F6B4D638E63718C79C6FFFF05
:104D9000FFFFFFFFFFFF79D6F494F39CF494B394E4
:104DA0007284CF7BCF738E6B8F6B8F738E638E739A
:104DB000D073728CFFFFFFFFFFFFFFFFFFFFFFFFBE
:104DC000FFFFFFFFFFFFFFFFFFFFFFFFFFFFFFFFF3
:104DD000FFFFFFFFFFFFFFFFFFFFFFFFFFFFFFFFE3
:104DE000FFFFFFFFFFFFFFFFFFFFFFFFFFFFFFFFD3
:104DF000FFFFFFFFFFFFFFFFFFFFFFFFFFFFFFFFC3
:104E0000FFFFFFFFFFFFFFFFFFFFFFFFFFFFFFFFB2
:104E1000FFFFFFFFFFFFFFFFFFFFFFFFFFFFFFFFA2
:104E2000FFFFFFFFFFFFFFFFFFFFFFFFFFFFFFFF92
:104E3000FFFFFFFFFFFFFFFFFFFFBEE77514B61484
:104E4000751CB514751C7B8EFFFFFFEFFFFFFFFF86
:104E5000FA85B514751CB614BBAEFFFFFFFFF72C27
:104E6000751C7855FFFFFFFF3A8EB514F62CFFFF37
:104E7000FFFFFFFFFFFF3A7E75143A86FFFFFFFF3B
:104E8000FFFFFFFFB624B614751CB5147514B614D5
:104E9000751CB514751CB6147EE7FFFFFFFFFFFFFE
:104EA000FFFFFFFFFFFFFFFFFFFFFFFFFFFFFFFF12
:104EB000FFFFFFFFFFFFFFFFFFFFFFFFFFFFFFFF02
:104EC000FFFFFFFFFFFFFFFFFFFFFFFFFFFFFFFFF2
:104ED000FFFFFFFFFFFFFFFFFFFFFFFFFFFFFFFFE2
:104EE0004D6BFFFFFFFFFFFFFFFFFFFFFFFFFFFF18
:104EF000FFFFFFFFFFFF4D6B38C6F39CF39CFFFFE6
:104F0000FFFFFFFFFFFFFFFFFFFFFFFFFFFFFFFFB1
:104F1000FFFFFFFFFFFFFFFFFFFFFFFF0D6BF39C96
:104F20004D6BBAD6FFFFFFFFFFFFFFFFFFFFFFFF45
:104F3000FFFFFFFFFFFFFFFFFFFFFFFFFFFFFFFF81
:104F4000FFFFFFFFFFFFFFFFFFFFFFFFFFFFFFFF71
:104F5000FFFFFFFFFFFFFFFFFFFFFFFFFFFF38C661
:104F6000F3A4FFFFFFFFFFFFFFFFFFFFFFFFFFFFB8
:104F7000FFFFF39C0D6BFFFFFFFF4D6BF39C308435
:104F8000FFFF4D6B3084FFFFF3A44D6B38C6F39CDD
:104F9000FFFFFFFFFFFFFFFFFFFFFFFFFFFFFFFF21
:104FA000FFFFFFFFFFFFFFFFFFFFFFFFFFFFFFFF11
:104FB000FFFFFFFFFFFFFFFFFFFFFFFFFFFFFFFF01
:104FC000FBE679CE79D67DEFFFFFFFFFFFFFFFFF06
:104FD000FFFFFFFFFFFFFFFFBEFFFEF7BEFFFFFF6C
:104FE000FFFFFFFFFFFFFFFFFFFFFFFFFFFFFFFFD1
:104FF000FFFFFFFFFFFFFFFFFFFFFFFFFFFFFFFFC1
:10500000FFFFFFFFFFFFFFFFFFFFFFFFFFFFFFFFB0
:10501000FFFFFFFFFFFFFFFFFFFFFFFFFFFFFFFFA0
:10502000FFFFFFFFFFFFFFFFFFFFFFFFFFFFFFFF90
:10503000FFFFFFFFFFFFFFFFFFFFFFFFFFFFFFFF80
:10504000FFFFFFFFFFFFFFFFFFFFFFFFFFFFFFFF70
:10505000FFFFFFFFFFFFFFFFFFFFFFFFFFFFFFFF60
:10506000FFFFFFFFFFFFFFFFFFFFFFFFFFFFFFFF50
:10507000FFFFFFFFFFFFFFFFFFFFFFFFFFFFFFFF40
:10508000FFFFFFFFFFFFFFFFFFFFFFFFFFFFFFFF30
:10509000FFFFFFFFFFFFFFFFFFFFFFFFFFFFFFFF20
:1050A000FFFFFFFFFFFFFFFFFFFFFFFFFFFFFFFF10
:1050B000FFFFFFFFFFFFFFFFFFFFBEE7B614751402
:1050C000B614B514B614BEEFFFFFBB9EFDAEFFFFD6
:1050D000BED77514B6147514FCA6FFFFFFFFF62C9F
:1050E000B614F975FFFFFFFF3A76B514F72CFFFFF2
:1050F000FFFFFFFFFFFFFFFFBB96FFFFFFFFFFFF6D
:10510000FFFFFFFFF6247514B614B514B61475141A
:10511000B614B514B6147514BEDFFFFFFFFFFFFF12
:10512000FFFFFFFFFFFFFFFFFFFFFFFFFFFFFFFF8F
:10513000FFFFFFFFFFFFFFFFFFFFFFFFFFFFFFFF7F
:10514000FFFFFFFFFFFFFFFFFFFFFFFFFFFFFFFF6F
:10515000FFFFFFFFFFFFFFFFFFFFFFFFFFFFFFFF5F
:105160004D63B9D6F49C3084BACEF39C4D6BFFFFEF
:10517000339D3084BACE4D6BBACEF39C39C679D606
:10518000339D308438C638C63084B9D639C6539B6F
:10519000339DB9D64D63F39CFFFFFFFF4D6B79D66E
:1051A0004D6338C6F49C3084BACE30843184FFFF1E
:1051B000BACE3084F49C79D63084F39CFFFF3084DF
:1051C000339DB9D6308479D6BACE3084349DFFFF72
:1051D000339DF39C38C63084339DFFFFFFFF38C6F4
:1051E0004D633084BACE38C6FFFFF39CFFFFFFFF4C
:1051F000FFFF4C6B308479D6FFFF4C6B39C64D6B8B
:10520000FFFF4C6BF49C4D6B30843084BACE79FE3A
:10521000FFFFFFFFFFFFFFFFFFFFFFFFFFFFFFFF9E
:10522000FFFFFFFFFFFFFFFFFFFFFFFFFFFFFFFF8E
:10523000FFFFFFFFFFFFFFFFFFFFFFFFFFFFFFFF7E
:10524000FFFFFFFFFFFFFFFFFFFFFFFFFFFFFFFF6E
:10525000FFFFFFFFFFFFFFFFFFFFFFFFFFFFFFFF5E
:10526000FFFFFFFFFFFFFFFFFFFFFFFFFFFFFFFF4E
:10527000FFFFFFFFFFFFFFFFFFFFFFFFFFFFFFFF3E
:10528000FFFFFFFFFFFFFFFFFFFFFFFFFFFFFFFF2E
:10529000FFFFFFFFFFFFFFFFFFFFFFFFFFFFFFFF1E
:1052A000FFFFFFFFFFFFFFFFFFFFFFFFFFFFFFFF0E
:1052B000FFFFFFFFFFFFFFFFFFFFFFFFFFFFFFFFFE
:1052C000FFFFFFFFFFFFFFFFFFFFFFFFFFFFFFFFEE
:1052D000FFFFFFFFFFFFFFFFFFFFFFFFFFFFFFFFDE
:1052E000FFFFFFFFFFFFFFFFFFFFFFFFFFFFFFFFCE
:1052F000FFFFFFFFFFFFFFFFFFFFFFFFFFFFFFFFBE
:10530000FFFFFFFFFFFFFFFFFFFFFFFFFFFFFFFFAD
:10531000FFFFFFFFFFFFFFFFFFFFFFFFFFFFFFFF9D
:10532000FFFFFFFFFFFFFFFFFFFFFFFFFFFFFFFF8D
:10533000FFFFFFFFFFFFFFFFFFFFBEE7751CB61477
:105340007514B614B865FFFFFFFF784DB865FFFF11
:10535000FFFF784D751CB614BCA6FFFFFFFFFFEFE3
:10536000BFEFFFFFFFFFBEDFB624B614F62CFFFF32
:10537000FFFFBC9E7EE7FFFFFFFFFFFF7EDFBCA6B7
:10538000FFFFFFFFB624B614751CB614751CB614C7
:10539000751CB514751CB6147EDFFFFFFFFFFFFF01
:1053A000FFFFFFFFFFFFFFFFFFFFFFFFFFFFFFFF0D
:1053B000FFFFFFFFFFFFFFFFFFFFFFFFFFFFFFFFFD
:1053C000FFFFFFFFFFFFFFFFFFFFFFFFFFFFFFFFED
:1053D000FFFFFFFFFFFFFFFFFFFFFFFFFFFFFFFFDD
:1053E0000D6BBACE3084FFFF3084F39C38C638C6CC
:1053F0000D6BF39CF3A44D6B38C6F39CF3A438C635
:10540000F39C308438C64D6BF39CF39C4D6BFACF04
:105410003084BACE3084FFFFFFFFFFFF8669F39C24
:1054200038C638C63084FFFF0D6BFFFF79D6308455
:105430003084BFFEF9D74D6BF39C308438C64D6B7A
:10544000FFFFF39CF3A4FFFF0D6BFFFFF3A4F39C9E
:105450000D6BBACE7FFEED6C38C6FFFFFFFF38C67E
:10546000F39CBACEF3A44D6B308438C6FFFFFFFF28
:10547000F39C4D6B30843084FFFF4D6B4D6BF39C80
:10548000FFFF4D6B79D6F39CFFFF4D6BFFFFFFFFD6
:10549000FFFFFFFFFFFFFFFFFFFFFFFFFFFFFFFF1C
:1054A000FFFFFFFFFFFFFFFFFFFFFFFFFFFFFFFF0C
:1054B000FFFFFFFFFFFFFFFFFFFFFFFFFFFFFFFFFC
:1054C000FFFFFFFFFFFFFFFFFFFFFFFFFFFFFFFFEC
:1054D000FFFFFFFFFFFFFFFFFFFFFFFFFFFFFFFFDC
:1054E000FFFFFFFFFFFFFFFFFFFFFFFFFFFFFFFFCC
:1054F000FFFFFFFFFFFFFFFFFFFFFFFFFFFFFFFFBC
:10550000FFFFFFFFFFFFFFFFFFFFFFFFFFFFFFFFAB
:10551000FFFFFFFFFFFFFFFFFFFFFFFFFFFFFFFF9B
:10552000FFFFFFFFFFFFFFFFFFFFFFFFFFFFFFFF8B
:10553000FFFFFFFFFFFFFFFFFFFFFFFFFFFFFFFF7B
:10554000FFFFFFFFFFFFFFFFFFFFFFFFFFFFFFFF6B
:10555000FFFFFFFFFFFFFFFFFFFFFFFFFFFFFFFF5B
:10556000FFFFFFFFFFFFFFFFFFFFFFFFFFFFFFFF4B
:10557000FFFFFFFFFFFFFFFFFFFFFFFFFFFFFFFF3B
:10558000FFFFFFFFFFFFFFFFFFFFFFFFFFFFFFFF2B
:10559000FFFFFFFFFFFFFFFFFFFFFFFFFFFFFFFF1B
:1055A000FFFFFFFFFFFFFFFFFFFFFFFFFFFFFFFF0B
:1055B000FFFFFFFFFFFFFFFFFFFFBEE7B6147514FD
:1055C000B61475143DBFFFFFBFE77514B61CFFF797
:1055D000FFFFBCAEB614B514BCA6FFFFFFFFFFFF74
:1055E000FFFFFFFFFFFF3745B6147514F72CFFFFD1
:1055F000FFFF7B96373DFFF7FFFFFFF737357B9EB9
:10560000FFFFFFFFF624B514FFEFFFFFFFFFFFFFD3
:10561000FFFF7855B614B514BFDFFFFFFFFFFFFF94
:10562000FFFFFFFFFFFFFFFFFFFFFFFFFFFFFFFF8A
:10563000FFFFFFFFFFFFFFFFFFFFFFFFFFFFFFFF7A
:10564000FFFFFFFFFFFFFFFFFFFFFFFFFFFFFFFF6A
:10565000FFFFFFFFFFFFFFFFFFFFFFFFFFFFFFFF5A
:105660004D6B79D6349DB9D6308438C638C638C625
:10567000308479D6BACE4C6B38C6F39C308479D658
:105680004D6BF39CBACE3084BACE38C630847FFEE0
:10569000ED6C79D63084FFFFFFFFFFFF4D63FFFF06
:1056A000FFFF79D6349DFFFF308479D638C6F39C4E
:1056B0004D6B79D6FFFF308438C638C6BACE38C6AF
:1056C0004D6B79D6349DF39C308479D638C6F39CE3
:1056D0003084FFFFBACEB9D63084FFFFFFFF38C653
:1056E00038C6F39C349D38C64D6BFFFFFFFFFFFFAC
:1056F0004D6B79D6BACE3084BACE4D6BFFFF308475
:10570000BACE4D6BFFFFFFFFFFFF3084FFFFFFFFAF
:10571000FFFFFFFFFFFFFFFFFFFFFFFFFFFFFFFF99
:10572000FFFFFFFFFFFFFFFFFFFFFFFFFFFFFFFF89
:10573000FFFFFFFFFFFFFFFFFFFFFFFFFFFFFFFF79
:10574000FFFFFFFFFFFFFFFFFFFFFFFFFFFFFFFF69
:10575000FFFFFFFFFFFFFFFFFFFFFFFFFFFFFFFF59
:10576000FFFFFFFFFFFFFFFFFFFFFFFFFFFFFFFF49
:10577000FFFFFFFFFFFFFFFFFFFFFFFFFFFFFFFF39
:10578000FFFFFFFFFFFFFFFFFFFFFFFFFFFFFFFF29
:10579000FFFFFFFFFFFFFFFFFFFFFFFFFFFFFFFF19
:1057A000FFFFFFFFFFFFFFFFFFFFFFFFFFFFFFFF09
:1057B000FFFFFFFFFFFFFFFFFFFFFFFFFFFFFFFFF9
:1057C000FFFFFFFFFFFFFFFFFFFFFFFFFFFFFFFFE9
:1057D000FFFFFFFFFFFFFFFFFFFFFFFFFFFFFFFFD9
:1057E000FFFFFFFFFFFFFFFFFFFFFFFFFFFFFFFFC9
:1057F000FFFFFFFFFFFFFFFFFFFFFFFFFFFFFFFFB9
:10580000FFFFFFFFFFFFFFFFFFFFFFFFFFFFFFFFA8
:10581000FFFFFFFFFFFFFFFFFFFFFFFFFFFFFFFF98
:10582000FFFFFFFFFFFFFFFFFFFFFFFFFFFFFFFF88
:10583000FFFFFFFFFFFFFFFFFFFFBEE7751CB61472
:10584000751C3735FFFFFFFFFFFFFFF7FFF7FFFF77
:10585000FFFFFFFFB624B614BCAEFFFFFFFFF72C1F
:10586000374DFFF7FFFF7EDF751CB514F62CFFFFE9
:10587000FFFF7B967514B95DFFFF7855751CBB96CD
:10588000FFFFFFFFB624B614FFF7FFFFFFFFFFFF88
:10589000FFFFB8557514B6147EE7FFFFFFFFFFFF4B
:1058A000FFFFFFFFFFFFFFFFFFFFFFFFFFFFFFFF08
:1058B000FFFFFFFFFFFFFFFFFFFFFFFFFFFFFFFFF8
:1058C000FFFFFFFFFFFFFFFFFFFFFFFFFFFFFFFFE8
:1058D000FFFFFFFFFFFFFFFFFFFFFFFFFFFFFFFFD8
:1058E000F3A4BAD638C6FFFF38C6BAD6F3A4BACEE8
:1058F00038C630847AD638C679D638C638C6BACED5
:105900004D6B30847AD638C63084BAD638C6FFFF9D
:1059100038C6FFFFF39CF39CFFFFFFFF38C6FFFF75
:10592000FFFFBAD67AD6FFFFFFFF3084F3A4FFFF54
:1059300079D6F39CF39CBFFE3084F39C7AD6F39C1B
:1059400038C638C6F39CBACE79D6F39CF3A4FFFFD1
:1059500038C6FFFFFFFF3084F3A4FFFFFFFFBACE7E
:105960003084F39CFFFFF39C38C6FFFFFFFFFFFF6F
:1059700038C6FFFFFFFFBACE79D638C6FFFFBACED2
:1059800038C638C6FFFFFFFFFFFFF39CFFFFFFFF96
:10599000FFFFFFFFFFFFFFFFFFFFFFFFFFFFFFFF17
:1059A000FFFFFFFFFFFFFFFFFFFFFFFFFFFFFFFF07
:1059B000FFFFFFFFFFFFFFFFFFFFFFFFFFFFFFFFF7
:1059C000FFFFFFFFFFFFFFFFFFFFFFFFFFFFFFFFE7
:1059D000FFFFFFFFFFFFFFFFFFFFFFFFFFFFFFFFD7
:1059E000FFFFFFFFFFFFFFFFFFFFFFFFFFFFFFFFC7
:1059F000FFFFFFFFFFFFFFFFFFFFFFFFFFFFFFFFB7
:105A0000FFFFFFFFFFFFFFFFFFFFFFFFFFFFFFFFA6
:105A1000FFFFFFFFFFFFFFFFFFFFFFFFFFFFFFFF96
:105A2000FFFFFFFFFFFFFFFFFFFFFFFFFFFFFFFF86
:105A3000FFFFFFFFFFFFFFFFFFFFFFFFFFFFFFFF76
:105A4000FFFFFFFFFFFFFFFFFFFFFFFFFFFFFFFF66
:105A5000FFFFFFFFFFFFFFFFFFFFFFFFFFFFFFFF56
:105A6000FFFFFFFFFFFFFFFFFFFFFFFFFFFFFFFF46
:105A7000FFFFFFFFFFFFFFFFFFFFFFFFFFFFFFFF36
:105A8000FFFFFFFFFFFFFFFFFFFFFFFFFFFFFFFF26
:105A9000FFFFFFFFFFFFFFFFFFFFFFFFFFFFFFFF16
:105AA000FFFFFFFFFFFFFFFFFFFFFFFFFFFFFFFF06
:105AB000FFFFFFFFFFFFFFFFFFFFBEE7B6147514F8
:105AC000B6147A96FFFFFFFFBFE7BEE7BFE7BEEF62
:105AD000FFFFFFFF3A7E7514FCA6FFFFFFFFF62CC9
:105AE000B6143A86FFFFFFFFF965B514F72CFFFFE8
:105AF000FFFF7A96B6147514F72CB514B6147B9E76
:105B0000FFFFFFFFF6247514FFEFFFFFFFFFFFFF0E
:105B1000FFFF7855B6147514BEDFFFFFFFFFFFFFD0
:105B2000FFFFFFFFFFFFFFFFFFFFFFFFFFFFFFFF85
:105B3000FFFFFFFFFFFFFFFFFFFFFFFFFFFFFFFF75
:105B4000FFFFFFFFFFFFFFFFFFFFFFFFFFFFFFFF65
:105B5000FFFFFFFFFFFFFFFFFFFFFFFFFFFFFFFF55
:105B6000FFFFFFFFFFFFFFFFFFFFFFFFFFFFFFFF45
:105B7000FFFFFFFFFFFFFFFFFFFFFFFFFFFFF39CA4
:105B8000339DF39C38C6FFFFFFFFFFFFFFFFFFFFC2
:105B9000FFFFFFFFFFFFFFFFFFFFFFFFFFFFFFFF15
:105BA000FFFFFFFFFFFFFFFFFFFFFFFFFFFFFFFF05
:105BB000FFFFFFFFFFFFFFFFFFFFFFFFFFFFFFFFF5
:105BC000FFFFFFFFFFFFFFFFFFFFFFFFFFFFFFFFE5
:105BD000FFFFFFFFFFFFFFFFFFFFFFFFFFFFFFFFD5
:105BE000FFFFFFFFFFFF4D6BFFFFFFFFFFFFFFFF0B
:105BF000FFFFFFFFFFFFFFFFFFFFFFFFFFFFFFFFB5
:105C0000FFFFFFFFFFFFFFFFFFFFFFFFFFFFFFFFA4
:105C1000FFFFFFFFFFFFFFFFFFFFFFFFFFFFFFFF94
:105C2000FFFFFFFFFFFFFFFFFFFFFFFFFFFFFFFF84
:105C3000FFFFFFFFFFFFFFFFFFFFFFFFFFFFFFFF74
:105C4000FFFFFFFFFFFFFFFFFFFFFFFFFFFFFFFF64
:105C5000FFFFFFFFFFFFFFFFFFFFFFFFFFFFFFFF54
:105C6000FFFFFFFFFFFFFFFFFFFFFFFFFFFFFFFF44
:105C7000FFFFFFFFFFFFFFFFFFFFFFFFFFFFFFFF34
:105C8000FFFFFFFFFFFFFFFFFFFFFFFFFFFFFFFF24
:105C9000FFFFFFFFFFFFFFFFFFFFFFFFFFFFFFFF14
:105CA000FFFFFFFFFFFFFFFFFFFFFFFFFFFFFFFF04
:105CB000FFFFFFFFFFFFFFFFFFFFFFFFFFFFFFFFF4
:105CC000FFFFFFFFFFFFFFFFFFFFFFFFFFFFFFFFE4
:105CD000FFFFFFFFFFFFFFFFFFFFFFFFFFFFFFFFD4
:105CE000FFFFFFFFFFFFFFFFFFFFFFFFFFFFFFFFC4
:105CF000FFFFFFFFFFFFFFFFFFFFFFFFFFFFFFFFB4
:105D0000FFFFFFFFFFFFFFFFFFFFFFFFFFFFFFFFA3
:105D1000FFFFFFFFFFFFFFFFFFFFFFFFFFFFFFFF93
:105D2000FFFFFFFFFFFFFFFFFFFFFFFFFFFFFFFF83
:105D3000FFFFFFFFFFFFFFFFFFFFBEE7751CB6146D
:105D4000761CBFEFFFFFBEDF7514B614751CB614CA
:105D5000BFEFFFFF7EDFB614BCA6FFFFFFFFF72CEF
:105D60007514B624FFFFFFFF7ED77514F62CFFFFD6
:105D7000FFFF7B8E751CB6147514B614751CBB968C
:105D8000FFFFFFFFB624B614BFF7FFFFFFFFFFFFC3
:105D9000FFFF7855751CB6147EDFFFFFFFFFFFFF86
:105DA000FFFFFFFFFFFFFFFFFFFFFFFFFFFFFFFF03
:105DB000FFFFFFFFFFFFFFFFFFFFFFFFFFFFFFFFF3
:105DC000FFFFFFFFFFFFFFFFFFFFFFFFFFFFFFFFE3
:105DD000FFFFFFFFFFFFFFFFFFFFFFFFFFFFFFFFD3
:105DE000FFFFFFFFFFFFFFFFFFFFFFFFFFFFFFFFC3
:105DF000FFFFFFFFFFFFFFFFFFFFFFFFFFFFFFFFB3
:105E00007AD6BACEFFFFFFFFFFFFFFFFFFFFFFFFC6
:105E1000FFFFFFFFFFFFFFFFFFFFFFFFFFFFFFFF92
:105E2000FFFFFFFFFFFFFFFFFFFFFFFFFFFFFFFF82
:105E3000FFFFFFFFFFFFFFFFFFFFFFFFFFFFFFFF72
:105E4000FFFFFFFFFFFFFFFFFFFFFFFFFFFFFFFF62
:105E5000FFFFFFFFFFFFFFFFFFFFFFFFFFFFFFFF52
:105E6000FFFFFFFFFFFFFFFFFFFFFFFFFFFFFFFF42
:105E7000FFFFFFFFFFFFFFFFFFFFFFFFFFFFFFFF32
:105E8000FFFFFFFFFFFFFFFFFFFFFFFFFFFFFFFF22
:105E9000FFFFFFFFFFFFFFFFFFFFFFFFFFFFFFFF12
:105EA000FFFFFFFFFFFFFFFFFFFFFFFFFFFFFFFF02
:105EB000FFFFFFFFFFFFFFFFFFFFFFFFFFFFFFFFF2
:105EC000FFFFFFFFFFFFFFFFFFFFFFFFFFFFFFFFE2
:105ED000FFFFFFFFFFFFFFFFFFFFFFFFFFFFFFFFD2
:105EE000FFFFFFFFFFFFFFFFFFFFFFFFFFFFFFFFC2
:105EF000FFFFFFFFFFFFFFFFFFFFFFFFFFFFFFFFB2
:105F0000FFFFFFFFFFFFFFFFFFFFFFFFFFFFFFFFA1
:105F1000FFFFFFFFFFFFFFFFFFFFFFFFFFFFFFFF91
:105F2000FFFFFFFFFFFFFFFFFFFFFFFFFFFFFFFF81
:105F3000FFFFFFFFFFFFFFFFFFFFFFFFFFFFFFFF71
:105F4000FFFFFFFFFFFFFFFFFFFFFFFFFFFFFFFF61
:105F5000FFFFFFFFFFFFFFFFFFFFFFFFFFFFFFFF51
:105F6000FFFFFFFFFFFFFFFFFFFFFFFFFFFFFFFF41
:105F7000FFFFFFFFFFFFFFFFFFFFFFFFFFFFFFFF31
:105F8000FFFFFFFFFFFFFFFFFFFFFFFFFFFFFFFF21
:105F9000FFFFFFFFFFFFFFFFFFFFFFFFFFFFFFFF11
:105FA000FFFFFFFFFFFFFFFFFFFFFFFFFFFFFFFF01
:105FB000FFFFFFFFFFFFFFFFFFFFBEE7B6147514F3
:105FC000B95DFFFFFFFF3A8EB6147514B614751451
:105FD000BC9EFFFFFFFF774DBCA6FFFFFFFFF62C27
:105FE000B6147514BB96FFFFFFFF785DF72CFFFF1B
:105FF000FFFF7A96B6147514B6147514B6147B9E0A
:10600000FFFFFFFFF6247514FFEFFFFFFFFFFFFF09
:10601000FFFF7855B6147514BFDFFFFFFFFFFFFFCA
:10602000FFFFFFFFFFFFFFFFFFFFFFFFFFFFFFFF80
:10603000FFFFFFFFFFFFFFFFFFFFFFFFFFFFFFFF70
:10604000FFFFFFFFFFFFFFFFFFFFFFFFFFFFFFFF60
:10605000FFFFFFFFFFFFFFFFFFFFFFFFFFFFFFFF50
:10623000FFFFFFFFFFFFFFFFFFFFBEE77514B61470
:10624000F63437453745B61C751CB5147514B614AD
:10625000B62C37453745F62CF63437453745B61C4E
:10626000751CB514B624373D3745F62C761C383DE1
:106270003745F62C751CB614751CB5147514F72C1F
:1062800037453745751CB514F73C373D3745373D25
:106290003745B61C751CB6147EE7FFFFFFFFFFFFF6
:1062A000FFFFFFFFFFFFFFFFFFFFFFFFFFFFFFFFFE
:1062B000FFFFFFFFFFFFFFFFFFFFFFFFFFFFFFFFEE
:1062C000FFFFFFFFFFFFFFFFFFFFFFFFFFFFFFFFDE
:1062D000FFFFFFFFFFFFFFFFFFFFFFFFFFFFFFFFCE
:1064B000FFFFFFFFFFFFFFFFFFFFBEE7B6147514EE
:1064C000B614B514B6147514B614B514B614751400
:1064D000B614B514B6147514B614B514B6147514F0
:1064E000B614B514B6147514B614B514B6147514E0
:1064F000B614B514B6147514B614B514B6147514D0
:10650000B614B514B6147514B6147514B6147514FF
:10651000B6147514B6147514BEDFFFFFFFFFFFFF3E
:10652000FFFFFFFFFFFFFFFFFFFFFFFFFFFFFFFF7B
:10653000FFFFFFFFFFFFFFFFFFFFFFFFFFFFFFFF6B
:10654000FFFFFFFFFFFFFFFFFFFFFFFFFFFFFFFF5B
:10655000FFFFFFFFFFFFFFFFFFFFFFFFFFFFFFFF4B
:10673000FFFFFFFFFFFFFFFFFFFFBEE7751CB61463
:106740007514B614751CB6147514B614751CB614ED
:106750007514B614751CB6147514B614751CB614DD
:106760007514B614751CB6147514B614751CB614CD
:106770007514B614751CB6147514B614751CB614BD
:106780007514B6147514B514751475147514B51400
:10679000751475147514B5147EDFFFFFFFFFFFFF3E
:1067A000FFFFFFFFFFFFFFFFFFFFFFFFFFFFFFFFF9
:1067B000FFFFFFFFFFFFFFFFFFFFFFFFFFFFFFFFE9
:1067C000FFFFFFFFFFFFFFFFFFFFFFFFFFFFFFFFD9
:1067D000FFFFFFFFFFFFFFFFFFFFFFFFFFFFFFFFC9
:1069B000FFFFFFFFFFFFFFFFFFFFBEE7B6147514E9
:1069C000B6147514B614B514B6147514B61475143B
:1069D000B6147514B614B514B6147514B61475142B
:1069E000B6147514B614B514B6147514B61475141B
:1069F000B6147514B614B514B6147514B61475140B
:106A0000B6147514B6147514B6147514B61475143A
:106A1000B6147514B6147514BEDFFFFFFFFFFFFF39
:106A2000FFFFFFFFFFFFFFFFFFFFFFFFFFFFFFFF76
:106A3000FFFFFFFFFFFFFFFFFFFFFFFFFFFFFFFF66
:106A4000FFFFFFFFFFFFFFFFFFFFFFFFFFFFFFFF56
:106A5000FFFFFFFFFFFFFFFFFFFFFFFFFFFFFFFF46
:106C3000FFFFFFFFFFFFFFFFFFFFFFFF7EE7BEDF5E
:106C40007EE7BEDF7EDFBEDF7EE7BEDF7EE7BEDF44
:106C50007EE7BEDF7EDFBEDF7EE7BEDF7EE7BEDF34
:106C60007EE7BEDF7EDFBEDF7EE7BEDF7EE7BEDF24
:106C70007EE7BEDF7EDFBEDF7EE7BEDF7EE7BEDF14
:106C80007EE7BEDF7EDFBEDF7EDFBEDF7EDFBEDF14
:106C90007EDFBEDF7EDFBEDFFFFFFFFFFFFFFFFF08
:106CA000FFFFFFFFFFFFFFFFFFFFFFFFFFFFFFFFF4
:106CB000FFFFFFFFFFFFFFFFFFFFFFFFFFFFFFFFE4
:106CC000FFFFFFFFFFFFFFFFFFFFFFFFFFFFFFFFD4
:106CD000FFFFFFFFFFFFFFFFFFFFFFFFFFFFFFFFC4
:109A4000FFFFFEFFFFFFFFFFFEFFFFFFFFFFFFFF28
:109A5000FFFFFFFFFFFFFFFFFFFFFFFFFFFFFFFF16
:109A6000FFFFFFFFDFFFFFFFFFFFFFFFDFFFFFFF46
:109A7000DEFFFFFFFFFFFFFFFFFFDEFFFFFFFFFF38
:109A8000FFF7FFF7FFFFFFFFFFFFFFFFFFFFFFFFF6
:109A9000FFFFFFFFFFFFFFFFFFFFFFFFFFFFFFFFD6
:109AA000FFFFFFFFFFFFFFFFFFFFFFFFFFFFFFFFC6
:109AB000FFFFFFFFFFFFFFFFFFFFFFFFDFFFDFFFF6
:109AC000FFFFFFFFFFFFFFFFFFFFFFFFFFF7FFF7B6
:109AD000FFFFFFFFFFFFFFFFFFFFFFFFFFFFFFFF96
:109AE000FFFFFFFFDEFFFFFFFFFFDFFFFFFFDFFFE7
:109AF000FEF7FFFFFFFFFEF7FFFFFFFFDEF7FFFFB1
:109B0000FFFFFFFFFFFFFFFFDEFFFFFFFFFFFFFF86
:109B1000FFFFFFFFFFFFFFFFFFFFFFFFFFFFFFFF55
:109B2000FFFFFFFFFFFFFFFFFFFFFFFFFFFFFFFF45
:109B3000FFFFFFFFFFFFFFFFFFFFFFFFFFFFFFFF35
:109B4000FFFFFFFFFFFFFFFFFFFFFFFFFFFFFFFF25
:109B5000FFFFFFFFFFFFFFFFFFFFFFFFFFFFFFFF15
:109B6000FFFFFFFFFFFFFFFFFFFFFFFFFFFFFFFF05
:109B7000FFFFFFFFFFFFFFFFFFFFFFFFFFFFFFFFF5
:109B8000FFFFFFFFFFFFFFFFFFFFFFFFFFFFFFFFE5
:109B9000FFFFFFFFFFFFFFFFFFFFFFFFFFFFFFFFD5
:109BA000FFFFFFFFFFFFFFFFFFFFFFFFFFFFFFFFC5
:109BB000FFFFFFFFFFFFFFFFFFFFFFFFFFFFFFFFB5
:109BC000FFFFFFFFFFFFFFFFFFFFFFFFFFFFFFFFA5
:109BD000FFFFFFFFFFFFFFFFFFFFFFFFFFFFFFFF95
:109BE000FFFFFFFFFFFFFFFFFFFFFFFFFFFFFFFF85
:109BF000FFFFFFFFFFFFFFFFFFFFFFFFFFFFFFFF75
:109C0000FFFFFFFFFFFFFFFFFFFFFFFFFFFFFFFF64
:109C1000FFFFFFFFFFFFFFFFFFFFFFFFFFFFFFFF54
:109C2000FFFFFFFFFFFFFFFFFFFFFFFFFFFFFFFF44
:109C3000DFFFFFFFFFFFFFFFFFFFFFFFDFFFFFFF74
:109C4000FFFFFFFFFFFFFFFFFFFFFFFFFFFFFEFF25
:109C5000FEFFFFFFFFFFDEF7FEFFFFFFDEFFFFFF60
:109C6000FFFFFFFFFFFFFFFFFFFFFFFFFFFFFFFF04
:109C7000FFFFFFFFFFFFFFFFFFFFFFFFFFFFFFFFF4
:109C8000FFFFFFFFFFFFFFFFFFFFFFFFFFFFFFFFE4
:109C9000FFFFFFFFFFFFFFFFFFFFFFFFFFFFFFFFD4
:109CA000FFFFFFFFFFFFFEFFFFFFFFFFFFFFDFFFE5
:109CB000FFFFFFFFFFFFFFFFFFFFFFFFFFFFFFFFB4
:109CC000FFFFFFFFFFFFFFFFFFFFFFFFFFFFFFFFA4
:109CD000FFFFDFFFFFFFFFFFDFFFFFFFFFFFFFFFD4
:109CE000FFFFFFFFFFFFDFFFDFFFDFFFFFFFFFFFE4
:109CF000FFFFFFFFFFFFFFFFFFFFDEFFFFFFFFFF95
:109D0000FFFFFFFFFFFFFFFFFFFFFFFFFFFFFFFF63
:109D1000FFFFFFFFFFFFFFFFFFFFFFFFFFFFFFFF53
:109D2000FFFFFFFFFFFFFFFFFFFFFFFFFFFFFFFF43
:109D3000FFFFFFFFFFFFFFFFFFFFFFFFFFFFFFFF33
:109D4000FFFFFFFFFFFFFFFFFFFFFFFFFFFFFFFF23
:109D5000FFFFFFFFFFFFFFFFFFFFFFFFFFFFFFFF13
:109D6000FFFFFFFFFFFFFFFFFFFFFFFFFFFFFFFF03
:109D7000FFFFFFFFFFFFFFFFFFFFFFFFFFFFFFFFF3
:109D8000FFFFFFFFFFFFFFFFFFFFFFFFFFFFFFFFE3
:109D9000FFFFFFFFFFFFFFFFFFFFFFFFFFFFFFFFD3
:109DA000FFFFFFFFFFFFFFFFFFFFFFFFFFFFFFFFC3
:109DB000FFFFFFFFFFFFFFFFFFFFFFFFFFFFFFFFB3
:109DC000FFFFFFFFFFFFFFFFFFFFFFFFFFFFFFFFA3
:109DD000FFFFFFFFFFFFFFFFFFFFFFFFFFFFFFFF93
:109DE000FFFFFFFFFFFFFFFFFFFFFFFFFFFFFFFF83
:109DF000FFFFFFFFFFFFFFFFFFFFFFFFFFFFFFFF73
:109E0000FFFFFFFFFFFFFFFFFFFFFFFFFFFFFFFF62
:109E1000FFFFFFFFFFFFFFFFFFFFFFFFFFFFFFFF52
:109E2000FFFFFFFFFFFFFFFFFFFFFFFFFFFFFFFF42
:109E3000FFFFFFFFFFFFDFFFFFFFFFFFFFFFFFF75A
:109E4000FFFFFFFFFFF7FFFFFFFFFFFFFFFFFFFF2A
:109E5000FFFFFFFFFFFFFFFFFFFFFFFFDFFFFFFF32
:109E6000FFFFFFFFFFFFDEFFDEFFFFFFFFFFFFFF44
:109E7000FFFFFFFFFFFFFFFFFFFFFFFFFFFFFFFFF2
:109E8000FFFFFFFFFFFFFFFFFFFFFFFFFFFFFFFFE2
:109E9000FFFFFFFFFFFFFEFFFEFFFDFFFFFFFFFFD6
:109EA000FFFFFFFFDEFFDEFFFFFFFFFFFFFFFFFF04
:109EB000FFFFFFFFFFFFFFFFFFFFFFFFFFFFFFFFB2
:109EC000FFFFFFFFFFFFFFFFFFFFFFFFFFFFFFFFA2
:109ED000DFFFDFFFDFFFDFFFFFFFFFFFFFFFFFFF12
:109EE000FFFFDFFFFFFFFFFFDFFFFFFFFFFFFFFFC2
:109EF000FFFFFFFFFFFFFFFFFFFFFFFFFFFFFFFF72
:109F0000FFFFFFFFFFFFFFFFFFFFFFFFFFFFFFFF61
:109F1000FFFFFFFFFFFFFFFFFFFFFFFFFFFFFFFF51
:109F2000FFFFFFFFFFFFFFFFFFFFFFFFFFFFFFFF41
:109F3000FFFFFFFFFFFFFFFFFFFFFFFFFFFFFFFF31
:109F4000FFFFFFFFFFFFFFFFFFFFFFFFFFFFFFFF21
:109F5000FFFFFFFFFFFFFFFFFFFFFFFFFFFFFFFF11
:109F6000FFFFFFFFFFFFFFFFFFFFFFFFFFFFFFFF01
:109F7000FFFFFFFFFFFFFFFFFFFFFFFFFFFFFFFFF1
:109F8000FFFFFFFFFFFFFFFFFFFFFFFFFFFFFFFFE1
:109F9000FFFFFFFFFFFFFFFFFFFFFFFFFFFFFFFFD1
:109FA000FFFFFFFFFFFFFFFFFFFFFFFFFFFFFFFFC1
:109FB000FFFFFFFFFFFFFFFFFFFFFFFFFFFFFFFFB1
:109FC000FFFFFFFFFFFFFFFFFFFFFFFFFFFFFFFFA1
:109FD000FFFFFFFFFFFFFFFFFFFFFFFFFFFFFFFF91
:109FE000FFFFFFFFFFFFFFFFFFFFFFFFFFFFFFFF81
:109FF000FFFFFFFFFFFFFFFFFFFFFFFFFFFFFFFF71
:10A00000FFFFFFFFFFFFFFFFFFFFFFFFFFFFFFFF60
:10A01000FFFFFFFFFFFFFFFFFFFFFFFFFFFFFFFF50
:10A02000FFFFFFFFFFFFFFFFDEFFFFFFFFFFFFFF61
:10A03000FFFFFFFFFFFFDFF7FFFFDFF7FFFFFFFF80
:10A04000FFFFFFFFFFFFFFFFFFFFFFFFFFFFBFFF60
:10A05000FFFFFFFFFFFFFFFFFFFFFFFFFFFFFFFF10
:10A06000FFFFFFFFFFFFFFFFFFFFFFFFFFFFFFFF00
:10A07000FFFFFFFFFFFFFFFFFFFFFFFFFFFFFFFFF0
:10A08000FFFFFFFFFFFFFFFFFFFFFFFFFFFFFFFFE0
:10A09000FFFFFFFFFFFFFFFFFFFFFFFFFFFFFFFFD0
:10A0A000FFFFFFFFFFFFFFFFFFFFDFFFFFFFFFFFE0
:10A0B000FFFFFFFFFFFFFFFFFFFFDEFFFFFFFFFFD1
:10A0C000FFFFFFFFFFFFFEFFFFFFDFF7FFFFFFFFC9
:10A0D000FFFFFFFFFFFFFFFFFFFFFFFFFFFFFFFF90
:10A0E000FFFFFFFFFFFFFFFFFFFFFFFFFFFFFFFF80
:10A0F000FFFFFFFFFFFFFFFFFFFFFFFFFFFFFFFF70
:10A10000FFFFFFFFFFFFFFFFFFFFFFFFFFFFFFFF5F
:10A11000FFFFFFFFFFFFFFFFFFFFFFFFFFFFFFFF4F
:10A12000FFFFFFFFFFFFFFFFFFFFFFFFFFFFFFFF3F
:10A13000FFFFFFFFFFFFFFFFFFFFFFFFFFFFFFFF2F
:10A14000FFFFFFFFFFFFFFFFFFFFFFFFFFFFFFFF1F
:10A15000FFFFFFFFFFFFFFFFFFFFFFFFFFFFFFFF0F
:10A16000FFFFFFFFFFFFFFFFFFFFFFFFFFFFFFFFFF
:10A17000FFFFFFFFFFFFFFFFFFFFFFFFFFFFFFFFEF
:10A18000FFFFFFFFFFFFFFFFFFFFFFFFFFFFFFFFDF
:10A19000FFFFFFFFFFFFFFFFFFFFFFFFFFFFFFFFCF
:10A1A000FFFFFFFFFFFFFFFFFFFFFFFFFFFFFFFFBF
:10A1B000FFFFFFFFFFFFFFFFFFFFFFFFFFFFFFFFAF
:10A1C000FFFFFFFFFFFFFFFFFFFFFFFFFFFFFFFF9F
:10A1D000FFFFFFFFFFFFFFFFFFFFFFFFFFFFFFFF8F
:10A1E000FFFFFFFFFFFFFFFFFFFFFFFFFFFFFFFF7F
:10A1F000FFFFFFFFFFFFFFFFFFFFFFFFFFF7FFFF77
:10A20000FFFFFFFFFFFFFFFFFFFFFFFFFFFFFFFF5E
:10A21000FFFFFFFFFFFFFEFFDFFFFFFFFFFFDEFF90
:10A22000DEFFFFFFFEFFFEFFFEFFFEFFFEFFFEFF65
:10A23000FEFFFEFFFFFFFEFFDEFFFFFFFFFFFFFF52
:10A24000DEF7FEFFFFFFFFFFFFFFFFFFDFFFDFFF88
:10A25000FFFFFFFFFFFFFFFFFFFFFFFFFFFFFFFF0E
:10A26000FFFFFFFFFFFFFFFFFFFFFFFFFFFFDFFF1E
:10A27000DFFFDFFFFFFFFFFFFFFFFFFFFFFFFFFF2E
:10A28000FFFFFFFFFFFFFFFFFFFFFFFFFFFFFFFFDE
:10A29000FFFFFFFFFFFFFFFFFFFFFFFFFFFFFFFFCE
:10A2A000FFFFFFFFFFFFFFFFFFFFFFFFFFFFFFFFBE
:10A2B000FFFFFFFFFFFFFFFFFFFFDEFFFFFFFFFFCF
:10A2C000FFFFDFFFFFFFFFFFFFFFFFFFFFFFFFFFBE
:10A2D000FFFFFFFFFFFFFFFFFFFFFFFFFFFFFFFF8E
:10A2E000FFFFFFFFFFFFFFFFFFFFFFFFFFFFFFFF7E
:10A2F000FFFFFFFFFFFFFFFFFFFFFFFFFFFFFFFF6E
:10A30000FFFFFFFFFFFFFFFFFFFFFFFFFFFFFFFF5D
:10A31000FFFFFFFFFFFFFFFFFFFFFFFFFFFFFFFF4D
:10A32000FFFFFFFFFFFFFFFFFFFFFFFFFFFFFFFF3D
:10A33000FFFFFFFFFFFFFFFFFFFFFFFFFFFFFFFF2D
:10A34000FFFFFFFFFFFFFFFFFFFFFFFFFFFFFFFF1D
:10A35000FFFFFFFFFFFFFFFFFFFFFFFFFFFFFFFF0D
:10A36000FFFFFFFFFFFFFFFFFFFFFFFFFFFFFFFFFD
:10A37000FFFFFFFFFFFFFFFFFFFFFFFFFFFFFFFFED
:10A38000FFFFFFFFFFFFFFFFFFFFFFFFFFFFFFFFDD
:10A39000FFFFFFFFFFFFFFFFFFFFFFFFFFFFFFFFCD
:10A3A000FFFFFFFFFFFFFFFFFFFFFFFFFFFFFFFFBD
:10A3B000FFFFFFFFFFFFFFFFFFFFFFFFFFFFFFFFAD
:10A3C000FFFFFFFFFFFFFFFFFFFFFFFFFFFFFFFF9D
:10A3D000FFFFFFFFFFFFFFFFFFFFFFFFFFFFFFFF8D
:10A3E000FFFFFFFFFFFFDFF7DFF7FFFFFFFFDFFFED
:10A3F000FFFFFFFFFFFFFDFFFEFFBDFF9DFFDDFF36
:10A40000DDFFBBFF7AF7F7EED3CDD3CD95E695DE32
:10A4100074DEB5E674DE75DE96E6B7E6D7EEB7E62F
:10A42000D7EE7AFF9BFFFCFFFEFF9EF7FFFFFDFFCD
:10A43000FDFFFFFFFFFFFFFFFFFFFFFFFFFFFFFF2E
:10A44000FFFFFFFFFFFFFFFFFFFFFFFFFFFFFFFF1C
:10A45000FFFFFFFFFFFFFFFFFFFFDFFFFFFFDFFF4C
:10A46000DFFFDFFFBEFFFFFFFFFFFFFFFFFFFFFF7D
:10A47000FFFFFFFFFFFFFFFFFFFFFFFFFFFFFFFFEC
:10A48000FFFFFFFFFFFFFFFFDFFFFFFFFFFFFFFFFC
:10A49000FFFFFFFFFFFFFFFFDFF7FFFFFFFFFFFFF4
:10A4A000FFFFFFFFFFFFF9F697E677DEBDFFFFFF37
:10A4B000FFFFFFFFFFFFFFFFFFFFFFFFFFFFFFFFAC
:10A4C000FFFFFFFFFFFFFFFFFFFFFFFFFFFFFFFF9C
:10A4D000FFFFFFFFFFFFFFFFFFFFFFFFFFFFFFFF8C
:10A4E000FFFFFFFFFFFFFFFFFFFFFFFFFFFFFFFF7C
:10A4F000FFFFFFFFFFFFFFFFFFFFFFFFFFFFFFFF6C
:10A50000FFFFFFFFFFFFFFFFFFFFFFFFFFFFFFFF5B
:10A51000FFFFFFFFFFFFFFFFFFFFFFFFFFFFFFFF4B
:10A52000FFFFFFFFFFFFFFFFFFFFFFFFFFFFFFFF3B
:10A53000FFFFFFFFFFFFFFFFFFFFFFFFFFFFFFFF2B
:10A54000FFFFFFFFFFFFFFFFFFFFFFFFFFFFFFFF1B
:10A55000FFFFFFFFFFFFFFFFFFFFFFFFFFFFFFFF0B
:10A56000FFFFFFFFFFFFFFFFFFFFFFFFFFFFFFFFFB
:10A57000FFFFFFFFFFFFFFFFFFFFFFFFFFFFFFFFEB
:10A58000FFFFFFFFFFFFFFFFFFFFFFFFFFFFFFFFDB
:10A59000FFFFFFFFFFFFFFFFFFFFFFFFFFFFFFFFCB
:10A5A000FFFFFFFFFFFFFFFFFFFFFFFFFFFFFFFFBB
:10A5B000FFFFFFFFFFFFFFFFFFFFFFFFFFFFFFFFAB
:10A5C000FFFFFFFFFFFFFFFFFFFFFFFFFFFFFFFF9B
:10A5D000FFFFFFFFFEFFBDFFFEFF7CFF78DE77DEA3
:10A5E00036D636DE50C58DAC4983C772AA8BCEB441
:10A5F0002FBD0EBD6BAC058387932DC54DC50CC516
:10A600002CC5AAB4E99BCDBC6FCD4FC50A9CA893BD
:10A610002FC5D1D5AFC5CEAC6B8312B5F7EEFBFF1E
:10A62000DDFFDFFFDFFFFFFFFFFFFFFFFFFFFFFF9C
:10A63000FFFFFFFFFFFFFFFFFFFFFFFFFFFFFFFF2A
:10A64000FFFFFFFFFFFFFFFFFFFFFFFFFFFFBCFF5D
:10A6500059FF17F716EF38F77AFFDCFFFEFFFFFF11
:10A66000FFFFFFFFFFFFFFFFFFFFFFFFFFFFFFFFFA
:10A67000FFFFFFFFFFFF9EFFFFFFFFFFFEFFFEFF4D
:10A68000FEFFFEFFDFFFFFFF9DFFDEFFFEFFDDFFA2
:10A69000DDFF9CFFCEB48DAC8A8BF5CD9CFFFFFF18
:10A6A000FFFFFFFFFFFFFFFFFFFFFFFFFFFFFFFFBA
:10A6B000FFFFFFFFFFFFFFFFFFFFFFFFFFFFFFFFAA
:10A6C000FFFFFFFFFFFFFFFFFFFFFFFFFFFFFFFF9A
:10A6D000FFFFFFFFFFFFFFFFFFFFFFFFFFFFFFFF8A
:10A6E000FFFFFFFFFFFFFFFFFFFFFFFFFFFFFFFF7A
:10A6F000FFFFFFFFFFFFFFFFFFFFFFFFFFFFFFFF6A
:10A70000FFFFFFFFFFFFFFFFFFFFFFFFFFFFFFFF59
:10A71000FFFFFFFFFFFFFFFFFFFFFFFFFFFFFFFF49
:10A72000FFFFFFFFFFFFFFFFFFFFFFFFFFFFFFFF39
:10A73000FFFFFFFFFFFFFFFFFFFFFFFFFFFFFFFF29
:10A74000FFFFFFFFFFFFFFFFFFFFFFFFFFFFFFFF19
:10A75000FFFFFFFFFFFFFFFFFFFFFFFFFFFFFFFF09
:10A76000FFFFFFFFFFFFFFFFFFFFFFFFFFFFFFFFF9
:10A77000FFFFFFFFFFFFFFFFFFFFFFFFFFFFFFFFE9
:10A78000FFFFFFFFFFFFFFFFFFFFFFFFFFFFFFFFD9
:10A79000FFFFFFFFFFFFFFFFFFFFFFFFFFFFFFFFC9
:10A7A000FFFFFFFFFFFFFFFFFFFFFFFFFFFFFFFFB9
:10A7B000FFFFFFFFFFFFFFFFFFFFFFFFFFFFFFFFA9
:10A7C000FFFFD2CD8EA4AEAC2B9CA98B2BA4C99B32
:10A7D000A8938BBCCDC48CBCE9AB2AACCBC4EBC476
:10A7E000EAC4ADC44BB4ACC40DCDCBC4ECC40CCDE9
:10A7F0008ABC6AB40CC54DCDAFDDECC4ABBCD0DDBA
:10A80000AFDD0EDE0DC5E7824CA4B0D56FC52D9C23
:10A8100051A4FBDE7DEFFFFFFFFFFFFFFFFFFFFF08
:10A82000FFFFFFFFFFFFFFFFFFFFFFFFFFFFFFFF38
:10A83000FFFFFFFFFFFFFFFF5CF756D6B2C58FC5D6
:10A84000AECDADD5AED5D0D534DED8EE7DF7DFFFB9
:10A85000FFFFFFFFFFFFFFFFFFFFFFFFFFFFFFFF08
:10A86000FFFF5DF779D6DAE63BEFFAE6FAE61AE79C
:10A87000F9E6D8EEF4CD045225520FB50FB56DA40C
:10A8800068838CB40AA46049297B94BD9DF7FFFFBF
:10A89000FFF7FFFFFFFFFFFFFFFFFFFFFFFFFFFFD0
:10A8A000FFFFFFFFFFFFFFFFFFFFFFFFFFFFFFFFB8
:10A8B000FFFFFFFFFFFFFFFFFFFFFFFFFFFFFFFFA8
:10A8C000FFFFFFFFFFFFFFFFFFFFFFFFFFFFFFFF98
:10A8D000FFFFFFFFFFFFFFFFFFFFFFFFFFFFFFFF88
:10A8E000FFFFFFFFFFFFFFFFFFFFFFFFFFFFFFFF78
:10A8F000FFFFFFFFFFFFFFFFFFFFFFFFFFFFFFFF68
:10A90000FFFFFFFFFFFFFFFFFFFFFFFFFFFFFFFF57
:10A91000FFFFFFFFFFFFFFFFFFFFFFFFFFFFFFFF47
:10A92000FFFFFFFFFFFFFFFFFFFFFFFFFFFFFFFF37
:10A93000FFFFFFFFFFFFFFFFFFFFFFFFFFFFFFFF27
:10A94000FFFFFFFFFFFFFFFFFFFFFFFFFFFFFFFF17
:10A95000FFFFFFFFFFFFFFFFFFFFFFFFFFFFFFFF07
:10A96000FFFFFFFFFFFFFFFFFFFFFFFFFFFFFFFFF7
:10A97000FFFFFFFFFFFFFFFFFFFFFFFFFFFFFFFFE7
:10A98000FFFFFFFFFFFFFFFFFFFFFFFFFFFFFFFFD7
:10A99000FFFFFFFFFFFFFFFFFFFFFFFFFFFFFFFFC7
:10A9A000FFF7BFEFFFFFFFFFD7BDCD83EC934CB4A4
:10A9B0002C9C697B6983ADAC2BACE9ABEAA34CA4BE
:10A9C0008DACADB46CACEEC4CEBC4CAC07838A93FA
:10A9D0000CAC4DB4EB9B8A932CA4EEBCACBCC8A3CE
:10A9E000A2512A9C6FCD8893468BCEDDEEDD6ED5CD
:10A9F0004FCDF0DDAED5CFDD6FCDB1D5CDBCA793BA
:10AA00006BBCCDC450CD35E678E63CF7DFFFDFFF09
:10AA1000BFFFFFFFDFFFFFFFFEFFFEFFFEFFDDFFCB
:10AA20001BE798DE36DEAEB42AA40DB56D9C064A4F
:10AA3000676AEFB46FC5CFCD8EC5E66ACC83FAE600
:10AA4000F9EE19EFB7E6F8EE75DE2FB5B0C54A9C02
:10AA5000612080200A9411D64EC54FC54ECD0CBD45
:10AA60000BC5ECC4EAA3EAA32EC58CA42552275A31
:10AA70008DAC077B6462ADAC898B287B4EA4F9FE5C
:10AA8000FFFFFFFFFFFFFFFFFFFFFFFFBEFFFFFF17
:10AA9000FFFFFFFFFFFFFFFFFFFFFFFFFFFFFFFFC6
:10AAA000FFFFFFFFFFFFFFFFFFFFFFFFFFFFFFFFB6
:10AAB000FFFFFFFFFFFFFFFFFFFFFFFFFFFFFFFFA6
:10AAC000FFFFFFFFFFFFFFFFFFFFFFFFFFFFFFFF96
:10AAD000FFFFFFFFFFFFFFFFFFFFFFFFFFFFFFFF86
:10AAE000FFFFFFFFFFFFFFFFFFFFFFFFFFFFFFFF76
:10AAF000FFFFFFFFFFFFFFFFFFFFFFFFFFFFFFFF66
:10AB0000FFFFFFFFFFFFFFFFFFFFFFFFFFFFFFFF55
:10AB1000FFFFFFFFFFFFFFFFFFFFFFFFFFFFFFFF45
:10AB2000FFFFFFFFFFFFFFFFFFFFFFFFFFFFFFFF35
:10AB3000FFFFFFFFFFFFFFFFFFFFFFFFFFFFFFFF25
:10AB4000FFFFFFFFFFFFFFFFFFFFFFFFFFFFFFFF15
:10AB5000FFFFFFFFFFFFFFFFFFFFFFFFFFFFFFFF05
:10AB6000FFFFFFFFFFFFFFFFFFFFFFFFFFFFFFFFF5
:10AB7000FFFFFFFFFFFFFFFFFFFFFFFFFFFFDFFF05
:10AB8000FFFFDFFFFFFFFFFFBEF7FFFFBEF7FFF78F
:10AB9000FFFF9CFF12B5401801310BA4CDC4867293
:10ABA0008028A3516EAC8DB42CAC4983A449C672E5
:10ABB000898BCA9B2BA4CA9BA993656A65620CA466
:10ABC000EB9B045A2141077B0BA4A99BE9A3E87ADC
:10ABD0000A9C4BA40783C57AECBC4DCD09A4646ADA
:10ABE0008BB4CFD5ABB4636AC99B6FD5ECBCCCB486
:10ABF0006BACEDBCEEB46CA40FB5F3CDF7EE3AF749
:10AC000093C54E9C51BDD3CD13D634D613D6C66A48
:10AC1000EB9330C54BACE8A3ECBCEB9BC03062417E
:10AC20000B9C0DBD2DC54DC5E99B0B9C4EA44CA4A2
:10AC3000EB9B8A930CA4AEB4EDBC4DCDCAB4035AC1
:10AC4000488350C54CA4C459C77AEDBC6DCD6ECDB8
:10AC50000EC5EEC4ADB4ADB4287B8020E649AEB4D9
:10AC6000856A888B2FBD4BA42883CB932983B9DEBB
:10AC7000FFFFFFFFFFFFDFFFFFFFFFFFDFFFFFFF24
:10AC8000FFFFFFFFFFFFFFFFFFFFFFFFFFFFFFFFD4
:10AC9000FFFFFFFFFFFFFFFFFFFFFFFFFFFFFFFFC4
:10ACA000FFFFFFFFFFFFFFFFFFFFFFFFFFFFFFFFB4
:10ACB000FFFFFFFFFFFFFFFFFFFFFFFFFFFFFFFFA4
:10ACC000FFFFFFFFFFFFFFFFFFFFFFFFFFFFFFFF94
:10ACD000FFFFFFFFFFFFFFFFFFFFFFFFFFFFFFFF84
:10ACE000FFFFFFFFFFFFFFFFFFFFFFFFFFFFFFFF74
:10ACF000FFFFFFFFFFFFFFFFFFFFFFFFFFFFFFFF64
:10AD0000FFFFFFFFFFFFFFFFFFFFFFFFFFFFFFFF53
:10AD1000FFFFFFFFFFFFFFFFFFFFFFFFFFFFFFFF43
:10AD2000FFFFFFFFFFFFFFFFFFFFFFFFFFFFFFFF33
:10AD3000FFFFFFFFFFFFFFFFFFFFFFFFFFFFFFFF23
:10AD4000FFFFFFFFFFFFFFFFFFFFFFFFFFFFFFFF13
:10AD5000FFFFFFFFFFFFFFFFFFFFFFFFFFFFFFFF03
:10AD6000FFFFFFFFFFFFFFFFFFFFFFFFDFFFFFFF13
:10AD7000FFFFFFFFFFFFDFF7DFF7FFFFFFFF16D645
:10AD80006EACCA9BE77AA9938BBC4DDD4BB4657260
:10AD900049838EB44CACCB9B297B0129A572CA9305
:10ADA0004CAC4BACA993CA9B698BCB934883698B02
:10ADB0008A8B49834983698BAA93CA9BEC9B4BA4DA
:10ADC0002BA44DAC2BA4ACB4CCBCA99B27836BACFF
:10ADD0006DCD69AC226A278BCDBC8BB4A662C2490B
:10ADE0006883CCB4ABB4ECBC8BAC0DB5CDBCEDBCC6
:10ADF0008CAC2EC52DC54ECD8ECD8ECDEFDD0DC5C7
:10AE00004ECD4ECD0CCDCBC48CBCCBA3EA93ADB410
:10AE10008CB429AC2AB44AB48DBCCAA3E99BC99BA3
:10AE20002CA48A93488BEDC48ED5AEDDF0D5CFD55A
:10AE3000B0D5688B4020C459AEB4888B698B2FC5C0
:10AE40002FC5CEB4CC9363416018475A2FC5899360
:10AE5000CDB44BACEA9B8993AEB466724A8332BDE3
:10AE6000FEFFDEFFFFFFBFF7FFFFFFFFFFFFFFFF5C
:10AE7000FFFFFFFFFFFFFFFFFFFFFFFFFFFFFFFFE2
:10AE8000FFFFFFFFFFFFFFFFFFFFFFFFFFFFFFFFD2
:10AE9000FFFFFFFFFFFFFFFFFFFFFFFFFFFFFFFFC2
:10AEA000FFFFFFFFFFFFFFFFFFFFFFFFFFFFFFFFB2
:10AEB000FFFFFFFFFFFFFFFFFFFFFFFFFFFFFFFFA2
:10AEC000FFFFFFFFFFFFFFFFFFFFFFFFFFFFFFFF92
:10AED000FFFFFFFFFFFFFFFFFFFFFFFFFFFFFFFF82
:10AEE000FFFFFFFFFFFFFFFFFFFFFFFFFFFFFFFF72
:10AEF000FFFFFFFFFFFFFFFFFFFFFFFFFFFFFFFF62
:10AF0000FFFFFFFFFFFFFFFFFFFFFFFFFFFFFFFF51
:10AF1000FFFFFFFFFFFFFFFFFFFFFFFFFFFFFFFF41
:10AF2000FFFFFFFFFFFFFFFFFFFFFFFFFFFFFFFF31
:10AF3000FFFFFFFFFFFFFFFFFFFFFFFFFFFFFFFF21
:10AF4000FFFFFFFFFFFFFFFFFFFFFFFFFFFFFFFF11
:10AF5000FFFFFFFFFFFFFFFFFFFFFFFFDFFFFFFF21
:10AF6000FFFFFFFFFFFFFFFFBEF774B567620BA493
:10AF70002BACE9A36BAC6ED5EBC42ECD0DBD2EBDB5
:10AF80008CACE89B468B0A9CEB8B2BA42BA40BA4CC
:10AF90000AA48993AA9349836A834983287B297BDE
:10AFA000087B097B297B29838A8B8B93A993488310
:10AFB000EC9BEB9BA993C99B2CA44CAC6CAC8BB4C5
:10AFC000CBBCACB48DB44CAC4AAC885A8341E87A63
:10AFD0000BA42AAC6BAC488B856A09A40DC5ECBCEC
:10AFE0000DC54DCD4DCD0CC52CCD0BCDECC4EDBC60
:10AFF0000DBDAFD56DD5CCC48CC48CAC4BAC2BACDB
:10B00000EAAB2BAC0BAC6DB42CAC2A9CEA93EC9B5A
:10B010002562A030898B6FC5AFCD90D58FD56ECD11
:10B020002DC5C9930B9C0D9C8028A3512FC5ECBC4A
:10B030004BA4097BA128E1308A83CDBC8CB4ADB48C
:10B04000A99B2783446A89936DACEAA3AFB4F5D575
:10B05000DEFFDEF7FFFFDFF7FFFFFFFFFFFFFFFF72
:10B06000FFFFFFFFFFFFFFFFFFFFFFFFFFFFFFFFF0
:10B07000FFFFFFFFFFFFFFFFFFFFFFFFFFFFFFFFE0
:10B08000FFFFFFFFFFFFFFFFFFFFFFFFFFFFFFFFD0
:10B09000FFFFFFFFFFFFFFFFFFFFFFFFFFFFFFFFC0
:10B0A000FFFFFFFFFFFFFFFFFFFFFFFFFFFFFFFFB0
:10B0B000FFFFFFFFFFFFFFFFFFFFFFFFFFFFFFFFA0
:10B0C000FFFFFFFFFFFFFFFFFFFFFFFFFFFFFFFF90
:10B0D000FFFFFFFFFFFFFFFFFFFFFFFFFFFFFFFF80
:10B0E000FFFFFFFFFFFFFFFFFFFFFFFFFFFFFFFF70
:10B0F000FFFFFFFFFFFFFFFFFFFFFFFFFFFFFFFF60
:10B10000FFFFFFFFFFFFFFFFFFFFFFFFFFFFFFFF4F
:10B11000FFFFFFFFFFFFFFFFFFFFFFFFFFFFFFFF3F
:10B12000FFFFFFFFFFFFFFFFFFFFFFFFFFFFFFFF2F
:10B13000FFFFFFFFFFFFFFFFFFFFFFFFFFFFFFFF1F
:10B14000FFFFFFFFFFFFFFFFFFFFFFFFFFFFFFFF0F
:10B15000BEF7FFFFFEFF90940000465AEFBC4BACD9
:10B16000ACB46BA4CCB42DC50EBD2B9C6883E99305
:10B170004AAC669309A46CA44CA4A993688BA993C8
:10B180008993898B087B297B69836662E87249838E
:10B19000E87AE872A76AE559E882488B688B4A8B9F
:10B1A0002983688B688B8B938A93A993E99B0AA464
:10B1B0004CAC2CA4EBA3EA9BED936A83CB9BEBA353
:10B1C000EBAB4DACC8720010A572CDBCEDBCC99BF9
:10B1D00088938CB4EDBCCCBC8BB4CDBC077BC15187
:10B1E000299CAECD2CCD6AB48CAC4BAC6DB44DACBF
:10B1F0002CA42983297B0D940A9CEA9B2CA46A8B9E
:10B20000656A6CAC2EC58BAC0AA42FC5A893878B3E
:10B21000CBB4CDB42CA4666AAA930EBDEBB42AA419
:10B22000EB9B097BA662ADA40AA4EEC40AA4899391
:10B2300089932BAC8993EAA3847AA99B498377DE0F
:10B24000FEFFFFFFFFFFFFFFFFFFFFFFFFFFFFFF0F
:10B25000FFFFFFFFFFFFFFFFFFFFFFFFFFFFFFFFFE
:10B26000FFFFFFFFFFFFFFFFFFFFFFFFFFFFFFFFEE
:10B27000FFFFFFFFFFFFFFFFFFFFFFFFFFFFFFFFDE
:10B28000FFFFFFFFFFFFFFFFFFFFFFFFFFFFFFFFCE
:10B29000FFFFFFFFFFFFFFFFFFFFFFFFFFFFFFFFBE
:10B2A000FFFFFFFFFFFFFFFFFFFFFFFFFFFFFFFFAE
:10B2B000FFFFFFFFFFFFFFFFFFFFFFFFFFFFFFFF9E
:10B2C000FFFFFFFFFFFFFFFFFFFFFFFFFFFFFFFF8E
:10B2D000FFFFFFFFFFFFFFFFFFFFFFFFFFFFFFFF7E
:10B2E000FFFFFFFFFFFFFFFFFFFFFFFFFFFFFFFF6E
:10B2F000FFFFFFFFFFFFFFFFFFFFFFFFFFFFFFFF5E
:10B30000FFFFFFFFFFFFFFFFFFFFFFFFFFFFFFFF4D
:10B31000FFFFFFFFFFFFFFFFFFFFFFFFFFFFFFFF3D
:10B32000FFFFFFFFFFFFFFFFFFFFFFFFFFFFFFFF2D
:10B33000FFFFFFFFFFFFFFFFFFFFFFFFFFFFFFFF1D
:10B34000DDFFF5CDC872096B4D9C6CACCA9B435AAE
:10B35000E672EEB42EC5CB93A3410131A7722BAC9C
:10B360002BAC2CAC0C9CCA9B89938993EA9BAA9327
:10B370006983E8722973465A8028C4514983298316
:10B380008A8BA7726020498BCA9BCA9B2562214188
:10B39000C672698B4A83298365624783A9938A8B26
:10B3A0006A8BEC9B898BC9938893A99BEAA32BACEE
:10B3B0006DAC4EA4C86A488350C52FC5856AC0309D
:10B3C000C672ADB48DB48DB46DACC772856A4EBD16
:10B3D000EFD5ECBC6AB40B9C2883CA930C9C6A8B97
:10B3E000834162394A736AB42AB42AAC6BB44BB451
:10B3F000ACBCCCBCACBC6BACADB4456A256A2BAC68
:10B40000ACB42DC56ECD2FC5EDBC49AC29A42AA482
:10B410004CAC0B9C4B9CA9932BACCA9B4CAC488B63
:10B42000EBA388936BAC09A40EC5CEB4CFACFDFFE3
:10B43000DDFFFFFFFFFFFFFFFFFFFFFFFFFFFFFF3E
:10B44000FFFFFFFFFFFFFFFFFFFFFFFFFFFFFFFF0C
:10B45000FFFFFFFFFFFFFFFFFFFFFFFFFFFFFFFFFC
:10B46000FFFFFFFFFFFFFFFFFFFFFFFFFFFFFFFFEC
:10B47000FFFFFFFFFFFFFFFFFFFFFFFFFFFFFFFFDC
:10B48000FFFFFFFFFFFFFFFFFFFFFFFFFFFFFFFFCC
:10B49000FFFFFFFFFFFFFFFFFFFFFFFFFFFFFFFFBC
:10B4A000FFFFFFFFFFFFFFFFFFFFFFFFFFFFFFFFAC
:10B4B000FFFFFFFFFFFFFFFFFFFFFFFFFFFFFFFF9C
:10B4C000FFFFFFFFFFFFFFFFFFFFFFFFFFFFFFFF8C
:10B4D000FFFFFFFFFFFFFFFFFFFFFFFFFFFFFFFF7C
:10B4E000FFFFFFFFFFFFFFFFFFFFFFFFFFFFFFFF6C
:10B4F000FFFFFFFFFFFFFFFFFFFFFFFFFFFFFFFF5C
:10B50000FFFFFFFFFFFFFFFFFFFFFFFFFFFFFFFF4B
:10B51000FFFFFFFFFFFFFFFFFFFFFFFFFFFFFFFF3B
:10B52000FFFFFFFFFFFFFFFFFFFFFFFFFEFF56D6FE
:10B53000CB93AA9B2B9C4BAC4BAC0A9C4041245A0E
:10B540006CAC4BB40CA4E87AE8726A8B2CAC4CB4AB
:10B55000498BED930BA48993AA9B2CAC6DACAB9358
:10B56000E86AE96AC96A8762C872E77A28838A8BBF
:10B570006983AA8BCB9B2BA40AA4666A6249E772F3
:10B5800069832A83265AC028235A69836A8B886A6A
:10B59000E97A2983478B688BC99B0AA4EA9B888B2D
:10B5A0006CAC0EBD4FC52EC5EDBC2AA42783EAA303
:10B5B000ADB48CB44BAC8DB44CAC8CACAFD54DC5EC
:10B5C000CCBCADBC055A2141E77A6CACADB4688304
:10B5D00007736CA4ACBC8CBC6BB44AAC8BB46BB4BE
:10B5E0008CB48DB4CBB48DB46A8BCB9BCDBCECC486
:10B5F0000CC50CC5EDBCEEC48CB48CBC09A4E99B95
:10B600000A9CEB9BC99BEA9BCA9B2883C77A2BA405
:10B61000ADB46BAC6BACEDBCEDBCEA9B92CDFDFF69
:10B62000DEFFFFFFFFFFFFFFFFFFFFFFFFFFFFFF4B
:10B63000FFFFFFFFFFFFFFFFFFFFFFFFFFFFFFFF1A
:10B64000FFFFFFFFFFFFFFFFFFFFFFFFFFFFFFFF0A
:10B65000FFFFFFFFFFFFFFFFFFFFFFFFFFFFFFFFFA
:10B66000FFFFFFFFFFFFFFFFFFFFFFFFFFFFFFFFEA
:10B67000FFFFFFFFFFFFFFFFFFFFFFFFFFFFFFFFDA
:10B68000FFFFFFFFFFFFFFFFFFFFFFFFFFFFFFFFCA
:10B69000FFFFFFFFFFFFFFFFFFFFFFFFFFFFFFFFBA
:10B6A000FFFFFFFFFFFFFFFFFFFFFFFFFFFFFFFFAA
:10B6B000FFFFFFFFFFFFFFFFFFFFFFFFFFFFFFFF9A
:10B6C000FFFFFFFFFFFFFFFFFFFFFFFFFFFFFFFF8A
:10B6D000FFFFFFFFFFFFFFFFFFFFFFFFFFFFFFFF7A
:10B6E000FFFFFFFFFFFFFFFFFFFFFFFFFFFFFFFF6A
:10B6F000FFFFFFFFFFFFFFFFFFFFFFFFFFFFFFFF5A
:10B70000FFFFFFFFFFFFFFFFFFFFFFFFFFFFFFFF49
:10B71000FFFFDFFFFFFFFFFFDEF7D5C56A83488B22
:10B72000EAAB2AACC8A36BB48CB46DAC6DAC2BACDB
:10B730002ABC2AAC4BA44CA4EA9BADB40BA40039A0
:10B74000C7622BA4488B288BA9938A8BA76A2552A2
:10B75000C96AEA72A8720983E882088389938A8B8E
:10B76000EB930BA40AA4C99BCB9BAB93CB934983CC
:10B770002A7B0B73255AC76A497B097302394341F7
:10B780006A83298329838A93CB934CAC2AA48BB4F4
:10B79000ECC44DCD2DC50DC54ECD0DC50DC5ABBCF5
:10B7A0006BB46AB429AC4BACACBCCBBC4AB48CBC5B
:10B7B0002CB4AC8B876ACB9B8CB4CCBC2DC50DC58F
:10B7C0002ECDAEB4CEB4CDB40A9C4BA42B9C297B19
:10B7D0006241E259EB9B6CAC4AACAABCEBC40DCD08
:10B7E000EFCCEDBCAA9BCCA32CB48BBC6AB4C67ABC
:10B7F000CC9B4BA4CA93CB9386728A8B698BEA9BB2
:10B80000E993A88B6BAC90D5CDBCCEB45AFFFFFFAB
:10B81000FFF7FFFFFFFFFFFFFFFFFFFFFFFFFFFF40
:10B82000FFFFFFFFFFFFFFFFFFFFFFFFFFFFFFFF28
:10B83000FFFFFFFFFFFFFFFFFFFFFFFFFFFFFFFF18
:10B84000FFFFFFFFFFFFFFFFFFFFFFFFFFFFFFFF08
:10B85000FFFFFFFFFFFFFFFFFFFFFFFFFFFFFFFFF8
:10B86000FFFFFFFFFFFFFFFFFFFFFFFFFFFFFFFFE8
:10B87000FFFFFFFFFFFFFFFFFFFFFFFFFFFFFFFFD8
:10B88000FFFFFFFFFFFFFFFFFFFFFFFFFFFFFFFFC8
:10B89000FFFFFFFFFFFFFFFFFFFFFFFFFFFFFFFFB8
:10B8A000FFFFFFFFFFFFFFFFFFFFFFFFFFFFFFFFA8
:10B8B000FFFFFFFFFFFFFFFFFFFFFFFFFFFFFFFF98
:10B8C000FFFFFFFFFFFFFFFFFFFFFFFFFFFFFFFF88
:10B8D000FFFFFFFFFFFFFFFFFFFFFFFFFFFFFFFF78
:10B8E000FFFFFFFFFFFFFFFFFFFFFFFFFFFFFFFF68
:10B8F000DFFFFFFFFFFFFFFFFFFFFFFFFFFFFFFF78
:10B90000FFFF1BEF77DEEB9349838A8B4983876ABE
:10B91000E772ADB48CB48BB4CCC44BAC85724983A4
:10B920002DA4CB9B2BAC09A4ABB40DBD099C4A9CA8
:10B930000CA4288329838B8B8B83E4510131C8624B
:10B94000A772A772097B6A83A349A772CB9B8993CD
:10B95000C99B6CACEA9BC99B4AA4099C2BA4488B4D
:10B9600029830883E87A297BE87246628762297B0B
:10B970002A7B265A6241C7722C9C4CA4ACB4ACB44E
:10B980000FCD2ECDCCC40BC50BC52DCDCDC48CB4E5
:10B990002AAC4BAC6DAC2BA40AACE9ABE9A38DB4DB
:10B9A000CDB44BAC6CB4ACBC0DCD2DCD8ED56DCD26
:10B9B0004EC5CCB48BB46BB44BACEB936662C12870
:10B9C0006349A98BCBB40CBD8DAC49834CA46FBD2E
:10B9D0004CAC23622783EEBCEA9B878B2EC50DBD42
:10B9E0008BB4EA9B688B69838A8BAA932783889B95
:10B9F000866A297B94CD70CD0CBD5AFFBFFFFEFF38
:10BA0000FFFFFFFFFFFFFFFFFFFFFFFFFFFFFFFF46
:10BA1000FFFFFFFFFFFFFFFFFFFFFFFFFFFFFFFF36
:10BA2000FFFFFFFFFFFFFFFFFFFFFFFFFFFFFFFF26
:10BA3000FFFFFFFFFFFFFFFFFFFFFFFFFFFFFFFF16
:10BA4000FFFFFFFFFFFFFFFFFFFFFFFFFFFFFFFF06
:10BA5000FFFFFFFFFFFFFFFFFFFFFFFFFFFFFFFFF6
:10BA6000FFFFFFFFFFFFFFFFFFFFFFFFFFFFFFFFE6
:10BA7000FFFFFFFFFFFFFFFFFFFFFFFFFFFFFFFFD6
:10BA8000FFFFFFFFFFFFFFFFFFFFFFFFFFFFFFFFC6
:10BA9000FFFFFFFFFFFFFFFFFFFFFFFFFFFFFFFFB6
:10BAA000FFFFFFFFFFFFFFFFFFFFFFFFFFFFFFFFA6
:10BAB000FFFFFFFFFFFFFFFFFFFFFFFFFFFFFFFF96
:10BAC000FFFFFFFFFFFFFFFFFFFFFFFFFFFFFFFF86
:10BAD000FFFFFFFFFFFFFFFFFFFFFFFFFFFFFFFF76
:10BAE000FFFFFFF7FFF7FFF7FFF7FFFFFFFFF2A4EE
:10BAF00043318762EC938A8B69834983E451E7720F
:10BB00004CA48CB48BBC6BB48CB48A93CB93097B60
:10BB1000EC9B0BA44AACCCBC2DC52EC5CCB4EBA37E
:10BB20008A93498B49838B834A7BA762C96AC8720F
:10BB3000C872097B49832562C772AA9389930BA4B3
:10BB4000488B0CA44CAC2AA4099CEB9B0DA4AA9393
:10BB50002983A772E87A297B0973097B297B0A73F9
:10BB6000C449E030255A8A8B0B9C8DAC4CA46DB433
:10BB70002EC5CCBC0CC54DCD2DC56BB46CB46CAC16
:10BB8000287BC351C672EAA30AA40BA4CA93097BFB
:10BB9000698B8CACCCBCAFD5D0D56FC5F2D58FCD71
:10BBA0000DC5ECC4CCBC6BAC0B9C6A83097B8B8B46
:10BBB0004BA4AAB4ECBC8893E038245ACDAC2BA497
:10BBC0008993ADB4EEBCACB4ACB4CCBC8BB4EBA339
:10BBD0004CAC235A6783C88B846ACB9BCBA3488B1E
:10BBE000AA8BA349287B0DBD19F7DFFFFEF7FFFFE6
:10BBF000FFFFFFFFFFFFFFFFFFFFFFFFFFFFFFFF55
:10BC0000FFFFFFFFFFFFFFFFFFFFFFFFFFFFFFFF44
:10BC1000FFFFFFFFFFFFFFFFFFFFFFFFFFFFFFFF34
:10BC2000FFFFFFFFFFFFFFFFFFFFFFFFFFFFFFFF24
:10BC3000FFFFFFFFFFFFFFFFFFFFFFFFFFFFFFFF14
:10BC4000FFFFFFFFFFFFFFFFFFFFFFFFFFFFFFFF04
:10BC5000FFFFFFFFFFFFFFFFFFFFFFFFFFFFFFFFF4
:10BC6000FFFFFFFFFFFFFFFFFFFFFFFFFFFFFFFFE4
:10BC7000FFFFFFFFFFFFFFFFFFFFFFFFFFFFFFFFD4
:10BC8000FFFFFFFFFFFFFFFFFFFFFFFFFFFFFFFFC4
:10BC9000FFFFFFFFFFFFFFFFFFFFFFFFFFFFFFFFB4
:10BCA000FFFFFFFFFFFFFFFFFFFFFFFFFFFFFFFFA4
:10BCB000FFFFFFFFFFFFFFFFFFFFFFFFFFFFFFFF94
:10BCC000FFFFFFFFFFFFFFFFFFFFFFFFFFFFFFFF84
:10BCD000FFFFFFF7FEFFFDFF9BF7B7DE655AE77238
:10BCE0002C9CAA8BE87A49836A836A83EB9B6CACB1
:10BCF0004BAC6BB4ACBCCDBCC67221398028087B80
:10BD0000EA9B6BACECBCCCBC4ECDACB40BA4AA9300
:10BD1000AA93AA8B497B0973E86A875AC96AE972B0
:10BD20004A7B6A83698B8A93AA9BCAA3EB9B0462B2
:10BD300029832CA44CAC6CACAB9B0983698B498BDD
:10BD4000E87AE87AE872E872E872A86AC96A676213
:10BD50002552A76A4A83AB8B297B414186724CAC42
:10BD6000ADB4EDBC6FCD0EC52BA42CA42CA4E76AFA
:10BD70000131255AAA93EA9BAA8B0452602001390B
:10BD8000888B0CBDAFCDA88B04526FA4AFD52DCD41
:10BD90002DCDEDC44BB4CA9B8A93EC93AB932BA4EB
:10BDA000AAB44DCDCDBCE78228832A9CCA9B6CAC3B
:10BDB000EEBC4FCD6BAC8793CCB4099CC359AA9B06
:10BDC0002BA40A9CA98B2783CA9B0FC50AA4ACB4D9
:10BDD000C34962394B9CFDFFDFFFFFFFFFFFFFFF01
:10BDE000FFFFFFFFFFFFFFFFFFFFFFFFFFFFFFFF63
:10BDF000FFFFFFFFFFFFFFFFFFFFFFFFFFFFFFFF53
:10BE0000FFFFFFFFFFFFFFFFFFFFFFFFFFFFFFFF42
:10BE1000FFFFFFFFFFFFFFFFFFFFFFFFFFFFFFFF32
:10BE2000FFFFFFFFFFFFFFFFFFFFFFFFFFFFFFFF22
:10BE3000FFFFFFFFFFFFFFFFFFFFFFFFFFFFFFFF12
:10BE4000FFFFFFFFFFFFFFFFFFFFFFFFFFFFFFFF02
:10BE5000FFFFFFFFFFFFFFFFFFFFFFFFFFFFFFFFF2
:10BE6000FFFFFFFFFFFFFFFFFFFFFFFFFFFFFFFFE2
:10BE7000FFFFFFFFFFFFFFFFFFFFFFFFFFFFFFFFD2
:10BE8000FFFFFFFFFFFFFFFFFFFFFFFFFFFFFFFFC2
:10BE9000FFFFFFFFFFFFFFFFFFFFFFFFFFFFFFFFB2
:10BEA000FFFFFFFFFFFFFFFFFFFFFFFFFFFFFFFFA2
:10BEB000FFFFFFFFFFFFFFFFFFFFFFFF7EF7FFFF1B
:10BEC000FEFFDBFF13D6ADB4AEB40DBDADAC898BB8
:10BED000097B4A834A838762E44907832BA42AACFF
:10BEE00009AC8BB46CACE3512010A349AA8B4CA4D1
:10BEF0006BACECC42DCD2ECD0DC52CAC8572656A16
:10BF0000AA8B4A838762C86AC962895A064A2A7B11
:10BF1000AB93CA930BA40BACC99BEB9B298B8A9365
:10BF20002CA42BA44BA4698BC459AA938A9328836D
:10BF3000E87AE872C86AE86A87628762A862C86AB3
:10BF4000E96A09736B83C972E2306241AA8B4CA41F
:10BF50002B9C0A9C6CAC4CA42CA4EB9B0C9CAB8B38
:10BF6000EB93EA9BCA9B0BA46983C97AC77A8CB40A
:10BF70006FCD8FCD06732039AB8BEFE5AFDD6FD57D
:10BF80008CB40BA42BA4CA9BAA930CA48CB4CBBCDA
:10BF9000CBBC0ECDAEBC8DB4EA9BEA9BADBCADB4C0
:10BFA0004FCD678BC059ACB44ECD8BB4EEBCAB93C8
:10BFB0004A8BAC93698B4AA46DCD4AB46ECDAFA4C5
:10BFC0002231E76ADDFF9FF7FFFFFFFFFFFFFFFF63
:10BFD000FFFFFFFFFFFFFFFFFFFFFFFFFFFFFFFF71
:10BFE000FFFFFFFFFFFFFFFFFFFFFFFFFFFFFFFF61
:10BFF000FFFFFFFFFFFFFFFFFFFFFFFFFFFFFFFF51
:10C00000FFFFFFFFFFFFFFFFFFFFFFFFFFFFFFFF40
:10C01000FFFFFFFFFFFFFFFFFFFFFFFFFFFFFFFF30
:10C02000FFFFFFFFFFFFFFFFFFFFFFFFFFFFFFFF20
:10C03000FFFFFFFFFFFFFFFFFFFFFFFFFFFFFFFF10
:10C04000FFFFFFFFFFFFFFFFFFFFFFFFFFFFFFFF00
:10C05000FFFFFFFFFFFFFFFFFFFFFFFFFFFFFFFFF0
:10C06000FFFFFFFFFFFFFFFFFFFFFFFFFFFFFFFFE0
:10C07000FFFFFFFFFFFFFFFFFFFFFFFFFFFFFFFFD0
:10C08000FFFFFFFFFFFFFFFFFFFFFFFFFFFFFFFFC0
:10C09000FFFFFFFFFFFFFFFFFFFFFFFFFFFFFFFFB0
:10C0A000FFFFFFFFFFFFFFFFFFFFDFFFDFFFD2AC60
:10C0B0004CA42FC52BA4A77AE8934BA4287BC87265
:10C0C000E96A0A73C86A4239866A0BA46BB42AAC5F
:10C0D000ACBCEEBC898B0873AB8BEB9B2BA48BB4F5
:10C0E000CCBC0DC54ECDCDBC2BAC857244628A8BC9
:10C0F00008730552A862E96AC6394010265AAB9304
:10C10000AA930BA44CAC0BA4C9930BA40BA40AA434
:10C110004AAC6AACEA9B0883EBA38A932883087B2A
:10C12000876AC451465AE96A8862675A675AA862A0
:10C13000A862C96A2B7BEA6A265A8A83CB8B287B42
:10C14000656228832BA40B9C2BAC8993CA93EA9B32
:10C15000EAA32AB40AAC2BA4ADB4ADB48CBCCAA378
:10C16000CDC44FCDEDBC6FCDAEDD2DC50EC5ADBC84
:10C170004CACEBA3488BA9934CAC8CB42DCD0DCD1E
:10C18000CDC42BAC4CAC2BA48CB4ADB48BB42EC5AD
:10C190006FCD8CB42EC50DC5B0D52FC5C77A6772CB
:10C1A000298B0883E99B29A44AB42CC5EFB48541A7
:10C1B000A762D5C5FFFFFFFFFFFFFFFFFFFFFFFFE8
:10C1C000FFFFFFFFFFFFFFFFFFFFFFFFFFFFFFFF7F
:10C1D000FFFFFFFFFFFFFFFFFFFFFFFFFFFFFFFF6F
:10C1E000FFFFFFFFFFFFFFFFFFFFFFFFFFFFFFFF5F
:10C1F000FFFFFFFFFFFFFFFFFFFFFFFFFFFFFFFF4F
:10C20000FFFFFFFFFFFFFFFFFFFFFFFFFFFFFFFF3E
:10C21000FFFFFFFFFFFFFFFFFFFFFFFFFFFFFFFF2E
:10C22000FFFFFFFFFFFFFFFFFFFFFFFFFFFFFFFF1E
:10C23000FFFFFFFFFFFFFFFFFFFFFFFFFFFFFFFF0E
:10C24000FFFFFFFFFFFFFFFFFFFFFFFFFFFFFFFFFE
:10C25000FFFFFFFFFFFFFFFFFFFFFFFFFFFFFFFFEE
:10C26000FFFFFFFFFFFFFFFFFFFFFFFFFFFFFFFFDE
:10C27000FFFFFFFFFFFFFFFFFFFFFFFFFFFFFFFFCE
:10C28000FFFFFFFFFFFFFFFFFFFFFFFFFFFFFFFFBE
:10C29000FFFFFFFFFFFFDFFFFFFF118C4018EB9355
:10C2A000D1CD045A4020077B898BA76AA7624A73C5
:10C2B000E96AE96AC86AE872CB934CAC4AAC6BB4E1
:10C2C000EDC48CAC2B9C0B9CEA9B0AA4CCBC29A48F
:10C2D000E99B2EC5ADB48CB44BAC4CA44CA4297BCB
:10C2E0008762E96AC96A685284398762CB9BAEBCAF
:10C2F0000BA48572CB9309A42BA40BA42BA4ABB4E1
:10C300008AAC0AA4ADB4EBA3AA93498B4983255AFE
:10C31000A0202231A862685A8862685A88628862BE
:10C320008862C9620A6B2A734A7B6A83297B256209
:10C33000C772AA938993A89BA99B4CAC2BA4C9A3B1
:10C34000C8A3C9A34CAC6BACADBCCEC40AACACBCEE
:10C35000D0E510E68DD5AEDD6ECDEEBC8A93E87AE1
:10C36000498B6993EAA36CAC8CB42DC5ABBC4AACC9
:10C37000EAA3698B656A2AA40EC5EDBCEDBCCDBCF1
:10C380008CB44FCDE9A3C351C672ADB42AA409A49D
:10C39000EA9B0883AB8BEAA349A4AA8BA549097B36
:10C3A0004D9CFEFFFEFFFFFFFFFFFFFFFFFFFFFFB4
:10C3B000FFFFFFFFFFFFFFFFFFFFFFFFFFFFFFFF8D
:10C3C000FFFFFFFFFFFFFFFFFFFFFFFFFFFFFFFF7D
:10C3D000FFFFFFFFFFFFFFFFFFFFFFFFFFFFFFFF6D
:10C3E000FFFFFFFFFFFFFFFFFFFFFFFFFFFFFFFF5D
:10C3F000FFFFFFFFFFFFFFFFFFFFFFFFFFFFFFFF4D
:10C40000FFFFFFFFFFFFFFFFFFFFFFFFFFFFFFFF3C
:10C41000FFFFFFFFFFFFFFFFFFFFFFFFFFFFFFFF2C
:10C42000FFFFFFFFFFFFFFFFFFFFFFFFFFFFFFFF1C
:10C43000FFFFFFFFFFFFFFFFFFFFFFFFFFFFFFFF0C
:10C44000FFFFFFFFFFFFFFFFFFFFFFFFFFFFFFFFFC
:10C45000FFFFFFFFFFFFFFFFFFFFFFFFFFFFFFFFEC
:10C46000FFFFFFFFFFFFFFFFFFFFFFFFFFFFFFFFDC
:10C47000FFFFFFFFFFFFFFFFFFFFFFFFFFFFFFFFCC
:10C48000FFFFDFFFFCFF8C7B4018055A4FC510D61D
:10C490004CA44A83AC8B8862064AA4394752A862EE
:10C4A000E96A475A0A736A832BA46BB46AB4ACBCBA
:10C4B0008CB44BAC0BA40AA44AACCCBC6BB42AA47D
:10C4C000CDACCEAC0AA46CAC6CACEB934A830973D4
:10C4D000E96A675A0A6B2A73297B698B6DB4899361
:10C4E000A028A66A4BAC0BA428832BA4ACB42AA426
:10C4F000EA9B4DAC0BA4EBA3698B4983C8728341C3
:10C500008441675A485A88622652C541675AC862B0
:10C51000A85AE96209732973297B6A83087B4983D6
:10C52000A99389930AA4CA93087BAA936CB42AACF2
:10C530000AA4688B455A856A6BA42EC56ED56DD545
:10C540008ED5CFDD6DCDD0D58CAC2141A030E87A31
:10C55000EA9BEAA32783A8938CB42AAC2AA44CAC08
:10C560002883E038E99BEDC4CCBC0DC5CCBC6BB4D2
:10C5700090D5C99B8249035A4AAC0CC58BB46893C9
:10C580008772EA7A498BE89369838551498BEA9BE4
:10C5900076E6DDFFFFFFFFFFFFFFFFFFFFFFFFFF6F
:10C5A000FFFFFFFFFFFFFFFFFFFFFFFFFFFFFFFF9B
:10C5B000FFFFFFFFFFFFFFFFFFFFFFFFFFFFFFFF8B
:10C5C000FFFFFFFFFFFFFFFFFFFFFFFFFFFFFFFF7B
:10C5D000FFFFFFFFFFFFFFFFFFFFFFFFFFFFFFFF6B
:10C5E000FFFFFFFFFFFFFFFFFFFFFFFFFFFFFFFF5B
:10C5F000FFFFFFFFFFFFFFFFFFFFFFFFFFFFFFFF4B
:10C60000FFFFFFFFFFFFFFFFFFFFFFFFFFFFFFFF3A
:10C61000FFFFFFFFFFFFFFFFFFFFFFFFFFFFFFFF2A
:10C62000FFFFFFFFFFFFFFFFFFFFFFFFFFFFFFFF1A
:10C63000FFFFFFFFFFFFFFFFFFFFFFFFFFFFFFFF0A
:10C64000FFFFFFFFFFFFFFFFFFFFFFFFFFFFFFFFFA
:10C65000FFFFFFFFFFFFFFFFFFFFFFFFFFFFFFFFEA
:10C66000FFFFFFFFFFFFFFFFFFFFFFFFFFFFDFFFFA
:10C670009EF76EBD0A94498B8FD5EEDD6CD52DC526
:10C680002CA40B73E64927524329264AE962C96A5A
:10C6900088620A73C86A2883A89B6AB4CCC48BBC1E
:10C6A0006BB40AAC0AAC4AB48BBCB0D5CDB4A249C9
:10C6B000C0282AA48CB46CACCA93297B8762675AC1
:10C6C000EA6AE96AE96A698389930BA4AEB4E76A06
:10C6D0000C8C8DB46A93E040C77A4CAC0AA40CA4CD
:10C6E000466A288BEBA38A932983297BC86AE96A67
:10C6F0006B7B0B73A962843922312652875A6652AA
:10C70000E862C86A4A7B0973297B29838A93EA9B7A
:10C710002BAC4CA4E772802086628DAC0BA46CAC71
:10C720004983074AC441C983EBB46CCD6DCD4ECD6E
:10C73000B0D58DCDCCB44CA4097B097BAB93CA9BFF
:10C740006BB4478347834BAC0AA4C99BEA9B2DA4D7
:10C75000ED9BABB40DC5EDC48CB48BB4C99B0AA4DE
:10C76000CDBCCCAC6BA42EC58CB4A99B298B2983E2
:10C77000097B8B8BCCACAA8BC661AAA3C8A330BDA6
:10C78000FDFFFFFFFFFFFFFFFFFFFFFFFFFFFFFFBB
:10C79000FFFFFFFFFFFFFFFFFFFFFFFFFFFFFFFFA9
:10C7A000FFFFFFFFFFFFFFFFFFFFFFFFFFFFFFFF99
:10C7B000FFFFFFFFFFFFFFFFFFFFFFFFFFFFFFFF89
:10C7C000FFFFFFFFFFFFFFFFFFFFFFFFFFFFFFFF79
:10C7D000FFFFFFFFFFFFFFFFFFFFFFFFFFFFFFFF69
:10C7E000FFFFFFFFFFFFFFFFFFFFFFFFFFFFFFFF59
:10C7F000FFFFFFFFFFFFFFFFFFFFFFFFFFFFFFFF49
:10C80000FFFFFFFFFFFFFFFFFFFFFFFFFFFFFFFF38
:10C81000FFFFFFFFFFFFFFFFFFFFFFFFFFFFFFFF28
:10C82000FFFFFFFFFFFFFFFFFFFFFFFFFFFFFFFF18
:10C83000FFFFFFFFFFFFFFFFFFFFFFFFFFFFFFFF08
:10C84000FFF7FFFFFFFFBEFFFFFFFFFFFFFFFFFF41
:10C85000FFFFFFFFFFFFFFFF9FF7FEFF98E6E65198
:10C860002BC5ADD5EFE54DD56FDD8CB4898328732D
:10C87000E84968524652875AC962A962A962097397
:10C880000A6B274A6010E5494CAC8CBCACBC6CAC64
:10C890004BA4C349E2288B8350CDCBBCC472A241C8
:10C8A0000BAC2BACADB40C94A86AC649685AC962EB
:10C8B000EA62675AC76AEB930A9CACB42DC52DC5D2
:10C8C0008DAC2CA4278368930CAC2DAC6B8BE23819
:10C8D0002452CB938A8B297BC9622652AB8B0BA443
:10C8E000CC8B675A675A064A474A885AA86A8B838C
:10C8F000C9A3EAA3EAA3CA9BCA9BAA93CA932CA47E
:10C900004AA4ACB44BACACBCCDBC4AAC69ACAAB488
:10C910008BAC4BAC0AAC8BBC2DCD4BA4665ACA5A1F
:10C92000E99B4BACEBA30BA40BA4A99B0AA4CCBC26
:10C93000ABB46BAC2BACEB9B2CA46DAC6BACEDBC7B
:10C94000EEBC0AA44CAC8DB42CAC488BE782ADB4E1
:10C95000ADBC6BB4ADBC0AAC48932983E9722A73B1
:10C96000AFAC16D6A86AAB9371D5EBA32973DDFFE4
:10C97000FFFFFFFFFFFFFFFFFFFFFFFFFFFFFFFFC7
:10C98000FFFFFFFFFFFFFFFFFFFFFFFFFFFFFFFFB7
:10C99000FFFFFFFFFFFFFFFFFFFFFFFFFFFFFFFFA7
:10C9A000FFFFFFFFFFFFFFFFFFFFFFFFFFFFFFFF97
:10C9B000FFFFFFFFFFFFFFFFFFFFFFFFFFFFFFFF87
:10C9C000FFFFFFFFFFFFFFFFFFFFFFFFFFFFFFFF77
:10C9D000FFFFFFFFFFFFFFFFFFFFFFFFFFFFFFFF67
:10C9E000FFFFFFFFFFFFFFFFFFFFFFFFFFFFFFFF57
:10C9F000FFFFFFFFFFFFFFFFFFFFFFFFFFFFFFFF47
:10CA0000FFFFFFFFFFFFFFFFFFFFFFFFFFFFFFFF36
:10CA1000FFFFFFFFFFFFFFFFFFFFFFFFFFFFFFFF26
:10CA2000FFFFFFFFFFFFFFFFFFFFFFFFFFFFFFFF16
:10CA3000DEF7DFFFFFFFFFFFDEFFFFFFFFFFFFFF70
:10CA4000FDFFFEFF5DEFFFFF35D623522C9C8FD5F7
:10CA50006FD58FD54FD54CB4E4598020264A495222
:10CA6000E6416752A75A885ACA6AE96AA8620973F6
:10CA7000A862A441C76A4BAC2AB44BB46CB44BA4B3
:10CA8000E451E128E87AEDBC4ECDACB48DAC2BACD2
:10CA90006BB4CDB42C9C297B675AE96AE86AEA6AD0
:10CAA0004339413949836CAC8CB4CCB44EC5ADB478
:10CAB0002AA44BAC6BB42BAC4CACEB9BA76AE772D3
:10CAC000CA938A93097BE54922396A836CAC49830E
:10CAD000A24966620973A76AC772AB930C9C2BAC20
:10CAE000EEC4EEC44BACEAA30BA42CA44CA4ABB490
:10CAF000EDBC4FCD6FCDADBC2BAC8DB4ADB4ACB4F3
:10CB00002BAC899B2BACEDC42BA4045222310683A1
:10CB1000EA9BEBA3CA9BCA9BEAA38CB4ACB4ABB4AC
:10CB20008BB42BA4488B89938DB4CDB46BAC2AA461
:10CB3000888BCDB4ADB4698BCA9B6CAC8CACC67A17
:10CB40006472278B899B89930883E8728B83B3CDAA
:10CB5000CC8B0552B2CDB2D58EB4223117C6FFFFB1
:10CB6000FFFFFFFFFFFFFFFFFFFFFFFFFFFFFFFFD5
:10CB7000FFFFFFFFFFFFFFFFFFFFFFFFFFFFFFFFC5
:10CB8000FFFFFFFFFFFFFFFFFFFFFFFFFFFFFFFFB5
:10CB9000FFFFFFFFFFFFFFFFFFFFFFFFFFFFFFFFA5
:10CBA000FFFFFFFFFFFFFFFFFFFFFFFFFFFFFFFF95
:10CBB000FFFFFFFFFFFFFFFFFFFFFFFFFFFFFFFF85
:10CBC000FFFFFFFFFFFFFFFFFFFFFFFFFFFFFFFF75
:10CBD000FFFFFFFFFFFFFFFFFFFFFFFFFFFFFFFF65
:10CBE000FFFFFFFFFFFFFFFFFFFFFFFFFFFFFFFF55
:10CBF000FFFFFFFFFFFFFFFFFFFFFFFFFFFFFFFF45
:10CC0000FFFFFFFFFFFFFFFFFFFFFFFFFFFFFFFF34
:10CC1000FFFFFFFFFFFFFFFFFFFFFFFFFFFFDFFF44
:10CC2000FFFFFFFFFFFFFFFFFFFFFFF7FFFFFEFF1D
:10CC3000FEFFFFFFF6C52B942EBDC9938A8BAEB4C1
:10CC40006DAC288BEC9BA0284431F7C5F3A4E641DA
:10CC5000A75A096B4752275288620973A772498302
:10CC600029838A93EAA3E9AB6BB4ADBCCDBC6DACB0
:10CC70002C9C8DB4CCBCECC48CB42CA44BACACB40C
:10CC8000ABACE9934983A762C862C7622A73676243
:10CC900046626A8B0B9C2BA40B9C8DAC0CBD8AACA2
:10CCA000ABB4ABBC2AAC0AA44BA46CA4CA93CA9381
:10CCB000AA9349834662255AEB9B6CAC8893078301
:10CCC000688BCA93AA93288BA99BC9A36BB48CB415
:10CCD0006CB46CAC278380518472ADB42DC56ECD1D
:10CCE000D0DDB0D54BAC0362C459EDA36DCD6BACB8
:10CCF000498B0CA4ADB46CACCA93AA93E99B0AA46B
:10CD00002BA42BA40BA44BAC8CB46BAC0BA40AA42B
:10CD10000BA4688B488B4BA4EEBCCDB4CDB40EB540
:10CD2000B1CDCEB42C9CADAC2B9C4783AA8B698330
:10CD3000CA93CB9BEB9BCB93AB8B4E9C0C94C34980
:10CD400092C534DE33DE10BDAD83FFFFFFFFFFFF72
:10CD5000FFFFFFFFFFFFFFFFFFFFFFFFFFFFFFFFE3
:10CD6000FFFFFFFFFFFFFFFFFFFFFFFFFFFFFFFFD3
:10CD7000FFFFFFFFFFFFFFFFFFFFFFFFFFFFFFFFC3
:10CD8000FFFFFFFFFFFFFFFFFFFFFFFFFFFFFFFFB3
:10CD9000FFFFFFFFFFFFFFFFFFFFFFFFFFFFFFFFA3
:10CDA000FFFFFFFFFFFFFFFFFFFFFFFFFFFFFFFF93
:10CDB000FFFFFFFFFFFFFFFFFFFFFFFFFFFFFFFF83
:10CDC000FFFFFFFFFFFFFFFFFFFFFFFFFFFFFFFF73
:10CDD000FFFFFFFFFFFFFFFFFFFFFFFFFFFFFFFF63
:10CDE000FFFFFFFFFFFFFFFFFFFFFFFFFFFFFFFF53
:10CDF000FFFFFFFFFFFFFFFFFFFFFFFFFFFFFFFF43
:10CE0000FFFFFFFFFFFFFFFFFFFFFEFFFFFFFFFF33
:10CE1000DFFFFFFFFFFFFFF7FFFFFFFFFFFF7CF7D5
:10CE2000495AE2308DACD1D56572A028C86A6EA48B
:10CE3000C76AC76A4B73DBE6FFFF79D606428752A3
:10CE4000E441A120A5418862C862E87A498B498300
:10CE50004983CA9B4CAC4BAC89930AAC8CB4ADBC37
:10CE60006BB42AAC8BB48CBC2BAC4CA4ACB4EDBC76
:10CE70002A9CEB93297B8762E7620A736B836A8B38
:10CE80006A8BAB93CB93656282492AA48BB46AAC5C
:10CE90008BB4ACB44BAC0A9CEA9BEA9BAA93698B1B
:10CEA00049832983CB934CACA99B0BA44CAC2BACF2
:10CEB000A99B0BA40AACEAA30AAC0AA48CB44BACA1
:10CEC0006BAC4BAC8893E99BCDBC2DC56DCDCFDD54
:10CED0008FCDEDBC8893E7828FBCAED50DBDEC9BAA
:10CEE000CC932CA4ADB46BB44BB46CB40BA4EA9B40
:10CEF000A993A9934CACADB46BAC488BAA934CAC42
:10CF0000ADB4EEB450C591CD91C5B2C534D655DEA1
:10CF1000D4CD15D6F4CD6D9CCB8B8B7BAC830C9490
:10CF20000C944D9C4DA4EC932C9C00312C9413D666
:10CF3000B5EE34DE52BDFFFF9FFFFFFFFFFFFFFF97
:10CF4000FFFFFFFFFFFFFFFFFFFFFFFFFFFFFFFFF1
:10CF5000FFFFFFFFFFFFFFFFFFFFFFFFFFFFFFFFE1
:10CF6000FFFFFFFFFFFFFFFFFFFFFFFFFFFFFFFFD1
:10CF7000FFFFFFFFFFFFFFFFFFFFFFFFFFFFFFFFC1
:10CF8000FFFFFFFFFFFFFFFFFFFFFFFFFFFFFFFFB1
:10CF9000FFFFFFFFFFFFFFFFFFFFFFFFFFFFFFFFA1
:10CFA000FFFFFFFFFFFFFFFFFFFFFFFFFFFFFFFF91
:10CFB000FFFFFFFFFFFFFFFFFFFFFFFFFFFFFFFF81
:10CFC000FFFFFFFFFFFFFFFFFFFFFFFFFFFFFFFF71
:10CFD000FFFFFFFFFFFFFFFFFFFFFFFFFFFFFFFF61
:10CFE000FFFFFFFFFFFFFFFFFFFFFFFFFFFFFFFF51
:10CFF000FFFFFFFFFFFFFFFFFFFFFFFFDFFFFFFF61
:10D00000FFFFDFF7DFF7FFFFBFFF3BF7D1ACE130FA
:10D01000055AEEBC2EC50783834129738A83497361
:10D02000AF9CFDFFBEF7FFFFBEFF4752C85AE44169
:10D030002231685A2A73096B0973097B4A83AB8BC7
:10D04000AA8BAB8BCB93EB938DBC4BB46AB4ABB4D4
:10D05000ACB4ADB46CB4C9A3097BE77AADB46DAC24
:10D06000CC932B7B0652264AC96A2A7B4A836A8B59
:10D07000CB93EC9B866AC3514BACADBC6CAC2783A5
:10D080008993AEB44CACEA9BCAA3CA9B6A8B298332
:10D090006A8B2CAC4CAC88938A8B077B2CA40BA49A
:10D0A000CA9B4BAC4BACEA9B0AA48CB44BAC4BACCC
:10D0B000ACB48BB4ACB40DC50CC58AB46DCD6DC524
:10D0C000EBB4ECBC0DC56FD5ADD50DBDE87A2139FB
:10D0D000045A8CB4ACBC8BBC4CAC2BA4EA9B07832D
:10D0E00027836CACADB42BA4498B6DAC10BD50C57F
:10D0F000B2CD14D655DE55DE16CE37D63BF7BEFF81
:10D10000DEFFFEFFBDFF7CFF7CF77CF7BCFFDCFF92
:10D110009BFF56DE8FA4AB8B6239AEA434D613CE00
:10D1200034CE3BEFFFFFFFFFFFFFFFFFFFFFFFFFDF
:10D13000FFFFFFFFFFFFFFFFFFFFFFFFFFFFFFFFFF
:10D14000FFFFFFFFFFFFFFFFFFFFFFFFFFFFFFFFEF
:10D15000FFFFFFFFFFFFFFFFFFFFFFFFFFFFFFFFDF
:10D16000FFFFFFFFFFFFFFFFFFFFFFFFFFFFFFFFCF
:10D17000FFFFFFFFFFFFFFFFFFFFFFFFFFFFFFFFBF
:10D18000FFFFFFFFFFFFFFFFFFFFFFFFFFFFFFFFAF
:10D19000FFFFFFFFFFFFFFFFFFFFFFFFFFFFFFFF9F
:10D1A000FFFFFFFFFFFFFFFFFFFFFFFFFFFFFFFF8F
:10D1B000FFFFFFFFFFFFFFFFFFFFFFFFFFFFFFFF7F
:10D1C000FFFFFFFFFFFFFFFFFFFFFFFFFFFFFFFF6F
:10D1D000FFFFFFFFFFFFFFFFFFFFFFFFFFFFFFFF5F
:10D1E000FFFFFFFFFFFFFFFFDFFFFFFFFFFFFFFF6F
:10D1F000FFFFFFFFBDFFD0ACEB934B9C8CAC0EBD93
:10D200000CBD0DBD2BA46A7B4A7B096B77D6BCF79E
:10D21000FEFFFFFFBEF7FFFF274A875AA75AA86203
:10D22000EA6AEA6A0973C962E96A8B83AB8B0552C1
:10D23000C020245A6DA48DBC6BB4CCBC6BACCB931A
:10D240000C9C8DB4C9A30139A028688BEBA36B8B10
:10D250006C83C96AA962E96A09734A836A8B698B1C
:10D26000EB9BEB9B6DA42CAC0CA40CA4614941413D
:10D270000CA44DAC0BA4CAA3AB934A832A838A8B1C
:10D280002CA42BA40A9CE872E351CA938CB42BA45F
:10D290006BACACB4CDB4CDB4CDBCADB46BAC4BAC1D
:10D2A0006BAC8CB4ACBC0DCDCCBC2DC5ECB4CBB44C
:10D2B0004CC52CCD8DDDEFE56FCDAA93C3514462F3
:10D2C0008CB4ACBCACC44DACEB9BEA9BA9930AA458
:10D2D000ADB40BA4CA9B8DAC0FBD10BD92C535D6A5
:10D2E00098DE1AEF7BF7BEFF7DF7FFFFFFFFDFFF42
:10D2F000DFFFFFFFFFFFFEFFFFFFFFFFFFFFFEFF60
:10D300009CFFF5CDB0A4B0A4CFACEFACCFA4DDFFB3
:10D31000FFFFFFFFDFFFFFFFFFFFFFFFFFFFFFFF3D
:10D32000FFFFFFFFFFFFFFFFFFFFFFFFFFFFFFFF0D
:10D33000FFFFFFFFFFFFFFFFFFFFFFFFFFFFFFFFFD
:10D34000FFFFFFFFFFFFFFFFFFFFFFFFFFFFFFFFED
:10D35000FFFFFFFFFFFFFFFFFFFFFFFFFFFFFFFFDD
:10D36000FFFFFFFFFFFFFFFFFFFFFFFFFFFFFFFFCD
:10D37000FFFFFFFFFFFFFFFFFFFFFFFFFFFFFFFFBD
:10D38000FFFFFFFFFFFFFFFFFFFFFFFFFFFFFFFFAD
:10D39000FFFFFFFFFFFFFFFFFFFFFFFFFFFFFFFF9D
:10D3A000FFFFFFFFFFFFFFFFFFFFFFFFFFFFFFFF8D
:10D3B000FFFFFFFFFFFFFFFFFFFFFFFFFFFFFFFF7D
:10D3C000FFFFFFFFFFFFFFFFFFFFFFFFFFFFFFFF6D
:10D3D000FFFFFFFFFEFFFFFFFFFFFFFFFFFFFFFF5E
:10D3E0003BF7B4CD866A8BB4ABB4CCBC2EC58AAC4B
:10D3F0004AA4AA8BE9728C831AEFFFFFFFFFFFFF9D
:10D40000FFFFFFFF5DF76852A75A875A0A6BA962B0
:10D41000886209730A6B097329838A8B6662624189
:10D42000C6728CB46BAC8BB48BB48562A020C5493A
:10D430002C9C4AAC0973A66A4BA44BACAB9B4B83A8
:10D44000C96AC8620A6BC86A297B2983E77AA993EB
:10D45000CA9B0BA4EBABEBA36DACC772866A2CA482
:10D460002BA4EA9BAA9B4A8BC96AE9724983EA9B6F
:10D470000AA40B9C0C9C688B2BAC6BB48BBC6BB460
:10D480008BB42EC50A9CE259C572ADBC0EC5ACBCAE
:10D490008CB4ACBCABBC0EC547832039856AEDBCEF
:10D4A0006ED5CEE58ED50DC5ADB48DB48CB40DC59D
:10D4B000ADBCCEBCEB9B698BA9932AA4ADB44BAC9D
:10D4C000688B4CAC90C570BD93C5D9E6BEFFFFFF1D
:10D4D000FFFFFFFFFFFFFFFFFFFFDFFFFFFFFFFF7C
:10D4E000FFFFFFFFFFFFFFFFDFFFBFF7FFFFFFFFB4
:10D4F000FEFF1AEFF6CDD5CD52BD77D6FFFFDFF791
:10D50000FFFFFFFFFFFFFFFFFFFFFFFFFFFFFFFF2B
:10D51000FFFFFFFFFFFFFFFFFFFFFFFFFFFFFFFF1B
:10D52000FFFFFFFFFFFFFFFFFFFFFFFFFFFFFFFF0B
:10D53000FFFFFFFFFFFFFFFFFFFFFFFFFFFFFFFFFB
:10D54000FFFFFFFFFFFFFFFFFFFFFFFFFFFFFFFFEB
:10D55000FFFFFFFFFFFFFFFFFFFFFFFFFFFFFFFFDB
:10D56000FFFFFFFFFFFFFFFFFFFFFFFFFFFFFFFFCB
:10D57000FFFFFFFFFFFFFFFFFFFFFFFFFFFFFFFFBB
:10D58000FFFFFFFFFFFFFFFFFFFFFFFFFFFFFFFFAB
:10D59000FFFFFFFFFFFFFFFFFFFFFFFFFFFFFFFF9B
:10D5A000FFFFFFFFFFFFFFFFFFFFFFFFFFFFFFFF8B
:10D5B000FFFFFFFFFFFFFFFFFFFFFFFFFFFFFFFF7B
:10D5C000FFFFFFFFFFFFFFFFFFFFFFFF5CF732BD25
:10D5D0008A8B8EB4EDC48BBC8CBC6CB40A9C287B4B
:10D5E00006520E947DFFDFFFBFFFFFFFDFFFFFFF4F
:10D5F000FFFFFFFF885A4652875AC96223314339D9
:10D600004A7B2A734A83288389930B9C2C9C8CB475
:10D610004ABC6CACABB4EDBCC76A811885392C9C94
:10D620006AAC8E9CEEAC0DBD6AAC4CAC6A8BC76A22
:10D63000286BE962875A29734983C67A6893A9934C
:10D64000CA9BEAA32BACEB9B4CA44CA4EA9BEA9BA1
:10D65000C99BCAA34A83A96AC96AC77289930B9CEA
:10D660000B9C2BA42BAC8BBC4ABC4ABC6ABC8ABCAE
:10D6700008A48DAC2783ADB40EC588930AAC0EC543
:10D68000CDBCCCC40EC58A93C451E872CFBC6FD553
:10D690006FDD4DCD8BB42BAC0EC52DC5EDBC0BA4F1
:10D6A0000883AB93AA932BA42AA42BA48893278343
:10D6B00030C58FBD94DE7AFFFEFFDFFFBFFFFFFFA7
:10D6C000FFFFFEFFFFFFFFFFFFFFFFFFFFFFFFFF6B
:10D6D000FFFFFFFFDFFFFFFFFFFFFFFFFFFFFFFF7A
:10D6E000FEFFFEFF5BFF5BFFFFFFFFFFFFF7FFFF9C
:10D6F000FEFFFFFFFFFFFFFFFFFFFFFFFFFFFFFF3B
:10D70000FFFFFFFFFFFFFFFFFFFFFFFFFFFFFFFF29
:10D71000FFFFFFFFFFFFFFFFFFFFFFFFFFFFFFFF19
:10D72000FFFFFFFFFFFFFFFFFFFFFFFFFFFFFFFF09
:10D73000FFFFFFFFFFFFFFFFFFFFFFFFFFFFFFFFF9
:10D74000FFFFFFFFFFFFFFFFFFFFFFFFFFFFFFFFE9
:10D75000FFFFFFFFFFFFFFFFFFFFFFFFFFFFFFFFD9
:10D76000FFFFFFFFFFFFFFFFFFFFFFFFFFFFFFFFC9
:10D77000FFFFFFFFFFFFFFFFFFFFFFFFFFFFFFFFB9
:10D78000FFFFFFFFFFFFFFFFFFFFFFFFFFFFFFFFA9
:10D79000FFFFFFFFFFFFFFFFFFFFFFFFFFFFFFFF99
:10D7A000FFFFFFFFFFFFFFFFFFFFDFFFDEFFFFFFCA
:10D7B000FFFFDFF7FFFFFFFF9DFFCC6AE230299CF0
:10D7C000ECC4CA9BE6590A732D94086B84398F8385
:10D7D000FFFFFFFFFFFFFFFFFFFFFFFFFFFFFFFF59
:10D7E000FFFF34AD0642E962675AE12806522A7308
:10D7F00029732A7B8D8B8C8BCB9B6BAC2AAC6BB447
:10D80000ADBC8CB46CB4CDBC2AA4E99B8CB44BA445
:10D810000CAC4CACADB42BA44CA4AA8B0973C96A54
:10D82000087BE872497B497B49838A8B8A93899379
:10D83000EBA3AA9B8A938A93CB9B8A93CB9B498B1E
:10D8400028834A7BE96AC86A8A8B0AA42BAC0AA49B
:10D850002AA46CACCB9B6A8B4CA44BA40AA4EAA36D
:10D860000FC56FD58DD56AAC81516249ADAC8ECDF7
:10D870002DCD0EC50EC5CDBCCBBCEABC2CC58FD5FD
:10D880002B832241C6722DBDCCB48CACAA93877277
:10D89000898BEA9B0BA46CAC898BE76AF1A45AEFE5
:10D8A0009EF7DFFFFFFFFFFFFFFFFFFFFFFFFFFF11
:10D8B000FFFFFFFFFFFFFFFFFFFFFFFFFFFFFFFF78
:10D8C000FFFFFFFFFFFFFFFFFFFFFFFFFFFFFFFF68
:10D8D000FFFFFFFFFFFFFFFFFFFFFFFFFFFFFFFF58
:10D8E000FFFFFFFFFFFFFFFFFFFFFFFFFFFFFFFF48
:10D8F000FFFFFFFFFFFFFFFFFFFFFFFFFFFFFFFF38
:10D90000FFFFFFFFFFFFFFFFFFFFFFFFFFFFFFFF27
:10D91000FFFFFFFFFFFFFFFFFFFFFFFFFFFFFFFF17
:10D92000FFFFFFFFFFFFFFFFFFFFFFFFFFFFFFFF07
:10D93000FFFFFFFFFFFFFFFFFFFFFFFFFFFFFFFFF7
:10D94000FFFFFFFFFFFFFFFFFFFFFFFFFFFFFFFFE7
:10D95000FFFFFFFFFFFFFFFFFFFFFFFFFFFFFFFFD7
:10D96000FFFFFFFFFFFFFFFFFFFFFFFFFFFFFFFFC7
:10D97000FFFFFFFFFFFFFFFFFFFFFFFFFFFFFFFFB7
:10D98000FFFFFFFFFFFFFFFFFFFFFFFFFFFFFFFFA7
:10D99000FFFFFFFFFFFFFFFFFFFFFFFFFFFFFFFF97
:10D9A000FFFFDEFF15CE26528220E1302A9C0DC5F6
:10D9B000856AA130C6496652697374B5DFFFFFFFFF
:10D9C000FFFFFFFFFFFFFFFFFFFFFFFFFFFFFFFF67
:10D9D000B6BD885A6752A85A265288622A73697B54
:10D9E0006B83C972E97ACA932AA46BB48CBC4BAC22
:10D9F0006CAC8CB4EDBCCDBCEDBCCDBCC89B0BA459
:10DA00006DB46CACEA9B0B9C6983E8724A7B6983BA
:10DA100049834A7B0973297B297B2983AA938A93AB
:10DA2000CB9B2883C7728A8B8A8B498B087BC772F2
:10DA3000E972A862C8620C9C2BAC2BACCA9B09A4EF
:10DA40008DB4866A0141698B8CACC99BC67A4472DD
:10DA50004AAC8DCDAFD5CEBCCFB4D1D54DC50CC55C
:10DA60004FCD4FCDEDBCCBBCEBBC0CC50DC52A8357
:10DA7000C030C2518CACACB44BA4AA938A93EA9B3D
:10DA80004CA46CACCA932983C86A5BF7FEFFDFFF26
:10DA9000FFFFFFFFFFFFFFFFFFFFFFFFFFFFFFFF96
:10DAA000FFFFFFFFFFFFFFFFFFFFFFFFFFFFFFFF86
:10DAB000FFFFFFFFFFFFFFFFFFFFFFFFFFFFFFFF76
:10DAC000FFFFFFFFFFFFFFFFFFFFFFFFFFFFFFFF66
:10DAD000FFFFFFFFFFFFFFFFFFFFFFFFFFFFFFFF56
:10DAE000FFFFFFFFFFFFFFFFFFFFFFFFFFFFFFFF46
:10DAF000FFFFFFFFFFFFFFFFFFFFFFFFFFFFFFFF36
:10DB0000FFFFFFFFFFFFFFFFFFFFFFFFFFFFFFFF25
:10DB1000FFFFFFFFFFFFFFFFFFFFFFFFFFFFFFFF15
:10DB2000FFFFFFFFFFFFFFFFFFFFFFFFFFFFFFFF05
:10DB3000FFFFFFFFFFFFFFFFFFFFFFFFFFFFFFFFF5
:10DB4000FFFFFFFFFFFFFFFFFFFFFFFFFFFFFFFFE5
:10DB5000FFFFFFFFFFFFFFFFFFFFFFFFFFFFFFFFD5
:10DB6000FFFFFFFFFFFFFFFFFFFFFFFFFFFFFFFFC5
:10DB7000FFFFFFFFFFFFFFFFFFFFFFFFFFFFFFFFB5
:10DB8000FFFFFFFFFFFFFFFFFFFFFFFFFEFF7CF731
:10DB9000D0AC2B9CE25122412EA40FB54BA4EC93A8
:10DBA0006439E64953ADFDFFDEFFDFFFFFFFFFFFF6
:10DBB000FFFFFFFFFFFFFFFFFFFFFFFFFFFF79D624
:10DBC000274A4752875AE96AC96A0A73AB83E96AE6
:10DBD000A128A451EB9B8BB46BB46893E0382783E6
:10DBE0008CACCDBC0EC52ECDEDC4EDC44BAC656A7E
:10DBF000856AEB9BEC9B087B287B8A8BAA8B6A83CC
:10DC00000973C86AC96A875A2652A8624983CB93A6
:10DC10008A8B087B4983097BE87208738762875A7D
:10DC20006852C962AB93A572E67ACA934AAC0FC533
:10DC30002983834949836CACEA9B288307838BB48F
:10DC4000EBBC4DCDF2DD91D5D1D5CFD5AFD54AA422
:10DC50002783E99BEDBCECBCCDBC6CAC4EA4087B2F
:10DC6000898BADB42BA4AA93698BEB9BCEB40B9C90
:10DC7000CB93E87A87620E94FFFFFFFFFFFFFFFF61
:10DC8000FFFFFFFFFFFFFFFFFFFFFFFFFFFFFFFFA4
:10DC9000FFFFFFFFFFFFFFFFFFFFFFFFFFFFFFFF94
:10DCA000FFFFFFFFFFFFFFFFFFFFFFFFFFFFFFFF84
:10DCB000FFFFFFFFFFFFFFFFFFFFFFFFFFFFFFFF74
:10DCC000FFFFFFFFFFFFFFFFFFFFFFFFFFFFFFFF64
:10DCD000FFFFFFFFFFFFFFFFFFFFFFFFFFFFFFFF54
:10DCE000FFFFFFFFFFFFFFFFFFFFFFFFFFFFFFFF44
:10DCF000FFFFFFFFFFFFFFFFFFFFFFFFFFFFFFFF34
:10DD0000FFFFFFFFFFFFFFFFFFFFFFFFFFFFFFFF23
:10DD1000FFFFFFFFFFFFFFFFFFFFFFFFFFFFFFFF13
:10DD2000FFFFFFFFFFFFFFFFFFFFFFFFFFFFFFFF03
:10DD3000FFFFFFFFFFFFFFFFFFFFFFFFFFFFFFFFF3
:10DD4000FFFFFFFFFFFFFFFFFFFFFFFFFFFFFFFFE3
:10DD5000FFFFFFFFFFFFFFFFFFFFFFFFFFFFFFFFD3
:10DD6000FFFFFFFFFFFFFFFFFFFFFFFFFFFFFFFFC3
:10DD7000FFFFFFFFDFF7FFFFFFFFDDFF465A48838E
:10DD8000ECBC6BAC8DB4097B675ACB8BA8624D732E
:10DD9000BADEFEFFDDFFFFFFFFFFFFFFFFFFFFFF1C
:10DDA000FFFFFFFFFFFFFFFFFFFFDFFF5CEFE6412D
:10DDB000A95A6752A8628862E96A4A7BE9724341BC
:10DDC00066622BA46BAC8CB4C99BA251A9938CAC9A
:10DDD0000A9C0AA40DC50DCD0DCDACB4C151A15105
:10DDE000CB93AB93C772AA930B9C4D9C6A838862BA
:10DDF000064A064AC5414431A541866229738A8391
:10DE00004A7B09730973E96AA762675A4752274A2E
:10DE1000C962CB93446AC67A6CA4ABB40EBD8FAC16
:10DE2000CB93CB93A98BEB9B0CA46CACCCBCEBBC85
:10DE3000ECBC4BACA572A893EFDDCFD5099C035A7F
:10DE4000E67A4BA48CAC8DACCB9BEB9B8DAC8DACB4
:10DE50008A8B856A4983EB934DA48DAC6983E87204
:10DE6000A86AC96A1BEFBFFFFFFFFFFFFFFFFFFFAD
:10DE7000FFFFFFFFFFFFFFFFFFFFFFFFFFFFFFFFB2
:10DE8000FFFFFFFFFFFFFFFFFFFFFFFFFFFFFFFFA2
:10DE9000FFFFFFFFFFFFFFFFFFFFFFFFFFFFFFFF92
:10DEA000FFFFFFFFFFFFFFFFFFFFFFFFFFFFFFFF82
:10DEB000FFFFFFFFFFFFFFFFFFFFFFFFFFFFFFFF72
:10DEC000FFFFFFFFFFFFFFFFFFFFFFFFFFFFFFFF62
:10DED000FFFFFFFFFFFFFFFFFFFFFFFFFFFFFFFF52
:10DEE000FFFFFFFFFFFFFFFFFFFFFFFFFFFFFFFF42
:10DEF000FFFFFFFFFFFFFFFFFFFFFFFFFFFFFFFF32
:10DF0000FFFFFFFFFFFFFFFFFFFFFFFFFFFFFFFF21
:10DF1000FFFFFFFFFFFFFFFFFFFFFFFFFFFFFFFF11
:10DF2000FFFFFFFFFFFFFFFFFFFFFFFFFFFFFFFF01
:10DF3000FFFFFFFFFFFFFFFFFFFFFFFFFFFFFFFFF1
:10DF4000FFFFFFFFFFFFFFFFFFFFFFFFFFFFFFFFE1
:10DF5000FFFFFFFFFFFFFFFFFFFFFFFFFFFFFFFFD1
:10DF6000DFFFFFFFFFFF5CEF73C56DA44BAC4ECD31
:10DF70000DC5CDB4C0288120054AD5C59EFFFFFF41
:10DF8000FFFFFFFFFFFFFFFFFFFFFFFFFFFFFFFFA1
:10DF9000FFFFFFFFFFFFFFFFFFFFFFFFAD7BA85A63
:10DFA000875A675AA862EA6AE8726B836B830C9C93
:10DFB0006CAC4AACACBCADBCCEB4ADB46CAC68938C
:10DFC000478B4FCDB0DD4ECD4EC54BA48993AB935F
:10DFD0004983498B2CA46CAC4A7B8762E549C539DF
:10DFE000C639C639A539C641C441054A675A875A58
:10DFF000A862096BE962675A885A6852C541C862CB
:10E000006DACCA9BEA9B6DA4ABB48CAC8A8BC87216
:10E0100069836883AA93CB9B8993C99BACB42EC5B3
:10E020006BACA572678B0DC52DBD6FCD8DB46CAC7F
:10E030008CAC4BA40B9C8672888B8CAC4CA4E87A7D
:10E04000666AAA8B0C9C0C9CCB93C8720973A9625C
:10E0500017CEFFFFFFFFDFFFFFFFFFFFFFFFFFFF09
:10E06000FFFFFFFFFFFFFFFFFFFFFFFFFFFFFFFFC0
:10E07000FFFFFFFFFFFFFFFFFFFFFFFFFFFFFFFFB0
:10E08000FFFFFFFFFFFFFFFFFFFFFFFFFFFFFFFFA0
:10E09000FFFFFFFFFFFFFFFFFFFFFFFFFFFFFFFF90
:10E0A000FFFFFFFFFFFFFFFFFFFFFFFFFFFFFFFF80
:10E0B000FFFFFFFFFFFFFFFFFFFFFFFFFFFFFFFF70
:10E0C000FFFFFFFFFFFFFFFFFFFFFFFFFFFFFFFF60
:10E0D000FFFFFFFFFFFFFFFFFFFFFFFFFFFFFFFF50
:10E0E000FFFFFFFFFFFFFFFFFFFFFFFFFFFFFFFF40
:10E0F000FFFFFFFFFFFFFFFFFFFFFFFFFFFFFFFF30
:10E10000FFFFFFFFFFFFFFFFFFFFFFFFFFFFFFFF1F
:10E11000FFFFFFFFFFFFFFFFFFFFFFFFFFFFFFFF0F
:10E12000FFFFFFFFFFFFFFFFFFFFFFFFFFFFFFFFFF
:10E13000FFFFFFFFFFFFFFFFFFFFFFFFFFFFFFFFEF
:10E14000FFFFFFFFFFFFDFFFFFFFFFFFFFFFFEFF00
:10E15000FEFFD9DECD83087B2FC56FCDCA9BA99367
:10E160004B9C0552295278D6DEFFFFFFFFFFFFFFD1
:10E17000FFF7FFFFFFFFFFFFFFFFFFFFFFFFFFFFB7
:10E18000FFFFFFFFFFFFFFFFFFFF99D6064AA85AD8
:10E19000885AC96AC9622A7B6B7BCC932DA46BAC6D
:10E1A0008BB46BB46CB4ADB46CAC6CAC8CB4EDBC77
:10E1B0000EC50AA490D50DBDEDBC4BAC688BE77ABB
:10E1C0000CA48EAC698BC5498439A539A539A5390C
:10E1D000E641C641C541A441A541C541064A264A7A
:10E1E000274A474AC962885A8852E64129734CAC8B
:10E1F0002BAC4BACAEB4CCB48CACE4518028C76A29
:10E20000CB93AA8B8A8BCA93A9932BA42BA4ADB4CE
:10E21000EEBC2EC5CCBCCCB4ACB4EA9B4CACACB41C
:10E220004AAC8CB40CA42AA46CAC2BA42CA40C9CDB
:10E230002D9CCB93AB8B297BA86A685AB29CFFFFBD
:10E240009EF7FFFFFFFFFFFFFFFFFFFFFFFFFFFF47
:10E25000FFFFFFFFFFFFFFFFFFFFFFFFFFFFFFFFCE
:10E26000FFFFFFFFFFFFFFFFFFFFFFFFFFFFFFFFBE
:10E27000FFFFFFFFFFFFFFFFFFFFFFFFFFFFFFFFAE
:10E28000FFFFFFFFFFFFFFFFFFFFFFFFFFFFFFFF9E
:10E29000FFFFFFFFFFFFFFFFFFFFFFFFFFFFFFFF8E
:10E2A000FFFFFFFFFFFFFFFFFFFFFFFFFFFFFFFF7E
:10E2B000FFFFFFFFFFFFFFFFFFFFFFFFFFFFFFFF6E
:10E2C000FFFFFFFFFFFFFFFFFFFFFFFFFFFFFFFF5E
:10E2D000FFFFFFFFFFFFFFFFFFFFFFFFFFFFFFFF4E
:10E2E000FFFFFFFFFFFFFFFFFFFFFFFFFFFFFFFF3E
:10E2F000FFFFFFFFFFFFFFFFFFFFFFFFFFFFFFFF2E
:10E30000FFFFFFFFFFFFFFFFFFFFFFFFFFFFFFFF1D
:10E31000FFFFFFFFFFFFFFFFFFFFFFFFFFFFFFFF0D
:10E32000FFFFFFFFFFFFFFFFFFFFFFFFFFFFFFFFFD
:10E33000FFFFFFFFFFFFFFFFFFFFFEFFBDFFF9EE47
:10E34000CFAC213981510EBDCDB4055A297BCA838A
:10E3500011ADDFFFDEFFFFFFFFFFDFF7FFFFFFFF76
:10E36000FFFFDEFFFFFFFFFFFFFFFFFFFFFFFFFFDE
:10E37000FFFFFFFFFFFFFFFFFEFF6852885AA85A0A
:10E38000A862A96229736B7BCC8B0B9C8BACCCBC39
:10E390004BAC6CB46BB48CB44BAC8CB42FC5888BC9
:10E3A000C030277BD0E50DC56BB40AA4A9936DA43A
:10E3B000AB8BC451C541C541A539232923298539D2
:10E3C0008441A441E641C641853944316439895AC2
:10E3D000685207424752885A4752EC930AA4E9AB65
:10E3E0006BB40FBDECB46CA46662834108738A8B76
:10E3F000AA8B8B93AA93AA938A93656A27830BA40B
:10E400006CB40AA44AAC278B6572CA9BACBC4AACFC
:10E410008BB4ADBCCDBC6CB42BA48DAC2C9CAB939D
:10E42000297B297B886A0A730B6BDEFFFFFFFFFFE6
:10E430009DEFFFFFFFFFFFFFFFFFFFFFFFFFFFFF5E
:10E44000FFFFFFFFFFFFFFFFFFFFFFFFFFFFFFFFDC
:10E45000FFFFFFFFFFFFFFFFFFFFFFFFFFFFFFFFCC
:10E46000FFFFFFFFFFFFFFFFFFFFFFFFFFFFFFFFBC
:10E47000FFFFFFFFFFFFFFFFFFFFFFFFFFFFFFFFAC
:10E48000FFFFFFFFFFFFFFFFFFFFFFFFFFFFFFFF9C
:10E49000FFFFFFFFFFFFFFFFFFFFFFFFFFFFFFFF8C
:10E4A000FFFFFFFFFFFFFFFFFFFFFFFFFFFFFFFF7C
:10E4B000FFFFFFFFFFFFFFFFFFFFFFFFFFFFFFFF6C
:10E4C000FFFFFFFFFFFFFFFFFFFFFFFFFFFFFFFF5C
:10E4D000FFFFFFFFFFFFFFFFFFFFFFFFFFFFFFFF4C
:10E4E000FFFFFFFFFFFFFFFFFFFFFFFFFFFFFFFF3C
:10E4F000FFFFFFFFFFFFFFFFFFFFFFFFFFFFFFFF2C
:10E50000FFFFFFFFFFFFFFFFFFFFFFFFFFFFFFFF1B
:10E51000FFFFFFFFFFFFFFFFFFFFFFFFFFFFFFFF0B
:10E52000FFFFFFFFFFFFFFFFDEFF77DE11B5EB937D
:10E53000E351CA9B6FCD856A6020C962D6DEFDFFBC
:10E54000BFFFFFFFFFFFFFFFFFFFFFFFFFFFFFFF1B
:10E55000FFFFFFFFFFFFFFFFFFFFFFFFFFFFFFFFCB
:10E56000FFFFFFFFFFFFBEFF4B6B8852A85A4752C9
:10E57000E96AE9726B7BAB8BCA93ACB40DC56BB423
:10E58000ADBC6BBC8BBC6BB42AA4ADB4EEB4277B22
:10E59000CDAC8FDD4ED56AB429A42BA4CB93055AFC
:10E5A0008441A539E641A539E2204431E649C5490F
:10E5B000C549A541074AE64965394C739DFF7CF77B
:10E5C000CE83064AA95A675A0C9CEAA34BBC4AB4AC
:10E5D000EA9BABAC888BAB8B0D948A83A66A2983AC
:10E5E0004A836A8B8A8BCB9B498B0BA40BA40BA40D
:10E5F0004CAC0AAC4CB42CAC6CB4ABB48AB4CCBC50
:10E600008CB46BAC6CAC4BA44CA40B9C0C9C6B837F
:10E61000C972C972EA727DF7FFFFFFFFFFF7FFFFC4
:10E62000FEFFFFFFFFFFFFFFFFFFFFFFFFFFFFFFFB
:10E63000FFFFFFFFFFFFFFFFFFFFFFFFFFFFFFFFEA
:10E64000FFFFFFFFFFFFFFFFFFFFFFFFFFFFFFFFDA
:10E65000FFFFFFFFFFFFFFFFFFFFFFFFFFFFFFFFCA
:10E66000FFFFFFFFFFFFFFFFFFFFFFFFFFFFFFFFBA
:10E67000FFFFFFFFFFFFFFFFFFFFFFFFFFFFFFFFAA
:10E68000FFFFFFFFFFFFFFFFFFFFFFFFFFFFFFFF9A
:10E69000FFFFFFFFFFFFFFFFFFFFFFFFFFFFFFFF8A
:10E6A000FFFFFFFFFFFFFFFFFFFFFFFFFFFFFFFF7A
:10E6B000FFFFFFFFFFFFFFFFFFFFFFFFFFFFFFFF6A
:10E6C000FFFFFFFFFFFFFFFFFFFFFFFFFFFFFFFF5A
:10E6D000FFFFFFFFFFFFFFFFFFFFFFFFFFFFFFFF4A
:10E6E000FFFFFFFFFFFFFFFFFFFFFFFFFFFFFFFF3A
:10E6F000FFFFFFFFFFFFFFFFFFFFFFFFFFFFFFFF2A
:10E70000FFFFDFFFFFFFBEF7FFFFFFFFFFFFFEFF83
:10E71000FFF7FFFF9FFF6F8322312EB5ADD5CBC42E
:10E720008CC4CDBC455AA539BAD6FFFFFFFFDFFF29
:10E73000FFFFFFFFFFFFFFFFFFFFFFFFFFFFFFFFE9
:10E74000FFFFFFFFFFFFFFFFFFFFFFFFFFFFFFFFD9
:10E75000FFFFFFFFFFFFB5BD6752685A4752CA620D
:10E76000096B6C7B485AA02069830EBDECB4ACB435
:10E77000ECA3AA936DB46BAC6AAC0CC5CEDDCEDD58
:10E78000AEDD6DCDABBC8CB4CA9BA76AE649C64969
:10E79000C541C541C541C541C541C641C641C54147
:10E7A000E6410742E641C6416C73DEFFFFFFFFFF13
:10E7B000BAD6084A0752ECA3A89B8CB40A7B463908
:10E7C0002AACC99BAEAC0C8CA85A6852A962A8624C
:10E7D000E96AAC83EC8BCB8B0B9C2BA42AA46BAC8F
:10E7E000ACB4CDBC8CB4ADB4ACB48BB4EDBCCDBCCE
:10E7F0004CAC4CACAA93CB93AB8B4A83297B2A7B42
:10E8000092941CE7FFFFFFFFFFFFFFFFFFFFFFFFEB
:10E81000FFFFFFFFFFFFFFFFFFFFFFFFFFFFFFFF08
:10E82000FFFFFFFFFFFFFFFFFFFFFFFFFFFFFFFFF8
:10E83000FFFFFFFFFFFFFFFFFFFFFFFFFFFFFFFFE8
:10E84000FFFFFFFFFFFFFFFFFFFFFFFFFFFFFFFFD8
:10E85000FFFFFFFFFFFFFFFFFFFFFFFFFFFFFFFFC8
:10E86000FFFFFFFFFFFFFFFFFFFFFFFFFFFFFFFFB8
:10E87000FFFFFFFFFFFFFFFFFFFFFFFFFFFFFFFFA8
:10E88000FFFFFFFFFFFFFFFFFFFFFFFFFFFFFFFF98
:10E89000FFFFFFFFFFFFFFFFFFFFFFFFFFFFFFFF88
:10E8A000FFFFFFFFFFFFFFFFFFFFFFFFFFFFFFFF78
:10E8B000FFFFFFFFFFFFFFFFFFFFFFFFFFFFFFFF68
:10E8C000FFFFFFFFFFFFFFFFFFFFFFFFFFFFFFFF58
:10E8D000FFFFFFFFFFFFFFFFFFFFFFFFFFFFFFFF48
:10E8E000FFFFFFFFFFFFFFFFFFFFFFFFFFFFFFFF38
:10E8F000FFFF9EF7FFFFDFF7BEF7FFFFFFFFFFFF02
:10E900003BF70C942039C56A4DBD6ECD4CBC0683D7
:10E91000AA93D0AC37CEFFFFDFFFFFFFFFFFFFFF63
:10E92000FFFFFFFFFFFFFFFFFFFFFFFFFFFFFFFFF7
:10E93000FFFFFFFFFFFFFFFFFFFFFFFFFFFFDFFF07
:10E94000FFFFFEFFB5BD0642022964392752E86287
:10E950002B73475A6341AA8BCDB4CCB4ACB4456A8F
:10E960000141AB9B2CAC2BAC0EC5EDC48FD52DC596
:10E970006ECDECBCACB4698B465A8541C641A5410D
:10E98000C541C541E641064AE641E641E641074246
:10E99000274AE641C6412B6BFFFFFFFFFFFFFFFF4A
:10E9A000D6C5C972EA9B09A48BB4688325524AB4C0
:10E9B000CDBCCFB4E86A6752885A47524752675A6B
:10E9C000C86229738A83EB930B9C2BA42BA44CA4C1
:10E9D0002BA44BA46CAC4CA48DAC8DB4CA93AA935D
:10E9E000CB936A83297B2973C86A4A7B32B5BEF709
:10E9F000FFFFFFFFFFFFFFFFFFFFFFFFFFFFFFFF27
:10EA0000FFFFFFFFFFFFFFFFFFFFFFFFFFFFFFFF16
:10EA1000FFFFFFFFFFFFFFFFFFFFFFFFFFFFFFFF06
:10EA2000FFFFFFFFFFFFFFFFFFFFFFFFFFFFFFFFF6
:10EA3000FFFFFFFFFFFFFFFFFFFFFFFFFFFFFFFFE6
:10EA4000FFFFFFFFFFFFFFFFFFFFFFFFFFFFFFFFD6
:10EA5000FFFFFFFFFFFFFFFFFFFFFFFFFFFFFFFFC6
:10EA6000FFFFFFFFFFFFFFFFFFFFFFFFFFFFFFFFB6
:10EA7000FFFFFFFFFFFFFFFFFFFFFFFFFFFFFFFFA6
:10EA8000FFFFFFFFFFFFFFFFFFFFFFFFFFFFFFFF96
:10EA9000FFFFFFFFFFFFFFFFFFFFFFFFFFFFFFFF86
:10EAA000FFFFFFFFFFFFFFFFFFFFFFFFFFFFFFFF76
:10EAB000FFFFFFFFFFFFFFFFFFFFFFFFFFFFFFFF66
:10EAC000FFFFFFFFFFFFFFFFFFFFFFFFFFFFFFFF56
:10EAD000FFFFFFFFFFFFFFFFFFFFFFFFFFFFFFFF46
:10EAE000FFFFDFF7FFFFFFFFFFFFBFF77ADE0FB586
:10EAF0002CBD4DC50EB50EB5EEBC8993C76A72BD6F
:10EB00009CFFFFFFFFFFDFFFFFFFDFFFFFFFFFFFB8
:10EB1000FFFFFFFFFFFFFFFFFFFFFFFFFFFFFFFF05
:10EB2000FFFFFFFFFFFFFFFFFFFFFFFFDFFFFFFF15
:10EB3000DEFF3BEFEA6243316439A962C7626B834F
:10EB40006C836B834CA48BAC8BB4ACB48A9365722E
:10EB5000EA9B2BA40BA4ADB42FCDD0DD4EC511DEA6
:10EB60008FCD8CAC656226528539C2208439A5418F
:10EB7000C541E641064AC641A539E641E641064A95
:10EB8000C541C541895AFFFFDFFFFFFFDFFFFAEEF6
:10EB900089832AA42AA4CDB48BACE78BCDBCCEB498
:10EBA0002D9CE549474A885A4852885A685A475224
:10EBB000675AC86A297B6A83AA8B8A8B69836983AF
:10EBC000CB8B8A8B8A8BAB8B297B097B297BE86A71
:10EBD000C86AE96A6B73F2A457D6FEFFFFFFFFFF16
:10EBE000DFFFFFFFFFFFFFFFDFFFFFFFFFFFFFFF75
:10EBF000FFFFFFFFFFFFFFFFFFFFFFFFFFFFFFFF25
:10EC0000FFFFFFFFFFFFFFFFFFFFFFFFFFFFFFFF14
:10EC1000FFFFFFFFFFFFFFFFFFFFFFFFFFFFFFFF04
:10EC2000FFFFFFFFFFFFFFFFFFFFFFFFFFFFFFFFF4
:10EC3000FFFFFFFFFFFFFFFFFFFFFFFFFFFFFFFFE4
:10EC4000FFFFFFFFFFFFFFFFFFFFFFFFFFFFFFFFD4
:10EC5000FFFFFFFFFFFFFFFFFFFFFFFFFFFFFFFFC4
:10EC6000FFFFFFFFFFFFFFFFFFFFFFFFFFFFFFFFB4
:10EC7000FFFFFFFFFFFFFFFFFFFFFFFFFFFFFFFFA4
:10EC8000FFFFFFFFFFFFFFFFFFFFFFFFFFFFFFFF94
:10EC9000FFFFFFFFFFFFFFFFFFFFFFFFFFFFFFFF84
:10ECA000FFFFFFFFFFFFFFFFFFFFFFFFFFFFFFFF74
:10ECB000FFFFFFFFFFFFFFFFFFFFFFFFFFFFFFFF64
:10ECC000FFFFFFFFFFFFFFFFFFFFFFFFFFFFFFFF54
:10ECD000FFFFFFFFDEFF79D68B52C1308AAC8CD5A7
:10ECE000EDBC63494339297B067BF2A49CF7FFFF07
:10ECF000DEF7DFF7FFFFFFFFFFFFFFFFFFFFFFFF75
:10ED0000FFFFFFFFFFFFFFFFFFFFFFFFFFFFFFFF13
:10ED1000FFFFFFFFFFFFFFFFFFFFFFFFDFFFFFFF23
:10ED2000DEFF99DEEA62885A685A8662C96A0A7BFF
:10ED3000AC8B0B9C8BAC8BB46BB44BA46AA48AAC2D
:10ED400049A44BAC8BB42EC54DCD11DE299C888BCC
:10ED5000CEB4A76AE551A5416431C541E649E6490B
:10ED6000064A064A853943298539274A4752074AC0
:10ED7000074A4852FFFFFFFFFFFFFFFF93BDE993E4
:10ED80004BAC8A93AEB4B0D56CC52783656209736A
:10ED90004852A852264206422852274A6852885AA8
:10EDA000685A675A8762A86AA86AE86A6A7BC86272
:10EDB000E96AC96A675ACA6A485A6752A85A4B73BD
:10EDC000D1A47CF7DEFFFFFFFFFFFFFFFFFFFFFF88
:10EDD000FFFFFFFFFFFFFFFFFFFFFFFFFFFFFFFF43
:10EDE000FFFFFFFFFFFFFFFFFFFFFFFFFFFFFFFF33
:10EDF000FFFFFFFFFFFFFFFFFFFFFFFFFFFFFFFF23
:10EE0000FFFFFFFFFFFFFFFFFFFFFFFFFFFFFFFF12
:10EE1000FFFFFFFFFFFFFFFFFFFFFFFFFFFFFFFF02
:10EE2000FFFFFFFFFFFFFFFFFFFFFFFFFFFFFFFFF2
:10EE3000FFFFFFFFFFFFFFFFFFFFFFFFFFFFFFFFE2
:10EE4000FFFFFFFFFFFFFFFFFFFFFFFFFFFFFFFFD2
:10EE5000FFFFFFFFFFFFFFFFFFFFFFFFFFFFFFFFC2
:10EE6000FFFFFFFFFFFFFFFFFFFFFFFFFFFFFFFFB2
:10EE7000FFFFFFFFFFFFFFFFFFFFFFFFFFFFFFFFA2
:10EE8000FFFFFFFFFFFFFFFFFFFFFFFFFFFFFFFF92
:10EE9000FFFFFFFFFFFFFFFFFFFFFFFFFFFFFFFF82
:10EEA000FFFFFFFFFFFFFFFFFFFFFFFFFFFFFFFF72
:10EEB000FFFFFFFFFFFFFFFFFFFFDFF7FFF7FFFF92
:10EEC000FDFFB8EE44312000E3382AA4ADD5889385
:10EED00061282118233136D6DEFFFFFFFFFFFFFF39
:10EEE000FFFFFFFFFFFFDFFFFFFFFFFFFFFFFFFF52
:10EEF000FFFFFFFFFFFFFFFFFFFFFFFFFFFFFFFF22
:10EF0000FFFFFFFFFFFFFFFFFFFFFFFFDFFFFFFF31
:10EF10009DF72F8C6852885AC76AC86A0A7B2A8371
:10EF200069834BA48CB48CB4ACB449A448A4089CA9
:10EF30008CB4ADB4EDBC4DC5AFCD836AC1596DA4E1
:10EF4000E8720552E5412642064A2752274A4752AF
:10EF50004852E641A5390642685268524752685203
:10EF600048527DF7DEFFFFFFFFFF0D94E99B899379
:10EF7000E559E5596DAC4ECDC99304522752074A65
:10EF80002742C5390642E741695269524852485200
:10EF9000885A2752064A485A264A264A274AE641AC
:10EFA00027522852C64149526852C9622B6BDEFF74
:10EFB000FFFFFFFFFFFFFFFFFFFFFFFFFFFFFFFF61
:10EFC000FFFFFFFFFFFFFFFFFFFFFFFFFFFFFFFF51
:10EFD000FFFFFFFFFFFFFFFFFFFFFFFFFFFFFFFF41
:10EFE000FFFFFFFFFFFFFFFFFFFFFFFFFFFFFFFF31
:10EFF000FFFFFFFFFFFFFFFFFFFFFFFFFFFFFFFF21
:10F00000FFFFFFFFFFFFFFFFFFFFFFFFFFFFFFFF10
:10F01000FFFFFFFFFFFFFFFFFFFFFFFFFFFFFFFF00
:10F02000FFFFFFFFFFFFFFFFFFFFFFFFFFFFFFFFF0
:10F03000FFFFFFFFFFFFFFFFFFFFFFFFFFFFFFFFE0
:10F04000FFFFFFFFFFFFFFFFFFFFFFFFFFFFFFFFD0
:10F05000FFFFFFFFFFFFFFFFFFFFFFFFFFFFFFFFC0
:10F06000FFFFFFFFFFFFFFFFFFFFFFFFFFFFFFFFB0
:10F07000FFFFFFFFFFFFFFFFFFFFFFFFFFFFFFFFA0
:10F08000FFFFFFFFFFFFFFFFFFFFFFFFFFFFFFFF90
:10F09000FFFFFFFFFFFFFFFFFFFFFFFFFFFFFFFF80
:10F0A000FFFFFFFFFFFFFFFFFFFFFFFFBDFF14DEBE
:10F0B0008EB46A83843164202DA4CABCACB4854963
:10F0C00046315EF7BFFFFFFFDFFFDFFFFFFFFFFF00
:10F0D000FFFFFFFFFFFFFFFFFFFFFFFFFFFFFFFF40
:10F0E000FFFFFFFFFFFFFFFFFFFFFFFFFFFFFFFF30
:10F0F000FFFFFFFFFFFFFFFFDFFFFFFF7EF7FFFFC9
:10F10000919C885A885A865AC8622B7B2A7B6983CD
:10F110004BA4ADB42BA40D9C2CA42AA44BA4498BC6
:10F120000562EBA30EC5CFD50DC56CAC8EB4A76A36
:10F13000465A264AC441274A475247526852885A7B
:10F140004752274A6852475247522752685A895AAB
:10F1500099DEDFFFDFFFBEFF0D944BAC0AA4C77240
:10F16000023929834BB40FB52E9C4D73494A47424F
:10F170004742484A094A0742684A6952484AE741B1
:10F18000A6390B6B34ADB6BD6952E741E741A539ED
:10F19000274A074A484A274AA95A68525BEFBEF7EE
:10F1A000FFFFDFF7FFFFFFFFDFFFFFFFFFFFFFFFB7
:10F1B000FFFFFFFFFFFFFFFFFFFFFFFFFFFFFFFF5F
:10F1C000FFFFFFFFFFFFFFFFFFFFFFFFFFFFFFFF4F
:10F1D000FFFFFFFFFFFFFFFFFFFFFFFFFFFFFFFF3F
:10F1E000FFFFFFFFFFFFFFFFFFFFFFFFFFFFFFFF2F
:10F1F000FFFFFFFFFFFFFFFFFFFFFFFFFFFFFFFF1F
:10F20000FFFFFFFFFFFFFFFFFFFFFFFFFFFFFFFF0E
:10F21000FFFFFFFFFFFFFFFFFFFFFFFFFFFFFFFFFE
:10F22000FFFFFFFFFFFFFFFFFFFFFFFFFFFFFFFFEE
:10F23000FFFFFFFFFFFFFFFFFFFFFFFFFFFFFFFFDE
:10F24000FFFFFFFFFFFFFFFFFFFFFFFFFFFFFFFFCE
:10F25000FFFFFFFFFFFFFFFFFFFFFFFFFFFFFFFFBE
:10F26000FFFFFFFFFFFFFFFFFFFFFFFFFFFFFFFFAE
:10F27000FFFFFFFFFFFFFFFFFFFFFFFFFFFFFFFF9E
:10F28000FFFFFFFFFFFFFFFFFFFFFFFFFFFFFFFF8E
:10F29000FFFFFFFFDFFFFFFFBAD6ED8B8CB4EDC49D
:10F2A000B1CD8652221008736BA40B9CF6CDDEFF05
:10F2B000FFFFFFFFDFFFFFFFFFFFBEF7DFFFFFFFE7
:10F2C000FFFFFFFFFFFFFFFFFFFFFFFFFFFFFFFF4E
:10F2D000FFFFFFFFFFFFFFFFFFFFFFFFFFFFFFFF3E
:10F2E000FFFFFFFFFFFFFFFFBFFFFFFFFFFFFBE68B
:10F2F000885A4752A75A885AE64926528A830B9C55
:10F300002CA4656A0341698B2AA48DB4C87AC138DC
:10F31000AA930DC54DCDD0DDB0D58EB44662C45193
:10F3200025524552475247524752685268524852F6
:10F33000474A48526852685AA962C962EA62B5BD32
:10F34000FFFFFFFFDADE6A83EAA36BB4EDB4C98B7B
:10F350004BAC8CC470BD7BFFFFFFDFFFFEFFFDFFEA
:10F36000DEFFDFFFFEFFDEFFBEF7FFFFFFFFBEFF9A
:10F37000BEFFFFFFDFFFBADE695244298852E64133
:10F3800006428852885AC962885A0B6B9DF7FFFF64
:10F39000FFFFFFFFFFFFFFFFFFFFFFFFFFFFFFFF7D
:10F3A000FFFFFFFFFFFFFFFFFFFFFFFFFFFFFFFF6D
:10F3B000FFFFFFFFFFFFFFFFFFFFFFFFFFFFFFFF5D
:10F3C000FFFFFFFFFFFFFFFFFFFFFFFFFFFFFFFF4D
:10F3D000FFFFFFFFFFFFFFFFFFFFFFFFFFFFFFFF3D
:10F3E000FFFFFFFFFFFFFFFFFFFFFFFFFFFFFFFF2D
:10F3F000FFFFFFFFFFFFFFFFFFFFFFFFFFFFFFFF1D
:10F40000FFFFFFFFFFFFFFFFFFFFFFFFFFFFFFFF0C
:10F41000FFFFFFFFFFFFFFFFFFFFFFFFFFFFFFFFFC
:10F42000FFFFFFFFFFFFFFFFFFFFFFFFFFFFFFFFEC
:10F43000FFFFFFFFFFFFFFFFFFFFFFFFFFFFFFFFDC
:10F44000FFFFFFFFFFFFFFFFFFFFFFFFFFFFFFFFCC
:10F45000FFFFFFFFFFFFFFFFFFFFFFFFFFFFFFFFBC
:10F46000FFFFFFFFFFFFFFFFFFFFFFFFFFFFFFFFAC
:10F47000FFFFFFFFFFFFFFFFFFFFFFFFFFFFFFFF9C
:10F48000FFFFDFFF96B5200062394ED5EBCC0DC5EE
:10F49000A1398008E762EFB4BDFFDFFFFFFFFEFF89
:10F4A000FEFFFFFFBEFFFFFFFFFFFFFFFFFFFFFFAE
:10F4B000FFFFFFFFFFFFFFFFFFFFFFFFFFFFFFFF5C
:10F4C000FFFFFFFFFFFFFFFFFFFFFFFFFFFFFFFF4C
:10F4D000FFFFFFFFFFFFFFFFFFFFBEFFBDFFC96292
:10F4E000C862E862885AE22823314A7BEB93CFB4A2
:10F4F000866A2662EA9B8BAC0A9C0CA4EC9BADB49A
:10F500006DC56DCDAFD570D54DAC2562C351665A72
:10F510006552064A274A475268526852895AA95A80
:10F52000895A895AC9624B732B73EA62B19CFFFFF7
:10F53000FFFF1AE7AB8B6CB4ABBC0BB54CB54CC53D
:10F540008EE5B2C5FDFFDFFFFFFFFFFFFDFFDEFF22
:10F55000DFFFFEFFFFFFFFFFFFFFFFFFFFFFFFFFDC
:10F56000FFFFFFFFFFFF9DF7AE7B4329264A674A57
:10F570002542465A675AAC836C7BD2A4DEFFFFFF5C
:10F58000FFFFFFFFFFFFFFFFDFFFFFFFFFFFDFFFCB
:10F59000FFFFFFFFFFFFFFFFFFFFFFFFFFFFFFFF7B
:10F5A000FFFFFFFFFFFFFFFFFFFFFFFFFFFFFFFF6B
:10F5B000FFFFFFFFFFFFFFFFFFFFFFFFFFFFFFFF5B
:10F5C000FFFFFFFFFFFFFFFFFFFFFFFFFFFFFFFF4B
:10F5D000FFFFFFFFFFFFFFFFFFFFFFFFFFFFFFFF3B
:10F5E000FFFFFFFFFFFFFFFFFFFFFFFFFFFFFFFF2B
:10F5F000FFFFFFFFFFFFFFFFFFFFFFFFFFFFFFFF1B
:10F60000FFFFFFFFFFFFFFFFFFFFFFFFFFFFFFFF0A
:10F61000FFFFFFFFFFFFFFFFFFFFFFFFFFFFFFFFFA
:10F62000FFFFFFFFFFFFFFFFFFFFFFFFFFFFFFFFEA
:10F63000FFFFFFFFFFFFFFFFFFFFFFFFFFFFFFFFDA
:10F64000FFFFDFFFFFFFFFFFFFFFFFFFFFFFFFFFEA
:10F65000BFFFFFFFFFFFFFFFFFFFFFFFFFFFDEFF1B
:10F66000DFFFFFFFFFFFFFF7FFF7FFFFFEFFFCFFDE
:10F67000D1C56239E1300C9C8FD54DCDCDBC6251E6
:10F680004431B1A47DF7FFFFFFFFFFFFFFFFFFFF46
:10F69000FFFFFFFFFFFFFFFFFFFFFFFFFFFFFFFF7A
:10F6A000FFFFFFFFFFFFFFFFFFFFFFFFFFFFFFFF6A
:10F6B000FFFFFFFFFFFFFFFFFFFFFFFFFFFFFFFF5A
:10F6C000DFFFFFFFFFFFFFFFFFFF7DF7685247529D
:10F6D000685AC962E5498862AB83CB938DACEEBCB6
:10F6E000EEC48BB48AAC4AACEA9B0BA4CCBC4DCD27
:10F6F0004EC5AFD54DC5E99BA7726762675AC76211
:10F70000CA83697B697B69838B83C96A895A895AF1
:10F71000CA62E96A4A73096BC8624B73DFFFDFFF95
:10F72000F1C46CACACB42CA4EEB44CC56DCDB1E559
:10F73000FFFFFFFFFFFFFFFFFFFFFFFFFFFFFFFFD9
:10F74000FFFFFFFFFFFFFFFFFFFFFFFFFFFFFFFFC9
:10F75000FEFFFFFFDFFFFFFF7194C641274AC53957
:10F76000274A2A6B8B7B8B83CC8B98DEFEFFDEFFD8
:10F77000FFFFFFFFFFFFFFFFFFFFFFFFFFFFFFFF99
:10F78000FFFFFFFFFFFFFFFFFFFFFFFFFFFFFFFF89
:10F79000FFFFFFFFFFFFFFFFFFFFFFFFFFFFFFFF79
:10F7A000FFFFFFFFFFFFFFFFFFFFFFFFFFFFFFFF69
:10F7B000FFFFFFFFFFFFFFFFFFFFFFFFFFFFFFFF59
:10F7C000FFFFFFFFFFFFFFFFFFFFFFFFFFFFFFFF49
:10F7D000FFFFFFFFFFFFFFFFFFFFFFFFFFFFFFFF39
:10F7E000FFFFFFFFFFFFFFFFFFFFFFFFFFFFFFFF29
:10F7F000FFFFFFFFFFFFFFFFFFFFFFFFFFFFFFFF19
:10F80000FFFFFFFFFFFFFFFFFFFFFFFFFFFFFFFF08
:10F81000FFFFFFFFFFFFFFFFFFFFFFFFFFFFFFFFF8
:10F82000FFFFFFFFFFFFFFFFFFFFFFFFFFFFDFFF08
:10F83000DFFFFFFFFFFFFFFFFFFFFFFFFFFFFFFFF8
:10F84000FFFFFFFFFFFFFFFFFFFFFFFFFFFFDFFFE8
:10F85000FFFFFFFFFFFFFFFF1CE713AD12AD0DB56C
:10F86000CFB4AC93AB936CA46BAC6CAC6B8BD6C5C8
:10F870005CF7FFFFFFFFFFFFFFFFFFFFFFFFFFFF43
:10F88000FFFFFFFFFFFFFFFFFFFFFFFFFFFFFFFF88
:10F89000FFFFFFFFFFFFFFFFFFFFFFFFFFFFFFFF78
:10F8A000FFFFFFFFFFFFFFFFFFFFFFFFFFFFFFFF68
:10F8B000FFFFFFFFFFFFDFFFDEFFA95AA539C96287
:10F8C000A862A862E96A2973EB93CEBC6CB4ACB4AD
:10F8D000ECBCAAB44AAC0BA40BA42CACADB40DC5C3
:10F8E0008ED5AFD5C99366628862876209734D9CD5
:10F8F000AEA410B5CFAC8EA40D944B7B475A4852A2
:10F900000A6B296B096BE862C9625DF7DFFFB0B46F
:10F910002BA48CAC077BE67A69A42DC5CEBCFFFF77
:10F92000FFFFFFFFFFFFFFFFFFFFFFFFFFFFFFFFE7
:10F93000FFFFFFFFFFFFFFFFFFFFFFFFFFFFFFFFD7
:10F94000FFFFFFFFDFFFFFFFD6BD68526852EA628C
:10F95000C9620973255A0D9CD1ACFEFFFFFFFFFF62
:10F96000FFFFFFFFFFFFFFFFFFFFFFFFFFFFFFFFA7
:10F97000FFFFFFFFFFFFFFFFFFFFFFFFFFFFFFFF97
:10F98000FFFFFFFFFFFFFFFFFFFFFFFFFFFFFFFF87
:10F99000FFFFFFFFFFFFFFFFFFFFFFFFFFFFFFFF77
:10F9A000FFFFFFFFFFFFFFFFFFFFFFFFFFFFFFFF67
:10F9B000FFFFFFFFFFFFFFFFFFFFFFFFFFFFFFFF57
:10F9C000FFFFFFFFFFFFFFFFFFFFFFFFFFFFFFFF47
:10F9D000FFFFFFFFFFFFFFFFFFFFFFFFFFFFFFFF37
:10F9E000FFFFFFFFFFFFFFFFFFFFFFFFFFFFFFFF27
:10F9F000FFFFFFFFFFFFFFFFFFFFFFFFFFFFFFFF17
:10FA0000FFFFFFFFFFFFFFFFFFFFFFFFFFFFFFFF06
:10FA1000FFFFFFFFFFFFFFFFFFFFFFFFFFFFFFFFF6
:10FA2000FFFFFFFFFFFFFFFFFFFFFFFFFFFFFFFFE6
:10FA3000DFFFDFFFFFFFFFFFFFFFFFFFFFFFDEFF37
:10FA4000FEFFFEFF95BD04318220E7498AB450CD08
:10FA5000A872C028A020C662AFA4F6D5FFFFFFFFA2
:10FA6000FFFFDEFFFFFFFFFFFFFFFFFFFFFFFFFFC7
:10FA7000FFFFFFFFFFFFFFFFFFFFFFFFFFFFFFFF96
:10FA8000FFFFFFFFFFFFFFFFFFFFFFFFFFFFFFFF86
:10FA9000FFFFFFFFFFFFFFFFFFFFFFFFFFFFDFFF96
:10FAA000FFFFDFFFFFFFFFFFEE834752A862885A88
:10FAB000A862A8620973EB93ADB4CEBC6FC52DC527
:10FAC000AAB449B44BB42DAC66726028879B10E68B
:10FAD000CDB475DEB4C5EA6AC86AE8720D940D9CAF
:10FAE000AFAC8EAC8EAC6EA44D9C6A7B47524B7310
:10FAF0004A738B7B6A73EA62DBE69EFF6B83CEAC54
:10FB00000EBD8893C57A6AA44FBD93C5FFFFFFFF62
:10FB1000FFFFFFFFFFFFFFFFFFFFFFFFFFFFFFFFF5
:10FB2000FFFFFFFFFFFFFFFFFFFFFFFFFFFF9EEF56
:10FB3000FFFFFFFFFFFFFFFF7CF7A95AC95A2A7397
:10FB4000E8728A934DA4D0ACDEFFFFFFFFFFFFFFFA
:10FB5000FFFFFFFFFFFFFFFFFFFFFFFFFFFFFFFFB5
:10FB6000FFFFFFFFFFFFFFFFFFFFFFFFFFFFFFFFA5
:10FB7000FFFFFFFFFFFFFFFFFFFFFFFFFFFFFFFF95
:10FB8000FFFFFFFFFFFFFFFFFFFFFFFFFFFFFFFF85
:10FB9000FFFFFFFFFFFFFFFFFFFFFFFFFFFFFFFF75
:10FBA000FFFFFFFFFFFFFFFFFFFFFFFFFFFFFFFF65
:10FBB000FFFFFFFFFFFFFFFFFFFFFFFFFFFFFFFF55
:10FBC000FFFFFFFFFFFFFFFFFFFFFFFFFFFFFFFF45
:10FBD000FFFFFFFFFFFFFFFFFFFFFFFFFFFFFFFF35
:10FBE000FFFFFFFFFFFFFFFFFFFFFFFFFFFFFFFF25
:10FBF000FFFFFFFFFFFFFFFFFFFFFFFFFFFFFFFF15
:10FC0000FFFFFFFFFFFFFFFFFFFFFFFFFFFFFFFF04
:10FC1000FFFFFFFFFFFFFFFFFFFFFFFFFFFFFFFFF4
:10FC2000FFFFFFFFBEF7FFFFDFFFDEF75BF7B7E683
:10FC3000EFB4866A602081208118E48A0FC5834969
:10FC40004010601036C6BCFFFEFFFFFFFFFFDEFF67
:10FC5000DFFFFFFFFFFFDFFFFFFFFFFFFFFFFFFFF4
:10FC6000FFFFFFFFFFFFFFFFFFFFFFFFFFFFFFFFA4
:10FC7000FFFFFFFFFFFFFFFFFFFFFFFFFFFFFFFF94
:10FC8000FFFFFFFFFFFFFFFFFFFFFFFFDFFFFFFFA4
:10FC9000FFFFFFFFFFFF7094C9624752A85AA85A9E
:10FCA000C8620973AB8BEB9BCA9B0773EDBC8ED507
:10FCB000ABC40AAC4DB4CB9B087B49B4ACB430BDEB
:10FCC000FDFFFEFFFAE60A7309738C83E8728A8BE4
:10FCD0004DA4AEB46DAC8DACAEAC0A6B4A734A7336
:10FCE0006A734A736B73B9DE3CEFC1286562EEBC80
:10FCF0006FCDCCBCD1D555D6FDFFFFFFFFFFFFFF79
:10FD0000FFFFFFFFFFFFFFFFFFFFFFFFFFFFFFFF03
:10FD1000FFFFFFFFFFFFFFFFDFFFFFFFFFFFFFFF13
:10FD2000DFFFFFFFFFFF5CEFC53967520A73AB933C
:10FD3000EB9B0CA4F1B4FEFFFFFFFFFFFFFFFFFFF3
:10FD4000FFFFFFFFFFFFFFFFFFFFFFFFFFFFFFFFC3
:10FD5000FFFFFFFFFFFFFFFFFFFFFFFFFFFFFFFFB3
:10FD6000FFFFFFFFFFFFFFFFFFFFFFFFFFFFFFFFA3
:10FD7000FFFFFFFFFFFFFFFFFFFFFFFFFFFFFFFF93
:10FD8000FFFFFFFFFFFFFFFFFFFFFFFFFFFFFFFF83
:10FD9000FFFFFFFFFFFFFFFFFFFFFFFFFFFFFFFF73
:10FDA000FFFFFFFFFFFFFFFFFFFFFFFFFFFFFFFF63
:10FDB000FFFFFFFFFFFFFFFFFFFFFFFFFFFFFFFF53
:10FDC000FFFFFFFFFFFFFFFFFFFFFFFFFFFFFFFF43
:10FDD000FFFFFFFFFFFFFFFFFFFFFFFFFFFFFFFF33
:10FDE000FFFFFFFFFFFFFFFFFFFFFFFFFFFFFFFF23
:10FDF000FFFFFFFFFFFFFFFFFFFFFFFFFFFFFFFF13
:10FE0000FFFFFFFFFFFFFFFFFEFFDEFFFFFFFFFF24
:10FE1000FEFFFEFF7CF7B3A4E53941314CA42EC5AB
:10FE20004ECDA98BE128E6416BB4AEBC6762853943
:10FE300099D6FFFFFFFFDFFFFFFFFFFFFFFFFFFF81
:10FE4000FFFFFFFFFFFFFFFFFFFFFFFFFFFFFFFFC2
:10FE5000FFFFFFFFFFFFFFFFFFFFFFFFFFFFFFFFB2
:10FE6000FFFFFFFFFFFFFFFFFFFFFFFFFFFFFFFFA2
:10FE7000FFFFFFFFFFFFFFFFFFFFFFFFFFFFFFFF92
:10FE8000FFFFBEFF919C6852C962A85A885AE96A6E
:10FE9000C86A297B8A8BE3598028EB9B6FD50CCDF0
:10FEA0008CBCCDBC6CACCDACAABC8CACF4CDFFFF93
:10FEB000DFFFFFFF17CE4B832A73465A4A83CFB426
:10FEC000B2D50FBD8DACCDAC0D948B830C8CCC8B8F
:10FED000096B8B7B94C573BDC862E030C99B0CC5B0
:10FEE0006ECD0FB5D9E6FFFFFFFFFFFFFFFFFFFF5E
:10FEF000FFFFFFFFFFFFFFFFFFFFFFFFFFFFFFFF12
:10FF0000FFFFFFFFFFFFFFFFFFFFFFFFDFFFFFFF21
:10FF1000FFFF3CEFE6410642A85A6B7B2D9C498BC4
:10FF2000CC93F5CDFEFFFFFFFFFFFFFFFFFFFFFFBD
:10FF3000FFFFFFFFFFFFFFFFFFFFFFFFFFFFFFFFD1
:10FF4000FFFFFFFFFFFFFFFFFFFFFFFFFFFFFFFFC1
:10FF5000FFFFFFFFFFFFFFFFFFFFFFFFFFFFFFFFB1
:10FF6000FFFFFFFFFFFFFFFFFFFFFFFFFFFFFFFFA1
:10FF7000FFFFFFFFFFFFFFFFFFFFFFFFFFFFFFFF91
:10FF8000FFFFFFFFFFFFFFFFFFFFFFFFFFFFFFFF81
:10FF9000FFFFFFFFFFFFFFFFFFFFFFFFFFFFFFFF71
:10FFA000FFFFFFFFFFFFFFFFFFFFFFFFFFFFFFFF61
:10FFB000FFFFFFFFFFFFFFFFFFFFFFFFFFFFFFFF51
:10FFC000FFFFFFFFFFFFFFFFFFFFFFFFFFFFFFFF41
:10FFD000FFFFFFFFFFFFFFFFFFFFFFFFFFFFFFFF31
:10FFE000FFFFFFFFFFFFFFFFFFFFFFFFFFFFFFFF21
:10FFF000FFFFFFFFFFFFFEFFDFFFFFFFBEFFDCFF96
:020000040802F0
:10000000B7DE8B7B2010C010C0204CA44FCDECC4B9
:10001000C9932131E641666A6A8374BDDEFFFFFF42
:10002000DFF7FFFFFFFFDFFFFFFFFFFFFFFFFFFF28
:10003000FFFFFFFFFFFFFFFFFFFFFFFFFFFFFFFFD0
:10004000FFFFFFFFFFFFFFFFFFFFFFFFFFFFFFFFC0
:10005000FFFFFFFFFFFFFFFFFFFFFFFFFFFFFFFFB0
:10006000FFFFFFFFFFFFDFFFFFFFFFFFDFFFFFFFE0
:10007000FFFFB5C56852A85A064A0229064A096B0D
:10008000297BCC93498B4EA40FC56FD52DCD09ACE0
:100090006BB4ACB4AAAC2DC5EFB4FDFFFFFFFFFFFE
:1000A000FFFFDEFF58DE0E8CC96A6A836DA450C55F
:1000B00050C5EEB48DAC8EACEB93CFAC4D9C0873B9
:1000C00008738A830873CEACCB93EEBC4DCD2DC59F
:1000D000E4511CEFFFFFFFFFFFFFFFFFFFFFFFFFEC
:1000E000FFFFFFFFFFFFFFFFFFFFFFFFFFFFFFFF20
:1000F000FFFFFFFFFFFFFFFFFFFFFFFFDFFF99DEB7
:100100002B6BEA62096B4A7B0D946EA40D9473C548
:10011000BDFFFFFFFFFFFFFFFFFFFFFFFFFFFFFF31
:10012000FFFFFFFFFFFFFFFFFFFFFFFFFFFFFFFFDF
:10013000FFFFFFFFFFFFFFFFFFFFFFFFFFFFFFFFCF
:10014000FFFFFFFFFFFFFFFFFFFFFFFFFFFFFFFFBF
:10015000FFFFFFFFFFFFFFFFFFFFFFFFFFFFFFFFAF
:10016000FFFFFFFFFFFFFFFFFFFFFFFFFFFFFFFF9F
:10017000FFFFFFFFFFFFFFFFFFFFFFFFFFFFFFFF8F
:10018000FFFFFFFFFFFFFFFFFFFFFFFFFFFFFFFF7F
:10019000FFFFFFFFFFFFFFFFFFFFFFFFFFFFFFFF6F
:1001A000FFFFFFFFFFFFFFFFFFFFFFFFFFFFFFFF5F
:1001B000FFFFFFFFFFFFFFFFFFFFFFFFFFFFFFFF4F
:1001C000FFFFFFFFFFFFFFFFFFFFFFFFFFFFFFFF3F
:1001D000FFFFFFFFFFFFFFFFFFFFFFFFFFFFFFFF2F
:1001E000FFFF9EF7FEFFFFFFBCE6AA62C7620EADEF
:1001F0000B94E128C118A1204662AEBC0EC54BA4E9
:10020000C3496010885A37CEFFFFFFFFBEF7FFFFDC
:10021000FFFFDFFFFFFFFFFFFFFFFFFFFFFFFFFF0E
:10022000FFFFFFFFFFFFFFFFFFFFFFFFFFFFFFFFDE
:10023000FFFFFFFFFFFFFFFFFFFFFFFFFFFFFFFFCE
:10024000FFFFFFFFFFFFFFFFFFFFFFFFFFFFFFFFBE
:10025000FFFFFFFFFFFFFFFFFFFFDFFFDFFFFFFFEE
:10026000FAE66852E96267520229C5410A73E972E7
:100270006A836EAC0FC52EC5AFD50DC563722683DC
:10028000ECBC2CC54EC5D3CDBDFF9EF7FFFFDEFFF6
:10029000BEFFDFFF98DE0D8CAB83EB934C9CCEB49E
:1002A0002FBDCEAC8DAC4CA4CEB4AEB42C9C0B9C6C
:1002B0004CA44CA48CAC51CD0EC58ED5F0D54E9C23
:1002C000FFFFFFFFFFFFFFFFFFFFFFFFFFFFFFFF3E
:1002D000FFFFFFFFFFFFFFFFFFFFFFFFFFFFFFFF2E
:1002E000FFFFBEF7FEFFDEFFFFFFDAE6EA6A0A6BFA
:1002F000C9628B7B0D94EC8BB0A474BD9DFFFEFF97
:10030000FFFFFFFFFFFFFFFFFFFFFFFFFFFFFFFFFD
:10031000FFFFFFFFFFFFFFFFFFFFFFFFFFFFFFFFED
:10032000FFFFFFFFFFFFFFFFFFFFFFFFFFFFFFFFDD
:10033000FFFFFFFFFFFFFFFFFFFFFFFFFFFFFFFFCD
:10034000FFFFFFFFFFFFFFFFFFFFFFFFFFFFFFFFBD
:10035000FFFFFFFFFFFFFFFFFFFFFFFFFFFFFFFFAD
:10036000FFFFFFFFFFFFFFFFFFFFFFFFFFFFFFFF9D
:10037000FFFFFFFFFFFFFFFFFFFFFFFFFFFFFFFF8D
:10038000FFFFFFFFFFFFFFFFFFFFFFFFFFFFFFFF7D
:10039000FFFFFFFFFFFFFFFFFFFFFFFFFFFFFFFF6D
:1003A000FFFFFFFFFFFFFFFFFFFFFFFFFFFFFFFF5D
:1003B000FFFFFFFFFFFFFFFFFFFFFFFFFFFFFFFF4D
:1003C000FFFFFFFFFFFFFFFFFFFFFFFFFFFF9EF7A6
:1003D000B6B5C95A2110A4202010A2412EB50EB5E1
:1003E0006241C3188218A230A772CA9BA98B05521A
:1003F0004C73FFFFFFFFDEFFFFFFFFFFFFFFDFFF8D
:10040000FFFFFFFFFFFFFFFFFFFFFFFFFFFFFFFFFC
:10041000FFFFFFFFFFFFFFFFFFFFFFFFFFFFFFFFEC
:10042000FFFFFFFFFFFFFFFFFFFFFFFFFFFFFFFFDC
:10043000FFFFFFFFFFFFFFFFFFFFFFFFFFFFFFFFCC
:10044000FFFFFFFFFFFFFFFFFFFFDFFFFFFF5CF787
:100450002752885AC962A85AA85AE96A09734A8376
:10046000CB93ABBC4DCD8ECD6ECD6BACEEBCCDBCCD
:100470006AB40DB559FFDEFFFFFFDFF7FFFFFFFF97
:10048000BFFFFDFF4E948A7BEC93EB936DA410B5F8
:10049000EFB48DB4ADB48DB4AEB4CEBC8DAC6CAC99
:1004A000CDB4ECBC2FC590D5CBBCC8935BFFBFFFD0
:1004B000FFFFFFFFFFFFFFFFFFFFFFFFFFFFFFFF4C
:1004C000FFFFFFFFFFFFFFFFDFFFFFFFFFFFBEF7A5
:1004D000BAD6F2A4D2A434B54C736C7B8C832E9420
:1004E0004E9CEC93CC8BEE8BFEFFFEFFFFFFFFFFDD
:1004F000FFFFFFFFFFFFFFFFFFFFFFFFFFFFFFFF0C
:10050000FFFFFFFFFFFFFFFFFFFFFFFFFFFFFFFFFB
:10051000FFFFFFFFFFFFFFFFFFFFFFFFFFFFFFFFEB
:10052000FFFFFFFFFFFFFFFFFFFFFFFFFFFFFFFFDB
:10053000FFFFFFFFFFFFFFFFFFFFFFFFFFFFFFFFCB
:10054000FFFFFFFFFFFFFFFFFFFFFFFFFFFFFFFFBB
:10055000FFFFFFFFFFFFFFFFFFFFFFFFFFFFFFFFAB
:10056000FFFFFFFFFFFFFFFFFFFFFFFFFFFFFFFF9B
:10057000FFFFFFFFFFFFFFFFFFFFFFFFFFFFFFFF8B
:10058000FFFFFFFFFFFFFFFFFFFFFFFFFFFFFFFF7B
:10059000FFFFFFFFFFFFFFFFFFFFFFFFFFFFFFFF6B
:1005A000FFFFFFFFFFFFFFFFFFFFFFFFFFFFFFFF5B
:1005B000FFFFFFEFFFEFFEFF59FF0FC58762C3206C
:1005C0006118C3180311C020646A0ECD4DAC012917
:1005D000C220C220A1182329A962919C78D6DEFFEF
:1005E000FFFFFFFFFFFFFFFFFFFFFFFFFFFFFFFF1B
:1005F000FFFFFFFFFFFFFFFFFFFFFFFFFFFFFFFF0B
:10060000FFFFFFFFFFFFFFFFFFFFFFFFFFFFFFFFFA
:10061000FFFFFFFFFFFFFFFFFFFFFFFFFFFFFFFFEA
:10062000FFFFFFFFFFFFFFFFFFFFFFFFFFFFFFFFDA
:10063000FFFFFFFFDFFFFFFFFFFFFFFF1AEFC120FC
:100640000652C96AA862C962C8624A7BAB8BCB9367
:10065000ADB46EC50CC5EBC4AEDD2DCDCBBC658B8A
:10066000D5BDBDF7FFFFFFFFFFFFFFFFFFFFFFFF50
:10067000FFFF3BEF4B73AB830C948B83CC8BD0ACE5
:100680004DA46EACF0BCEFBC698B89936FCDECBC14
:100690000A7B2BA451E62DC50D9CBFFFDFFFFFFF9A
:1006A000FFFFFFFFFFFFFFFFFFFFFFFFFFFFFFFF5A
:1006B000FFFFFFFFDFFFFFFFDEFFFEFF36CE2E8CCA
:1006C0000E94AC834B7B6B832A7BCC936FA4B0B42A
:1006D000709416C69DF7FFFFFFFFFFFFFFFFFFFFB0
:1006E000FFFFFFFFFFFFFFFFFFFFFFFFFFFFFFFF1A
:1006F000FFFFFFFFFFFFFFFFFFFFFFFFFFFFFFFF0A
:10070000FFFFFFFFFFFFFFFFFFFFFFFFFFFFFFFFF9
:10071000FFFFFFFFFFFFFFFFFFFFFFFFFFFFFFFFE9
:10072000FFFFFFFFFFFFFFFFFFFFFFFFFFFFFFFFD9
:10073000FFFFFFFFFFFFFFFFFFFFFFFFFFFFFFFFC9
:10074000FFFFFFFFFFFFFFFFFFFFFFFFFFFFFFFFB9
:10075000FFFFFFFFFFFFFFFFFFFFFFFFFFFFFFFFA9
:10076000FFFFFFFFFFFFFFFFFFFFFFFFFFFFFFFF99
:10077000FFFFFFFFFFFFFFFFFFFFFFFFFFFFFFFF89
:10078000FFFFFFFFFFFFFFFFFFFFFFFFFFFFFFFF79
:10079000FFFFFFFFFFFFFFFFFFFFFFFFFFFFBEFFAA
:1007A000FFFFFFF77BF7EFBC2BAC866AA12081200F
:1007B000C318C310E120C67250CDC772E22060108A
:1007C000611824318D7B78D6FEFFFEFFDEFFFFFF30
:1007D000FFFFFFFFFFFFFFFFFFFFFFFFFFFFFFFF29
:1007E000FFFFFFFFFFFFFFFFFFFFFFFFFFFFFFFF19
:1007F000FFFFFFFFFFFFFFFFFFFFFFFFFFFFFFFF09
:10080000FFFFFFFFFFFFFFFFFFFFFFFFFFFFFFFFF8
:10081000FFFFFFFFFFFFFFFFFFFFFFFFFFFFFFFFE8
:10082000FFFFFFFFFFFFFFFFFFFF37CEC549E96A6C
:100830002A73C96AA862096BC86A45620C9C6BACD2
:100840002EC5EDBCABBC4CCD4DCD6FD54FCD7CEFA7
:10085000FFFFFFFFFFFFFFFFFFFFFFFFFFFFFFFFA8
:10086000DEFFB19CCC83C86A8B83CB8B4A7B087339
:100870008A83AEACEB9B0BA4C99B6FCD8FD52CA408
:10088000A793EED551DE55DEDFFFFFFFFFFFFFFF31
:10089000FFFFFFFFFFFFFFFFFFFFFFFFFFFFFFFF68
:1008A000BEF7FFFFFEFFF5C5F1ACAFA46D9C2D9424
:1008B0002D94EC8B2D944E9C8FA44E9C6E9C78D6E0
:1008C0005CEFFFFFFFFFFFFFFFFFFFFFFFFFFFFFEB
:1008D000FFFFFFFFFFFFFFFFFFFFFFFFFFFFFFFF28
:1008E000FFFFFFFFFFFFFFFFFFFFFFFFFFFFFFFF18
:1008F000FFFFFFFFFFFFFFFFFFFFFFFFFFFFFFFF08
:10090000FFFFFFFFFFFFFFFFFFFFFFFFFFFFFFFFF7
:10091000FFFFFFFFFFFFFFFFFFFFFFFFFFFFFFFFE7
:10092000FFFFFFFFFFFFFFFFFFFFFFFFFFFFFFFFD7
:10093000FFFFFFFFFFFFFFFFFFFFFFFFFFFFFFFFC7
:10094000FFFFFFFFFFFFFFFFFFFFFFFFFFFFFFFFB7
:10095000FFFFFFFFFFFFFFFFFFFFFFFFFFFFFFFFA7
:10096000FFFFFFFFFFFFFFFFFFFFFFFFFFFFFFFF97
:10097000FFFFFFFFFFFFFFFFFFFFFFFFFFFFFFFF87
:10098000FFFFFFFFFFFFFFFFFFFFFFFFDEFFFFFF98
:10099000FFFFDCFF6DACEEC48A93A341A128A2182F
:1009A000C218E120C351EB93A4412000C218CF7BB1
:1009B000FBE6FFFFFFFFDEFFDEFFFFFFFFFFFFFFA6
:1009C000FFFFFFFFFFFFFFFFFFFFFFFFFFFFFFFF37
:1009D000FFFFFFFFFFFFFFFFFFFFFFFFFFFFFFFF27
:1009E000FFFFFFFFFFFFFFFFFFFFFFFFFFFFFFFF17
:1009F000FFFFFFFFFFFFFFFFFFFFFFFFFFFFFFFF07
:100A0000FFFFFFFFFFFFFFFFFFFFFFFFFFFFFFFFF6
:100A1000FFFFDFFFFFFF9DFF12ADA8626B7B2A7314
:100A20000A73096B2A73255AE030087B2AA4ADB4F7
:100A300090D54DCD4CC58DCD4FCDD8F6FFFFFFFFE6
:100A4000FFFFFFFFFFFFFFFFFFFFFFFFDFFFFFFFD6
:100A5000B9DE6B7B6B7BEC8B0D946A7BC76A8A83F8
:100A6000EB93A7724CA40EC58FD5AFDDD0D56DCD5D
:100A700050E611D69BFFFEFFFFFFFEFFFFFFFFFFCB
:100A8000FFFFFFFFFFFFFFFFFFFFFFFFFFFFFFFF76
:100A9000FEFFB8DE6A7B2C94B2C530BD0FB5EFAC5B
:100AA0006E9CAEA48E9C6E9C11ADF9E6DEFFFFFF3E
:100AB000FFFFFFFFFFFFFFFFFFFFFFFFFFFFFFFF46
:100AC000FFFFFFFFFFFFFFFFFFFFFFFFFFFFFFFF36
:100AD000FFFFFFFFFFFFFFFFFFFFFFFFFFFFFFFF26
:100AE000FFFFFFFFFFFFFFFFFFFFFFFFFFFFFFFF16
:100AF000FFFFFFFFFFFFFFFFFFFFFFFFFFFFFFFF06
:100B0000FFFFFFFFFFFFFFFFFFFFFFFFFFFFFFFFF5
:100B1000FFFFFFFFFFFFFFFFFFFFFFFFFFFFFFFFE5
:100B2000FFFFFFFFFFFFFFFFFFFFFFFFFFFFFFFFD5
:100B3000FFFFFFFFFFFFFFFFFFFFFFFFFFFFFFFFC5
:100B4000FFFFFFFFFFFFFFFFFFFFFFFFFFFFFFFFB5
:100B5000FFFFFFFFFFFFFFFFFFFFFFFFFFFFFFFFA5
:100B6000FFFFFFFFFFFFFFFFFFFFFFFFFFFFFFFF95
:100B7000FFFFFFFFFFFFFFFFFFFFDFFFBFFFFFFFE5
:100B8000DDFF0C9C0FC52C9C01318120E220C21896
:100B9000A118C86A465AEE8318BE59CE9EF7FFFFC9
:100BA000FFFFFFFFFFFFFFFFFFFFFFFFFFFFFFFF55
:100BB000FFFFFFFFFFFFFFFFFFFFFFFFFFFFFFFF45
:100BC000FFFFFFFFFFFFFFFFFFFFFFFFFFFFFFFF35
:100BD000FFFFFFFFFFFFFFFFFFFFFFFFFFFFFFFF25
:100BE000FFFFFFFFFFFFFFFFFFFFFFFFFFFFFFFF15
:100BF000FFFFFFFFFFFFFFFFFFFFDEFFFFFFFFFF26
:100C0000FFFFFFFFDEFFD1A46B7B6A7B675A465A6A
:100C1000A862E96A08736562CB93ACB4ADB4CDBC8D
:100C20008ED58CCDCECD34DEDEFFFFFFFEFFFFFF85
:100C3000FFFFFFFFFFFFFFFFDFFFFFFFDEFFFEFF06
:100C4000EE83AC7BCC8BED8B0D948A7B4D940C8C1E
:100C5000AA8B8DACD1DDB0D5AFDDAFD5EFD510D639
:100C6000F2CDDDFFDFFFFFFFFEFFFFFFFFFFFFFF16
:100C7000FFFFFFFFFFFFFFFFFFFFFFFFFFFFFFFF84
:100C80001AEFB0A431B592C54DA4AFA4F0AC6E9CE0
:100C90008F9CB4BD3AEFBDF7FEFFFFFFFFFFFFFFE4
:100CA000FFFFFFFFFFFFFFFFFFFFFFFFFFFFFFFF54
:100CB000FFFFFFFFFFFFFFFFFFFFFFFFFFFFFFFF44
:100CC000FFFFFFFFFFFFFFFFFFFFFFFFFFFFFFFF34
:100CD000FFFFFFFFFFFFFFFFFFFFFFFFFFFFFFFF24
:100CE000FFFFFFFFFFFFFFFFFFFFFFFFFFFFFFFF14
:100CF000FFFFFFFFFFFFFFFFFFFFFFFFFFFFFFFF04
:100D0000FFFFFFFFFFFFFFFFFFFFFFFFFFFFFFFFF3
:100D1000FFFFFFFFFFFFFFFFFFFFFFFFFFFFFFFFE3
:100D2000FFFFFFFFFFFFFFFFFFFFFFFFFFFFFFFFD3
:100D3000FFFFFFFFFFFFFFFFFFFFFFFFFFFFFFFFC3
:100D4000FFFFFFFFFFFFFFFFFFFFFFFFFFFFFFFFB3
:100D5000FFFFFFFFFFFFFFFFFFFFFFFFFFFFFFFFA3
:100D6000FFFFFFFFFFFFFFFFDFFFFFFFDFF7FFFFDB
:100D700098E68B83A01880102010C218A21813AD1B
:100D800037D69CFFDEFFFFFFFFFFFFFFDFFFFFFF08
:100D9000FFFFFFFFFFFFFFFFFFFFFFFFFFFFFFFF63
:100DA000FFFFFFFFFFFFFFFFFFFFFFFFFFFFFFFF53
:100DB000FFFFFFFFFFFFFFFFFFFFFFFFFFFFFFFF43
:100DC000FFFFFFFFFFFFFFFFFFFFFFFFFFFFFFFF33
:100DD000FFFFFFFFFFFFFFFFFFFFFFFFFFFFFFFF23
:100DE000FFFFFFFFFFFFFFFFFFFFFFFFFFFFFFFF13
:100DF000FFFFFFFF33B56B7BAB8BC86A87622A733B
:100E00004A7BAB8BAB930C9C4BAC2BACC57A8BACBD
:100E10006DC5D0CD7BFFBFFFFFFFFFFFFFFFFFFFD3
:100E2000DFFFFFFFFFFFFFFFFFFFDFFFFFFFB9DE79
:100E3000CD838B7BAB83CC8B0D8CEC8B0C8CAFACD4
:100E40004CA46CAC0DBD6ECD90CD4FC5F3D5BCFFA1
:100E5000FFFFFFFFFFFFFFF7FFFFFFFFFFFFFFFFAA
:100E6000FFFFFFFFFFFFFFFFFFFFDFFFFFFFFFFFB2
:100E70005CF7DAEEF5D5D1AC33B5B9E69DFFDEFF10
:100E8000DEFFFFFFFFFFFFFFFFFFFFFFFFFFFFFF93
:100E9000FFFFFFFFFFFFFFFFFFFFFFFFFFFFFFFF62
:100EA000FFFFFFFFFFFFFFFFFFFFFFFFFFFFFFFF52
:100EB000FFFFFFFFFFFFFFFFFFFFFFFFFFFFFFFF42
:100EC000FFFFFFFFFFFFFFFFFFFFFFFFFFFFFFFF32
:100ED000FFFFFFFFFFFFFFFFFFFFFFFFFFFFFFFF22
:100EE000FFFFFFFFFFFFFFFFFFFFFFFFFFFFFFFF12
:100EF000FFFFFFFFFFFFFFFFFFFFFFFFFFFFFFFF02
:100F0000FFFFFFFFFFFFFFFFFFFFFFFFFFFFFFFFF1
:100F1000FFFFFFFFFFFFFFFFFFFFFFFFFFFFFFFFE1
:100F2000FFFFFFFFFFFFFFFFFFFFFFFFFFFFFFFFD1
:100F3000FFFFFFFFFFFFFFFFFFFFFFFFFFFFFFFFC1
:100F4000FFFFFFFFFFFFFFFFFFFFFFFFFFFFFFFFB1
:100F5000FFFFFFFFFFFFFFFFFFFFFFFFFFFFFFFFA1
:100F6000BDF77CEF9DEF54AD5CEFFFFFFFFFFFFF90
:100F7000BEFFFFFFFFFFDFFFFFFFFFFFFFFFFFFFE2
:100F8000DFFFDFFFFFFFFFFFFFFFFFFFFFFFFFFFB1
:100F9000FFFFFFFFFFFFFFFFFFFFFFFFFFFFFFFF61
:100FA000FFFFFFFFFFFFFFFFFFFFFFFFFFFFFFFF51
:100FB000FFFFFFFFFFFFFFFFFFFFFFFFFFFFFFFF41
:100FC000FFFFFFFFFFFFFFFFFFFFFFFFFFFFFFFF31
:100FD000FFFFFFFFFFFFFFFFDEFFDFFFFFFFFFFF62
:100FE000FFFF12AD096B09734A7B4A7BAC8B297BEF
:100FF000297BCB932CA46BB44AACE89BABB4D1D582
:1010000039F7FEFFFFFFFFFFFFFFFFFFFFFFFFFFBF
:10101000FFFFFFFFFFFFFFFFFFFFBEF7FFFFD6BD94
:10102000E9620973AB8BEC8B09738B830D940D9C78
:1010300069832C9CA98BD2D596E6F9EEFFFFDFFFE2
:10104000FFFFFFFFFFFFFFFFFFFFFFFFFFFFFFFFB0
:10105000FFFFFFFFFFFFFFFFFFFFDFFFDFFFDFFF00
:10106000FFFFBEFF9DFFDFFFDFFFDFFFFFFFDFFFB3
:10107000DFFFBFF7FFFFFFFFFFFFFFFFFFFFFFFFE8
:10108000FFFFFFFFFFFFFFFFFFFFFFFFFFFFFFFF70
:10109000FFFFFFFFFFFFFFFFFFFFFFFFFFFFFFFF60
:1010A000FFFFFFFFFFFFFFFFFFFFFFFFFFFFFFFF50
:1010B000FFFFFFFFFFFFFFFFFFFFFFFFFFFFFFFF40
:1010C000FFFFFFFFFFFFFFFFFFFFFFFFFFFFFFFF30
:1010D000FFFFFFFFFFFFFFFFFFFFFFFFFFFFFFFF20
:1010E000FFFFFFFFFFFFFFFFFFFFFFFFFFFFFFFF10
:1010F000FFFFFFFFFFFFFFFFFFFFFFFFFFFFFFFF00
:10110000FFFFFFFFFFFFFFFFFFFFFFFFFFFFFFFFEF
:10111000FFFFFFFFFFFFFFFFFFFFFFFFFFFFFFFFDF
:10112000FFFFFFFFFFFFFFFFFFFFFFFFFFFFFFFFCF
:10113000FFFFFFFFFFFFFFFFFFFFFFFFFFFFFFFFBF
:10114000FFFFFFFFFFFFFFFFDFFFDFFFFFFFFFFFEF
:10115000FFFFFFFFFFFFDFFFFFFFFFFFDFFFFFFFDF
:10116000FFFFFFFFFFFFFFFFFFFFDFFFDFFFFFFFCF
:10117000FFFFDEFFFFFFFFFFFFFFFFFFFFFFFFFFA0
:10118000FFFFFFFFFFFFFFFFFFFFFFFFFFFFFFFF6F
:10119000FFFFFFFFFFFFFFFFFFFFFFFFFFFFFFFF5F
:1011A000FFFFFFFFFFFFFFFFFFFFFFFFFFFFFFFF4F
:1011B000FFFFFFFFFFFFFFFFFFFFFFFFFFFFFFFF3F
:1011C000FFFFFFFFFFFFFFFFFFFFFFFFFFFF9DF799
:1011D000AC7B2552A76A297B4A7B297B4662E77252
:1011E000CA93EA9B6DBC8BBC4CCD0DBD76E6FFFF70
:1011F000DFFFFFFFDFFFDFFFFFFFFFFFFFFFFFFF5F
:10120000FFFFFFFFFFFFFFFFBEF7FFFF7DEF8C7BC0
:10121000E96ACC8BCC8B2A7BCC8BED8B6FA40D94A5
:10122000EC8B497B76DEDCFFFEFFFFFFDFFFFFFF7D
:10123000FFFFFFFFFFFFFFFFFFFFFFFFFFFFFFFFBE
:10124000FFFFFFFFFFFFFFFFDFFFFFFFFFFFDFFFEE
:10125000FFFFFFFFFFFFFFFFFFFFFFFFFFFFFFFF9E
:10126000FFFFFFFFFFFFFFFFFFFFFFFFFFFFFFFF8E
:10127000FFFFFFFFFFFFFFFFFFFFFFFFFFFFFFFF7E
:10128000FFFFFFFFFFFFFFFFFFFFFFFFFFFFFFFF6E
:10129000FFFFFFFFFFFFFFFFFFFFFFFFFFFFFFFF5E
:1012A000FFFFFFFFFFFFFFFFFFFFFFFFFFFFFFFF4E
:1012B000FFFFFFFFFFFFFFFFFFFFFFFFFFFFFFFF3E
:1012C000FFFFFFFFFFFFFFFFFFFFFFFFFFFFFFFF2E
:1012D000FFFFFFFFFFFFFFFFFFFFFFFFFFFFFFFF1E
:1012E000FFFFFFFFFFFFFFFFFFFFFFFFFFFFFFFF0E
:1012F000FFFFFFFFFFFFFFFFFFFFFFFFFFFFFFFFFE
:10130000FFFFFFFFFFFFFFFFFFFFFFFFFFFFFFFFED
:10131000FFFFFFFFFFFFFFFFFFFFFFFFFFFFFFFFDD
:10132000FFFFFFFFFFFFFFFFFFFFFFFFFFFFFFFFCD
:10133000FFFFFEFFFEFFFEFFFFFFBFFFFFFFFFFF00
:10134000FFFFDFF7FFFFDFFFFFFFDFFFFFFFFFFF15
:10135000FFFFFFFFFFFFFFFFFFFFFFFFFFFFFFFF9D
:10136000FFFFFFFFFFFFFFFFFFFFFFFFFFFFFFFF8D
:10137000FFFFFFFFFFFFFFFFFFFFFFFFFFFFFFFF7D
:10138000FFFFFFFFFFFFFFFFFFFFFFFFFFFFFFFF6D
:10139000FFFFFFFFFFFFFFFFFFFFFFFFFFFFFFFF5D
:1013A000FFFFFFFFFFFFFFFFFFFFFFFFFFFFFFFF4D
:1013B000FFFFFFFFDFFFFFFFFFFFFFFFBDFF6B73BF
:1013C000C862C772097B8B838B83E872CB93698B6E
:1013D000C259EBAB0CC50ABDB0CDBCFFDFFFFFFFB0
:1013E000FDF7FFFFFFFFFFFFFFFFFFFFFFFFDFFF37
:1013F000FFFFDFFFFFFFFFFFFFFFFFFF57D6CC839D
:101400008B83EC93ED93CD93EE93CD8B2E94CC8385
:1014100051B551B552B5B8D6DEF7FFFFFFFFDEFF7D
:10142000FEFFFFFFFFFFFFFFFFFFFFFFFFFFFFFFCD
:10143000FFFFFEFFFEFFFFFFFFFFFFFFFFFFFFFFBE
:10144000FFF7FFFFFFFFFFFFFFFFFFFFFEFFDEFFD6
:10145000FFFFFFFFFFFFFFFFFFFFFFFFFFFFFFFF9C
:10146000FFFFFFFFFFFFFFFFFFFFFFFFFFFFFFFF8C
:10147000FFFFFFFFFFFFFFFFFFFFFFFFFFFFFFFF7C
:10148000FFFFFFFFFFFFFFFFFFFFFFFFFFFFFFFF6C
:10149000FFFFFFFFFFFFFFFFFFFFFFFFFFFFFFFF5C
:1014A000FFFFFFFFFFFFFFFFFFFFFFFFFFFFFFFF4C
:1014B000FFFFFFFFFFFFFFFFFFFFFFFFFFFFFFFF3C
:1014C000FFFFFFFFFFFFFFFFFFFFFFFFFFFFFFFF2C
:1014D000FFFFFFFFFFFFFFFFFFFFFFFFFFFFFFFF1C
:1014E000FFFFFFFFFFFFFFFFFFFFFFFFFFFFFFFF0C
:1014F000FFFFFFFFFFFFFFFFFFFFFFFFFFFFFFFFFC
:10150000FFFFFFFFFFFFFFFFFFFFFFFFFFFFFFFFEB
:10151000FFFFFFFFFFFFFFFFFFFFFFFFFFFFFFFFDB
:10152000FFFFFFFFFFFFFFFFFFFFFFFFFFFFFFFFCB
:10153000FFFFFFFFFFFFFFFFFFFFFFFFFFFFFFFFBB
:10154000FFFFFFFFFFFFFFFFFFFFFFFFFFFFFFFFAB
:10155000FFFFFFFFFFFFFFFFFFFFFFFFFFFFFFFF9B
:10156000FFFFFFFFFFFFFFFFFFFFFFFFFFFFFFFF8B
:10157000FFFFFFFFFFFFFFFFFFFFFFFFFFFFFFFF7B
:10158000FFFFFFFFFFFFFFFFFFFFFFFFFFFFFFFF6B
:10159000FFFFFFFFFFFFFFFFFFFFFFFFFFFFFFFF5B
:1015A000DFFFFFFFFFFFFFFFFFFF58D62B73E96A46
:1015B000086BAB834A83ECA3EAA32BA4898B203965
:1015C000258B0EBD71BDBCFFFFFFFFFFFFFFFEFFC0
:1015D000FFFFFFFFFFFFFFFFFFFFFFFFFFFFFFFF1B
:1015E000FFFFFFFFFFFFFFFFFFFF9DF716C64B6BDF
:1015F000AC8BAC8BEC8BCC8B0D94ED8B8B7B4E94AE
:101600002FBD70C5D2CD8EA431B59DFFFFFFDFFF8A
:10161000FFFFDFFFFFFFFFFFFFFFFFFFFFFFFEFFFB
:10162000FFFFFFFFFFFFFFFFDFFFDFFFFFFFFFFF0A
:10163000FFFFFFFFFFFFFFFFFFFFFFFFFFFFFFFFBA
:10164000FFFFFFFFFFFFFFFFFFFFFFFFFFFFFFFFAA
:10165000FFFFFFFFFFFFFFFFFFFFFFFFFFFFFFFF9A
:10166000FFFFFFFFFFFFFFFFFFFFFFFFFFFFFFFF8A
:10167000FFFFFFFFFFFFFFFFFFFFFFFFFFFFFFFF7A
:10168000FFFFFFFFFFFFFFFFFFFFFFFFFFFFFFFF6A
:10169000FFFFFFFFFFFFFFFFFFFFFFFFFFFFFFFF5A
:1016A000FFFFFFFFFFFFFFFFFFFFFFFFFFFFFFFF4A
:1016B000FFFFFFFFFFFFFFFFFFFFFFFFFFFFFFFF3A
:1016C000FFFFFFFFFFFFFFFFFFFFFFFFFFFFFFFF2A
:1016D000FFFFFFFFFFFFFFFFFFFFFFFFFFFFFFFF1A
:1016E000FFFFFFFFFFFFFFFFFFFFFFFFFFFFFFFF0A
:1016F000FFFFFFFFFFFFFFFFFFFFFFFFFFFFFFFFFA
:10170000FFFFFFFFFFFFFFFFFFFFFFFFFFFFFFFFE9
:10171000FFFFFFFFFFFFFFFFFFFFFFFFFFFFFFFFD9
:10172000FFFFFFFFFFFFFFFFFFFFFFFFFFFFFFFFC9
:10173000FFFFFFFFFFFFFFFFFFFFFFFFFFFFFFFFB9
:10174000FFFFFFFFFFFFFFFFFFFFFFFFFFFFFFFFA9
:10175000FFFFFFFFFFFFFFFFFFFFFFFFFFFFFFFF99
:10176000FFFFFFFFFFFFFFFFFFFFFFFFFFFFFFFF89
:10177000FFFFFFFFFFFFFFFFFFFFFFFFFFFFFFFF79
:10178000FFFFFFFFFFFFFFFFFFFFFFFFFFFFFFFF69
:10179000FFFFFFFFFFFFBEFF74B5C9620973287327
:1017A0000973844908830BA4C99B4BACEA9B6BACBF
:1017B00090CDF8EEFEFFFFFFFFFFDFFFFFFFFFFF13
:1017C000FFFFFFFFFFFFFFFFFFFFFFFFFFFFFFFF29
:1017D000DFFFFFFFFFFFDEFFFFFF7CEF8C738C83DB
:1017E000CD8BED8B4A7BCC8B6E9C8B83E86A6DA492
:1017F00010BD92C5EFB451BD77DEF9EEDDFFFFFFFE
:10180000FFFFDFFFFFFFFFFFDFFFFFFFFFFFDFFF48
:10181000FFFFFFFFFFFFFFFFFFFFFFFFFEFFFFFFD9
:10182000FFFFFFFFFFFFFFFFFFFFFFFFFFFFFFFFC8
:10183000FFFFFFFFFFFFFFFFFFFFFFFFFFFFFFFFB8
:10184000FFFFFFFFFFFFFFFFFFFFFFFFFFFFFFFFA8
:10185000FFFFFFFFFFFFFFFFFFFFFFFFFFFFFFFF98
:10186000FFFFFFFFFFFFFFFFFFFFFFFFFFFFFFFF88
:10187000FFFFFFFFFFFFFFFFFFFFFFFFFFFFFFFF78
:10188000FFFFFFFFFFFFFFFFFFFFFFFFFFFFFFFF68
:10189000FFFFFFFFFFFFFFFFFFFFFFFFFFFFFFFF58
:1018A000FFFFFFFFFFFFFFFFFFFFFFFFFFFFFFFF48
:1018B000FFFFFFFFFFFFFFFFFFFFFFFFFFFFFFFF38
:1018C000FFFFFFFFFFFFFFFFFFFFFFFFFFFFFFFF28
:1018D000FFFFFFFFFFFFFFFFFFFFFFFFFFFFFFFF18
:1018E000FFFFFFFFFFFFFFFFFFFFFFFFFFFFFFFF08
:1018F000FFFFFFFFFFFFFFFFFFFFFFFFFFFFFFFFF8
:10190000FFFFFFFFFFFFFFFFFFFFFFFFFFFFFFFFE7
:10191000FFFFFFFFFFFFFFFFFFFFFFFFFFFFFFFFD7
:10192000FFFFFFFFFFFFFFFFFFFFFFFFFFFFFFFFC7
:10193000FFFFFFFFFFFFFFFFFFFFFFFFFFFFFFFFB7
:10194000FFFFFFFFFFFFFFFFFFFFFFFFFFFFFFFFA7
:10195000FFFFFFFFFFFFFFFFFFFFFFFFFFFFFFFF97
:10196000FFFFFFFFFFFFFFFFFFFFFFFFFFFFFFFF87
:10197000FFFFFFFFFFFFFFFFFFFFFFFFFFFFFFFF77
:10198000DFFFFFFFFFFF4F94265A265A69838B8B98
:10199000A4518772EAA3E9A3CCBCEDC40FBD55DE08
:1019A000DDFFFFFFBFF7FFFFBFF7FFFFFFFFFFFFF9
:1019B000FFFFFFFFFFFFFFFFFFFFFFFFDFFFFFFF57
:1019C000FFFFFFFFBEF7FFFFFFFFFADECD83AC8313
:1019D000CD8B8B838B83EC930D946EA48FACAFACCB
:1019E0004DA4CA8B8DA4D2C5F4CDD3CDF9EEFDFFA5
:1019F000FEFFFEFFFFFFFFFFFFFFFFFFFFFFFFFFF9
:101A0000FFFFFEFFFFFFFFFFFEFFFEFFFFFFFFFFE9
:101A1000FFFFFFFFFFFFFFFFFFFFFFFFFFFFFFFFD6
:101A2000FFFFFFFFFFFFFFFFFFFFFFFFFFFFFFFFC6
:101A3000FFFFFFFFFFFFFFFFFFFFFFFFFFFFFFFFB6
:101A4000FFFFFFFFFFFFFFFFFFFFFFFFFFFFFFFFA6
:101A5000FFFFFFFFFFFFFFFFFFFFFFFFFFFFFFFF96
:101A6000FFFFFFFFFFFFFFFFFFFFFFFFFFFFFFFF86
:101A7000FFFFFFFFFFFFFFFFFFFFFFFFFFFFFFFF76
:101A8000FFFFFFFFFFFFFFFFFFFFFFFFFFFFFFFF66
:101A9000FFFFFFFFFFFFFFFFFFFFFFFFFFFFFFFF56
:101AA000FFFFFFFFFFFFFFFFFFFFFFFFFFFFFFFF46
:101AB000FFFFFFFFFFFFFFFFFFFFFFFFFFFFFFFF36
:101AC000FFFFFFFFFFFFFFFFFFFFFFFFFFFFFFFF26
:101AD000FFFFFFFFFFFFFFFFFFFFFFFFFFFFFFFF16
:101AE000FFFFFFFFFFFFFFFFFFFFFFFFFFFFFFFF06
:101AF000FFFFFFFFFFFFFFFFFFFFFFFFFFFFFFFFF6
:101B0000FFFFFFFFFFFFFFFFFFFFFFFFFFFFFFFFE5
:101B1000FFFFFFFFFFFFFFFFFFFFFFFFFFFFFFFFD5
:101B2000FFFFFFFFFFFFFFFFFFFFFFFFFFFFFFFFC5
:101B3000FFFFFFFFFFFFFFFFFFFFFFFFFFFFFFFFB5
:101B4000FFFFFFFFFFFFFFFFFFFFFFFFFFFFFFFFA5
:101B5000FFFFFFFFFFFFFFFFFFFFFFFFFFFFFFFF95
:101B6000FFFFFFFFFFFFFFFFFFFFDFFFFFFFFFFFA5
:101B7000FFFF5CEFEA6A675A466269830C9C6B8BD5
:101B80006A8B2BA48BB4CCC40DCD51BD7BFFDEFF83
:101B9000FFFFFFFFFFFFFFFFFFFFFFFFFFFFFFFF55
:101BA000FFFFFFFFFFFFFFFFFFFFFFFFFFFFDFFF65
:101BB000FFFFFFFFDEFFDEFFFFFFB9DE919C6C7BC6
:101BC000AC830D942D940D9C6EA48FACCFB4AEACB1
:101BD0008DA4EFB4D2CD10B5497B51BD56DE97DE52
:101BE0007BF7FEFFDEFFDFFFFFFFDFF7FFFFFFFFFB
:101BF000FFFFFFFFFFFFDEFFFFFFFFFFFFFFFFFF16
:101C0000FFFFFFFFFFFFFFFFFFFFFFFFFFFFFFFFE4
:101C1000FFFFFFFFFFFFFFFFFFFFFFFFFFFFFFFFD4
:101C2000FFFFFFFFFFFFFFFFFFFFFFFFFFFFFFFFC4
:101C3000FFFFFFFFFFFFFFFFFFFFFFFFFFFFFFFFB4
:101C4000FFFFFFFFFFFFFFFFFFFFFFFFFFFFFFFFA4
:101C5000FFFFFFFFFFFFFFFFFFFFFFFFFFFFFFFF94
:101C6000FFFFFFFFFFFFFFFFFFFFFFFFFFFFFFFF84
:101C7000FFFFFFFFFFFFFFFFFFFFFFFFFFFFFFFF74
:101C8000FFFFFFFFFFFFFFFFFFFFFFFFFFFFFFFF64
:101C9000FFFFFFFFFFFFFFFFFFFFFFFFFFFFFFFF54
:101CA000FFFFFFFFFFFFFFFFFFFFFFFFFFFFFFFF44
:101CB000FFFFFFFFFFFFFFFFFFFFFFFFFFFFFFFF34
:101CC000FFFFFFFFFFFFFFFFFFFFFFFFFFFFFFFF24
:101CD000FFFFFFFFFFFFFFFFFFFFFFFFFFFFFFFF14
:101CE000FFFFFFFFFFFFFFFFFFFFFFFFFFFFFFFF04
:101CF000FFFFFFFFFFFFFFFFFFFFFFFFFFFFFFFFF4
:101D0000FFFFFFFFFFFFFFFFFFFFFFFFFFFFFFFFE3
:101D1000FFFFFFFFFFFFFFFFFFFFFFFFFFFFFFFFD3
:101D2000FFFFFFFFFFFFFFFFFFFFFFFFFFFFFFFFC3
:101D3000FFFFFFFFFFFFFFFFFFFFFFFFFFFFFFFFB3
:101D4000FFFFFFFFFFFFFFFFFFFFFFFFFFFFFFFFA3
:101D5000FFFFFFFFFFFFFFFFFFFFDFFFFFFFDEFFD4
:101D600033AD88624A7B49830B9C698BCB93EB9B99
:101D70000AA48793268BADC498DEFEFFDEFFFFFF2B
:101D8000FFFFFFFFFFFFFFFFFFFFFFFFFFFFFFFF63
:101D9000FFFFFFFFFFFFFFFFFFFFFFFFFFFFFFFF53
:101DA000FFFFFFFFFFFFDFFFFFFFDEFFDEFFD9E6E4
:101DB00032B52E942D946E9C6D9CAEA4EFB430B5CC
:101DC0000FB530BD31BD8FAC30BD14D6F0AC8FA493
:101DD00057D6FEFFFFFF9EF7FFFFFFFFFFFFDFFF6E
:101DE000FFFFFFFFBFFFFFFFFFFFFFFFFFFFFFFF43
:101DF000FFFFFFFFFFFFFFFFFFFFFFFFFFFFFFFFF3
:101E0000FFFFFFFFFFFFFFFFFFFFFFFFFFFFFFFFE2
:101E1000FFFFFFFFFFFFFFFFFFFFFFFFFFFFFFFFD2
:101E2000FFFFFFFFFFFFFFFFFFFFFFFFFFFFFFFFC2
:101E3000FFFFFFFFFFFFFFFFFFFFFFFFFFFFFFFFB2
:101E4000FFFFFFFFFFFFFFFFFFFFFFFFFFFFFFFFA2
:101E5000FFFFFFFFFFFFFFFFFFFFFFFFFFFFFFFF92
:101E6000FFFFFFFFFFFFFFFFFFFFFFFFFFFFFFFF82
:101E7000FFFFFFFFFFFFFFFFFFFFFFFFFFFFFFFF72
:101E8000FFFFFFFFFFFFFFFFFFFFFFFFFFFFFFFF62
:101E9000FFFFFFFFFFFFFFFFFFFFFFFFFFFFFFFF52
:101EA000FFFFFFFFFFFFFFFFFFFFFFFFFFFFFFFF42
:101EB000FFFFFFFFFFFFFFFFFFFFFFFFFFFFFFFF32
:101EC000FFFFFFFFFFFFFFFFFFFFFFFFFFFFFFFF22
:101ED000FFFFFFFFFFFFFFFFFFFFFFFFFFFFFFFF12
:101EE000FFFFFFFFFFFFFFFFFFFFFFFFFFFFFFFF02
:101EF000FFFFFFFFFFFFFFFFFFFFFFFFFFFFFFFFF2
:101F0000FFFFFFFFFFFFFFFFFFFFFFFFFFFFFFFFE1
:101F1000FFFFFFFFFFFFFFFFFFFFFFFFFFFFFFFFD1
:101F2000FFFFFFFFFFFFFFFFFFFFFFFFFFFFFFFFC1
:101F3000FFFFFFFFFFFFFFFFFFFFFFFFFFFFFFFFB1
:101F4000FFFFFFFFFFFFFFFFDFFFFFFFFFFF6C7BD8
:101F50000A738B8B8A93EB9B24628672A993CCB411
:101F6000099C899314DEFEFFFFFFFFFFFFFFDFFFE9
:101F7000FFFFFFFFFFFFFFFFFFFFFFFFFFFFFFFF71
:101F8000FFFFFFFFFFFFFFFFDFFFFFFFFFFFBEF7CA
:101F9000DFFFFFFFFFFFFFFFFFFFFFFFFEFFFEFF73
:101FA000FEFF5BF716CED0A4F0ACAFA4CFAC31BD32
:101FB00031BDF1B411BD10BD71C551BD93C5D4C5BE
:101FC00073BD16CE1AEF3CEF9DF7FFFFFFFFDFFF5B
:101FD000FFFFDFFFFFFFFFFFFFFFFFFFFFFFFFFF31
:101FE000FFFFFFFFFFFFFFFFFFFFFFFFFFFFFFFF01
:101FF000FFFFFFFFFFFFFFFFFFFFFFFFFFFFFFFFF1
:10200000FFFFFFFFFFFFFFFFFFFFFFFFFFFFFFFFE0
:10201000FFFFFFFFFFFFFFFFFFFFFFFFFFFFFFFFD0
:10202000FFFFFFFFFFFFFFFFFFFFFFFFFFFFFFFFC0
:10203000FFFFFFFFFFFFFFFFFFFFFFFFFFFFFFFFB0
:10204000FFFFFFFFFFFFFFFFFFFFFFFFFFFFFFFFA0
:10205000FFFFFFFFFFFFFFFFFFFFFFFFFFFFFFFF90
:10206000FFFFFFFFFFFFFFFFFFFFFFFFFFFFFFFF80
:10207000FFFFFFFFFFFFFFFFFFFFFFFFFFFFFFFF70
:10208000FFFFFFFFFFFFFFFFFFFFFFFFFFFFFFFF60
:10209000FFFFFFFFFFFFFFFFFFFFFFFFFFFFFFFF50
:1020A000FFFFFFFFFFFFFFFFFFFFFFFFFFFFFFFF40
:1020B000FFFFFFFFFFFFFFFFFFFFFFFFFFFFFFFF30
:1020C000FFFFFFFFFFFFFFFFFFFFFFFFFFFFFFFF20
:1020D000FFFFFFFFFFFFFFFFFFFFFFFFFFFFFFFF10
:1020E000FFFFFFFFFFFFFFFFFFFFFFFFFFFFFFFF00
:1020F000FFFFFFFFFFFFFFFFFFFFFFFFFFFFFFFFF0
:10210000FFFFFFFFFFFFFFFFFFFFFFFFFFFFFFFFDF
:10211000FFFFFFFFFFFFFFFFFFFFFFFFFFFFFFFFCF
:10212000FFFFFFFFFFFFFFFFFFFFFFFFFFFFFFFFBF
:10213000FFFFFFFFDFFFFFFFFFFF5CEFEA6A2A7B85
:10214000087BCB9B6DAC288B488B6CB42DC5CCAC7D
:10215000D3CD5BFFFFFFBEF7FFFFFFFFDFFFFFFFFA
:10216000FFFFFFFFFFFFFFFFFFFFFFFFFFFFFFFF7F
:10217000FFFFFFFFFFFFFFFFDEFFFFFFFFFFFFFF90
:10218000DFFFFFFFDFFFFFFFFFFFFFFFDEF7FFFFC8
:10219000FFFFFFFFFFFF3BEFB5C5B0A4D0AC11B50B
:1021A000F0B431BD30BD10B510B552BD72C510B51B
:1021B00031BDB3C531B535D6BCFFBDFF7CF7FFFFE0
:1021C000FFFFDFFFFFFFFFFFFFFFFFFFFFFFFFFF3F
:1021D000FFFFFFFFFFFFFFFFFFFFFFFFFFFFFFFF0F
:1021E000FFFFFFFFFFFFFFFFFFFFFFFFFFFFFFFFFF
:1021F000FFFFFFFFFFFFFFFFFFFFFFFFFFFFFFFFEF
:10220000FFFFFFFFFFFFFFFFFFFFFFFFFFFFFFFFDE
:10221000FFFFFFFFFFFFFFFFFFFFFFFFFFFFFFFFCE
:10222000FFFFFFFFFFFFFFFFFFFFFFFFFFFFFFFFBE
:10223000FFFFFFFFFFFFFFFFFFFFFFFFFFFFFFFFAE
:10224000FFFFFFFFFFFFFFFFFFFFFFFFFFFFFFFF9E
:10225000FFFFFFFFFFFFFFFFFFFFFFFFFFFFFFFF8E
:10226000FFFFFFFFFFFFFFFFFFFFFFFFFFFFFFFF7E
:10227000FFFFFFFFFFFFFFFFFFFFFFFFFFFFFFFF6E
:10228000FFFFFFFFFFFFFFFFFFFFFFFFFFFFFFFF5E
:10229000FFFFFFFFFFFFFFFFFFFFFFFFFFFFFFFF4E
:1022A000FFFFFFFFFFFFFFFFFFFFFFFFFFFFFFFF3E
:1022B000FFFFFFFFFFFFFFFFFFFFFFFFFFFFFFFF2E
:1022C000FFFFFFFFFFFFFFFFFFFFFFFFFFFFFFFF1E
:1022D000FFFFFFFFFFFFFFFFFFFFFFFFFFFFFFFF0E
:1022E000FFFFFFFFFFFFFFFFFFFFFFFFFFFFFFFFFE
:1022F000FFFFFFFFFFFFFFFFFFFFFFFFFFFFFFFFEE
:10230000FFFFFFFFFFFFFFFFFFFFFFFFFFFFFFFFDD
:10231000FFFFFFFFFFFFFFFFFFFFFFFFFFFFFFFFCD
:10232000FFFFFFFFFFFFBEF713AD2B734A83E87A71
:102330002CAC698BAA9B0BACCDC409A4099439EFD2
:10234000FFFFDEF7FFFFFFFFFFFFFFFFFFFFFFFFC6
:10235000FFFFFFFFFFFFFFFFFFFFFFFFFFFFFFFF8D
:10236000FFFFFFFFFFFFFFFFFFFFFFFFFFFFFFFF7D
:10237000FFFFFFFFFFFFFFFFFFFFFFFFFFF7FFF77D
:10238000FFFFDFFFBFFFFFFF9CFF77DE93C530B588
:1023900010B531BD11B531BD51BD10BD10BD50C519
:1023A00091CDB0CDD1CD13D630B552B53AEFFEFFB9
:1023B000FFFFFFFFFFFFFFFFFFFFFFFFFFFFFFFF2D
:1023C000FFFFFFFFFFFFFFFFFFFFFFFFFFFFFFFF1D
:1023D000FFFFFFFFFFFFFFFFFFFFFFFFFFFFFFFF0D
:1023E000FFFFFFFFFFFFFFFFFFFFFFFFFFFFFFFFFD
:1023F000FFFFFFFFFFFFFFFFFFFFFFFFFFFFFFFFED
:10240000FFFFFFFFFFFFFFFFFFFFFFFFFFFFFFFFDC
:10241000FFFFFFFFFFFFFFFFFFFFFFFFFFFFFFFFCC
:10242000FFFFFFFFFFFFFFFFFFFFFFFFFFFFFFFFBC
:10243000FFFFFFFFFFFFFFFFFFFFFFFFFFFFFFFFAC
:10244000FFFFFFFFFFFFFFFFFFFFFFFFFFFFFFFF9C
:10245000FFFFFFFFFFFFFFFFFFFFFFFFFFFFFFFF8C
:10246000FFFFFFFFFFFFFFFFFFFFFFFFFFFFFFFF7C
:10247000FFFFFFFFFFFFFFFFFFFFFFFFFFFFFFFF6C
:10248000FFFFFFFFFFFFFFFFFFFFFFFFFFFFFFFF5C
:10249000FFFFFFFFFFFFFFFFFFFFFFFFFFFFFFFF4C
:1024A000FFFFFFFFFFFFFFFFFFFFFFFFFFFFFFFF3C
:1024B000FFFFFFFFFFFFFFFFFFFFFFFFFFFFFFFF2C
:1024C000FFFFFFFFFFFFFFFFFFFFFFFFFFFFFFFF1C
:1024D000FFFFFFFFFFFFFFFFFFFFFFFFFFFFFFFF0C
:1024E000FFFFFFFFFFFFFFFFFFFFFFFFFFFFFFFFFC
:1024F000FFFFFFFFFFFFFFFFFFFFFFFFFFFFFFFFEC
:10250000FFFFFFFFFFFFFFFFFFFFFFFFFFFFFFFFDB
:10251000FFF7FFFFBDFF4B7BAB8BEC9B4CA4EB9B12
:10252000AA8BEA9BCCBC2DCDEDBCD3D5FEFFDFFF43
:10253000FFFFFFFFFFFFFFFFFFFFFFFFFFFFFFFFAB
:10254000FFFFFFFFFFFFFFFFFFFFFFFFFFFFFFFF9B
:10255000FFFFFFFFFFFFFFFFFFFFFFFFFFFFFFFF8B
:10256000FFFFFFFFFFFFFFFFFFFFFFFFFFFFFFFF7B
:10257000FFFFFFFFFFFFFFFFFFFFFFFF5DEF59CEF4
:1025800073B532AD11AD31B530BD30BD50C591CD53
:10259000B3CD75E613DEB1D534DE35DE98DEFEFF51
:1025A000FFFFFFFFFFFFFFFFFFFFFFFFFFFFFFFF3B
:1025B000FFFFFFFFFFFFFFFFFFFFFFFFFFFFFFFF2B
:1025C000FFFFFFFFFFFFFFFFFFFFFFFFFFFFFFFF1B
:1025D000FFFFFFFFFFFFFFFFFFFFFFFFFFFFFFFF0B
:1025E000FFFFFFFFFFFFFFFFFFFFFFFFFFFFFFFFFB
:1025F000FFFFFFFFFFFFFFFFFFFFFFFFFFFFFFFFEB
:10260000FFFFFFFFFFFFFFFFFFFFFFFFFFFFFFFFDA
:10261000FFFFFFFFFFFFFFFFFFFFFFFFFFFFFFFFCA
:10262000FFFFFFFFFFFFFFFFFFFFFFFFFFFFFFFFBA
:10263000FFFFFFFFFFFFFFFFFFFFFFFFFFFFFFFFAA
:10264000FFFFFFFFFFFFFFFFFFFFFFFFFFFFFFFF9A
:10265000FFFFFFFFFFFFFFFFFFFFFFFFFFFFFFFF8A
:10266000FFFFFFFFFFFFFFFFFFFFFFFFFFFFFFFF7A
:10267000FFFFFFFFFFFFFFFFFFFFFFFFFFFFFFFF6A
:10268000FFFFFFFFFFFFFFFFFFFFFFFFFFFFFFFF5A
:10269000FFFFFFFFFFFFFFFFFFFFFFFFFFFFFFFF4A
:1026A000FFFFFFFFFFFFFFFFFFFFFFFFFFFFFFFF3A
:1026B000FFFFFFFFFFFFFFFFFFFFFFFFFFFFFFFF2A
:1026C000FFFFFFFFFFFFFFFFFFFFFFFFFFFFFFFF1A
:1026D000FFFFFFFFFFFFFFFFFFFFFFFFFFFFFFFF0A
:1026E000FFFFFFFFFFFFFFFFFFFFFFFFFFFFFFFFFA
:1026F000FFFFFFFFFFFFFFFFFFFFFFFFFFFFFFFFEA
:10270000FFFF57D68B830C9C6DAC4DA4AA930B9CFA
:10271000EA9BCCBC4ECD8CACD7EEFFFFFFFFFFFF9A
:10272000FFFFFFFFFFFFFFFFFFFFFFFFFFFFFFFFB9
:10273000FFFFFFFFFFFFFFFFFFFFFFFFFFFFFFFFA9
:10274000FFFFFFFFFFFFFFFFFFFFFFFFFFFFFFFF99
:10275000FFFFFFFFFFFFFFFFFFFFFFFFFFFFFFFF89
:10276000FFFFFFFFFFFFFFFFFFFFFFFFDFFFFDFF9B
:102770001AEF16CE73BDF1ACF0AC10B551BD51BD22
:1027800030BD0FBD92D534DE6E9CED83DDF7FFFFCB
:10279000FFFFFFFFFFFFFFFFFFFFFFFFFFFFFFFF49
:1027A000FFFFFFFFFFFFFFFFFFFFFFFFFFFFFFFF39
:1027B000FFFFFFFFFFFFFFFFFFFFFFFFFFFFFFFF29
:1027C000FFFFFFFFFFFFFFFFFFFFFFFFFFFFFFFF19
:1027D000FFFFFFFFFFFFFFFFFFFFFFFFFFFFFFFF09
:1027E000FFFFFFFFFFFFFFFFFFFFFFFFFFFFFFFFF9
:1027F000FFFFFFFFFFFFFFFFFFFFFFFFFFFFFFFFE9
:10280000FFFFFFFFFFFFFFFFFFFFFFFFFFFFFFFFD8
:10281000FFFFFFFFFFFFFFFFFFFFFFFFFFFFFFFFC8
:10282000FFFFFFFFFFFFFFFFFFFFFFFFFFFFFFFFB8
:10283000FFFFFFFFFFFFFFFFFFFFFFFFFFFFFFFFA8
:10284000FFFFFFFFFFFFFFFFFFFFFFFFFFFFFFFF98
:10285000FFFFFFFFFFFFFFFFFFFFFFFFFFFFFFFF88
:10286000FFFFFFFFFFFFFFFFFFFFFFFFFFFFFFFF78
:10287000FFFFFFFFFFFFFFFFFFFFFFFFFFFFFFFF68
:10288000FFFFFFFFFFFFFFFFFFFFFFFFFFFFFFFF58
:10289000FFFFFFFFFFFFFFFFFFFFFFFFFFFFFFFF48
:1028A000FFFFFFFFFFFFFFFFFFFFFFFFFFFFFFFF38
:1028B000FFFFFFFFFFFFFFFFFFFFFFFFFFFFFFFF28
:1028C000FFFFFFFFFFFFFFFFFFFFFFFFFFFFFFFF18
:1028D000FFFFFFFFFFFFFFFFFFFFFFFFFFFFFFFF08
:1028E000FFFFFFFFFFFFFFFFFFFFFFFFFFFFBDFF3A
:1028F0008F9CEC8BCFB4CEB4AA93AA932BA4E99B64
:10290000ACB42EC50FB59BFFBEFFDFF7FFFFFFFF87
:10291000FFFFFFFFFFFFFFFFFFFFFFFFFFFFFFFFC7
:10292000FFFFFFFFFFFFFFFFFFFFFFFFFFFFFFFFB7
:10293000FFFFFFFFFFFFFFFFFFFFFFFFFFFFFFFFA7
:10294000FFFFFFFFFFFFFFFFFFFFFFFFFFFFFFFF97
:10295000FFFFFFFFDFFFFFFFFFFFFFFFDEFFFFFFC8
:10296000FEFF9CFF57D653B512B532B552BD72BDAE
:10297000EFB4F3D5B3CD6F9C37CEFFFFFFFFFFFF62
:10298000FFFFFFFFFFFFFFFFFFFFFFFFFFFFFFFF57
:10299000FFFFFFFFFFFFFFFFFFFFFFFFFFFFFFFF47
:1029A000FFFFFFFFFFFFFFFFFFFFFFFFFFFFFFFF37
:1029B000FFFFFFFFFFFFFFFFFFFFFFFFFFFFFFFF27
:1029C000FFFFFFFFFFFFFFFFFFFFFFFFFFFFFFFF17
:1029D000FFFFFFFFFFFFFFFFFFFFFFFFFFFFFFFF07
:1029E000FFFFFFFFFFFFFFFFFFFFFFFFFFFFFFFFF7
:1029F000FFFFFFFFFFFFFFFFFFFFFFFFFFFFFFFFE7
:102A0000FFFFFFFFFFFFFFFFFFFFFFFFFFFFFFFFD6
:102A1000FFFFFFFFFFFFFFFFFFFFFFFFFFFFFFFFC6
:102A2000FFFFFFFFFFFFFFFFFFFFFFFFFFFFFFFFB6
:102A3000FFFFFFFFFFFFFFFFFFFFFFFFFFFFFFFFA6
:102A4000FFFFFFFFFFFFFFFFFFFFFFFFFFFFFFFF96
:102A5000FFFFFFFFFFFFFFFFFFFFFFFFFFFFFFFF86
:102A6000FFFFFFFFFFFFFFFFFFFFFFFFFFFFFFFF76
:102A7000FFFFFFFFFFFFFFFFFFFFFFFFFFFFFFFF66
:102A8000FFFFFFFFFFFFFFFFFFFFFFFFFFFFFFFF56
:102A9000FFFFFFFFFFFFFFFFFFFFFFFFFFFFFFFF46
:102AA000FFFFFFFFFFFFFFFFFFFFFFFFFFFFFFFF36
:102AB000FFFFFFFFFFFFFFFFFFFFFFFFFFFFFFFF26
:102AC000FFFFFFFFFFFFFFFFFFFFFFFFFFFFFFFF16
:102AD000FFFFFFFFFFFFFFFFFFFFFEFF77D60D8C1D
:102AE000AFA4CFB44CA489834C9CEEC4CDBC6FCDB5
:102AF000D2D539F7FEFFFFFFFFFFFFFFFFFFFFFF0C
:102B0000FFFFFFFFFFFFFFFFFFFFFFFFFFFFFFFFD5
:102B1000FFFFFFFFFFFFFFFFFFFFFFFFFFFFFFFFC5
:102B2000FFFFFFFFFFFFFFFFFFFFFFFFFFFFFFFFB5
:102B3000FFFFFFFFFFFFFFFFFFFFFFFFFFFFFFFFA5
:102B4000FFFFFFFFFFFFFFFFDFFFFFFFFFFFFFFFB5
:102B5000FFFFFFFFBEFF78D654B552B5B0A4F1AC6D
:102B60008FA4CC8BB5C5FEFFFFFFFFFFFFFFFFFF6C
:102B7000FFFFFFFFFFFFFFFFFFFFFFFFFFFFFFFF65
:102B8000FFFFFFFFFFFFFFFFFFFFFFFFFFFFFFFF55
:102B9000FFFFFFFFFFFFFFFFFFFFFFFFFFFFFFFF45
:102BA000FFFFFFFFFFFFFFFFFFFFFFFFFFFFFFFF35
:102BB000FFFFFFFFFFFFFFFFFFFFFFFFFFFFFFFF25
:102BC000FFFFFFFFFFFFFFFFFFFFFFFFFFFFFFFF15
:102BD000FFFFFFFFFFFFFFFFFFFFFFFFFFFFFFFF05
:102BE000FFFFFFFFFFFFFFFFFFFFFFFFFFFFFFFFF5
:102BF000FFFFFFFFFFFFFFFFFFFFFFFFFFFFFFFFE5
:102C0000FFFFFFFFFFFFFFFFFFFFFFFFFFFFFFFFD4
:102C1000FFFFFFFFFFFFFFFFFFFFFFFFFFFFFFFFC4
:102C2000FFFFFFFFFFFFFFFFFFFFFFFFFFFFFFFFB4
:102C3000FFFFFFFFFFFFFFFFFFFFFFFFFFFFFFFFA4
:102C4000FFFFFFFFFFFFFFFFFFFFFFFFFFFFFFFF94
:102C5000FFFFFFFFFFFFFFFFFFFFFFFFFFFFFFFF84
:102C6000FFFFFFFFFFFFFFFFFFFFFFFFFFFFFFFF74
:102C7000FFFFFFFFFFFFFFFFFFFFFFFFFFFFFFFF64
:102C8000FFFFFFFFFFFFFFFFFFFFFFFFFFFFFFFF54
:102C9000FFFFFFFFFFFFFFFFFFFFFFFFFFFFFFFF44
:102CA000FFFFFFFFFFFFFFFFFFFFFFFFFFFFFFFF34
:102CB000FFFFFFFFFFFFFFFFFFFFFFFFFFFFFFFF24
:102CC000FFFFFFFFFFFFFFFF1AEF2E946E9C30B552
:102CD0004DA46DA46DA430BD0ECD2FCD50C5B7E66B
:102CE000FDFFFFFFFFFFFFFFFFFFFFFFFFFFFFFFF6
:102CF000FFFFFFFFFFFFFFFFFFFFFFFFFFFFFFFFE4
:102D0000FFFFFFFFFFFFFFFFFFFFFFFFFFFFFFFFD3
:102D1000FFFFFFFFFFFFFFFFFFFFFFFFFFFFFFFFC3
:102D2000FFFFFFFFFFFFFFFFFFFFFFFFFFFFFFFFB3
:102D3000FFFFFFFFFFFFFFFFFFFFFFFFFFFFFFFFA3
:102D4000FFFFFFFFBEFF5CEF74B574B5D9E65BF71C
:102D50007CF7FEFFFFFFDEFFFFFFFFFFFFFFFFFF30
:102D6000FFFFFFFFFFFFFFFFFFFFFFFFFFFFFFFF73
:102D7000FFFFFFFFFFFFFFFFFFFFFFFFFFFFFFFF63
:102D8000FFFFFFFFFFFFFFFFFFFFFFFFFFFFFFFF53
:102D9000FFFFFFFFFFFFFFFFFFFFFFFFFFFFFFFF43
:102DA000FFFFFFFFFFFFFFFFFFFFFFFFFFFFFFFF33
:102DB000FFFFFFFFFFFFFFFFFFFFFFFFFFFFFFFF23
:102DC000FFFFFFFFFFFFFFFFFFFFFFFFFFFFFFFF13
:102DD000FFFFFFFFFFFFFFFFFFFFFFFFFFFFFFFF03
:102DE000FFFFFFFFFFFFFFFFFFFFFFFFFFFFFFFFF3
:102DF000FFFFFFFFFFFFFFFFFFFFFFFFFFFFFFFFE3
:102E0000FFFFFFFFFFFFFFFFFFFFFFFFFFFFFFFFD2
:102E1000FFFFFFFFFFFFFFFFFFFFFFFFFFFFFFFFC2
:102E2000FFFFFFFFFFFFFFFFFFFFFFFFFFFFFFFFB2
:102E3000FFFFFFFFFFFFFFFFFFFFFFFFFFFFFFFFA2
:102E4000FFFFFFFFFFFFFFFFFFFFFFFFFFFFFFFF92
:102E5000FFFFFFFFFFFFFFFFFFFFFFFFFFFFFFFF82
:102E6000FFFFFFFFFFFFFFFFFFFFFFFFFFFFFFFF72
:102E7000FFFFFFFFFFFFFFFFFFFFFFFFFFFFFFFF62
:102E8000FFFFFFFFFFFFFFFFFFFFFFFFFFFFFFFF52
:102E9000FFFFFFFFFFFFFFFFFFFFFFFFFFFFFFFF42
:102EA000FFFFFFFFFFFFFFFFFFFFFFFFFFFFFFFF32
:102EB000FFFFFFFFFFFF36D60D94D0ACAEAC6EA483
:102EC000EFB42C944D9C4FCD91CD72C5FDFFFFFF0B
:102ED000FFFFFFFFFFFFFFFFFFFFFFFFFFFFFFFF02
:102EE000FFFFFFFFFFFFFFFFFFFFFFFFFFFFFFFFF2
:102EF000FFFFFFFFFFFFFFFFFFFFFFFFFFFFFFFFE2
:102F0000FFFFFFFFFFFFFFFFFFFFFFFFFFFFFFFFD1
:102F1000FFFFFFFFFFFFFFFFFFFFFFFFFFFFFFFFC1
:102F2000FFFFFFFFFFFFFFFFFFFFFFFFDFFFFFFFD1
:102F3000FFFFFFFFDFFFFEFFDEFFDEFFFFFFFFFF04
:102F4000DEFFFFFFDFFFFFFFFFFFFFFFFFFFFFFFD2
:102F5000FFFFFFFFFFFFFFFFFFFFFFFFFFFFFFFF81
:102F6000FFFFFFFFFFFFFFFFFFFFFFFFFFFFFFFF71
:102F7000FFFFFFFFFFFFFFFFFFFFFFFFFFFFFFFF61
:102F8000FFFFFFFFFFFFFFFFFFFFFFFFFFFFFFFF51
:102F9000FFFFFFFFFFFFFFFFFFFFFFFFFFFFFFFF41
:102FA000FFFFFFFFFFFFFFFFFFFFFFFFFFFFFFFF31
:102FB000FFFFFFFFFFFFFFFFFFFFFFFFFFFFFFFF21
:102FC000FFFFFFFFFFFFFFFFFFFFFFFFFFFFFFFF11
:102FD000FFFFFFFFFFFFFFFFFFFFFFFFFFFFFFFF01
:102FE000FFFFFFFFFFFFFFFFFFFFFFFFFFFFFFFFF1
:102FF000FFFFFFFFFFFFFFFFFFFFFFFFFFFFFFFFE1
:10300000FFFFFFFFFFFFFFFFFFFFFFFFFFFFFFFFD0
:10301000FFFFFFFFFFFFFFFFFFFFFFFFFFFFFFFFC0
:10302000FFFFFFFFFFFFFFFFFFFFFFFFFFFFFFFFB0
:10303000FFFFFFFFFFFFFFFFFFFFFFFFFFFFFFFFA0
:10304000FFFFFFFFFFFFFFFFFFFFFFFFFFFFFFFF90
:10305000FFFFFFFFFFFFFFFFFFFFFFFFFFFFFFFF80
:10306000FFFFFFFFFFFFFFFFFFFFFFFFFFFFFFFF70
:10307000FFFFFFFFFFFFFFFFFFFFFFFFFFFFFFFF60
:10308000FFFFFFFFFFFFFFFFFFFFFFFFFFFFFFFF50
:10309000FFFFFFFFFFFFFFFFFFFFFFFFFFFFFFFF40
:1030A000FFFFFFFF2E944E9CD0ACD0B410BDD0AC2F
:1030B000866282394FCDB2CD56D6FFFFDFF7FFFFD4
:1030C000FFFFFFFFFFFFFFFFFFFFFFFFFFFFFFFF10
:1030D000FFFFFFFFFFFFFFFFFFFFFFFFFFFFFFFF00
:1030E000FFFFFFFFFFFFFFFFFFFFFFFFFFFFFFFFF0
:1030F000FFFFFFFFFFFFFFFFFFFFFFFFFFFFFFFFE0
:10310000FFFFFFFFBEF7FFFFFFFFFFFFFFFFFFFF18
:10311000FFFFFFFFFFFFFFFFFFFFFFFFFFFFFFFFBF
:10312000FFFFFFFFFFFFDFFFFFFFDFFFBFF7FFFF37
:10313000FFFFFFFFFFFFFFFFFFFFFFFFFFFFFFFF9F
:10314000FFFFFFFFFFFFFFFFFFFFFFFFFFFFFFFF8F
:10315000FFFFFFFFFFFFFFFFFFFFFFFFFFFFFFFF7F
:10316000FFFFFFFFFFFFFFFFFFFFFFFFFFFFFFFF6F
:10317000FFFFFFFFFFFFFFFFFFFFFFFFFFFFFFFF5F
:10318000FFFFFFFFFFFFFFFFFFFFFFFFFFFFFFFF4F
:10319000FFFFFFFFFFFFFFFFFFFFFFFFFFFFFFFF3F
:1031A000FFFFFFFFFFFFFFFFFFFFFFFFFFFFFFFF2F
:1031B000FFFFFFFFFFFFFFFFFFFFFFFFFFFFFFFF1F
:1031C000FFFFFFFFFFFFFFFFFFFFFFFFFFFFFFFF0F
:1031D000FFFFFFFFFFFFFFFFFFFFFFFFFFFFFFFFFF
:1031E000FFFFFFFFFFFFFFFFFFFFFFFFFFFFFFFFEF
:1031F000FFFFFFFFFFFFFFFFFFFFFFFFFFFFFFFFDF
:10320000FFFFFFFFFFFFFFFFFFFFFFFFFFFFFFFFCE
:10321000FFFFFFFFFFFFFFFFFFFFFFFFFFFFFFFFBE
:10322000FFFFFFFFFFFFFFFFFFFFFFFFFFFFFFFFAE
:10323000FFFFFFFFFFFFFFFFFFFFFFFFFFFFFFFF9E
:10324000FFFFFFFFFFFFFFFFFFFFFFFFFFFFFFFF8E
:10325000FFFFFFFFFFFFFFFFFFFFFFFFFFFFFFFF7E
:10326000FFFFFFFFFFFFFFFFFFFFFFFFFFFFFFFF6E
:10327000FFFFFFFFFFFFFFFFFFFFFFFFFFFFFFFF5E
:10328000FFFFFFFFFFFFFFFFFFFFFFFFFFFFFFFF4E
:10329000FFFF0E946FA48FA411BDAFAC93C531B5E1
:1032A0002E9470CDF3D59CFFFFFFFFFFFFFFDFFFE4
:1032B000FEFFFFFFFFFFFFFFFFFFFFFFFFFFFFFF1F
:1032C000FFFFFFFFFFFFFFFFFFFFFFFFFFFFFFFF0E
:1032D000FFFFFFFFFFFFFFFFFFFFFFFFFFFFFFFFFE
:1032E000FFFFFFFFFFFFFFFFFFFFFFFFFFFFFFFFEE
:1032F000FFFFFFFFFFFFFFFFFFFFFFFFFFFFFFFFDE
:10330000FFFFFFFFFFFFFFFFFFFFFFFFFFFFFFFFCD
:10331000FFFFDFFFFFFFBFF7FFFFFFFFBFF7FFFF6D
:10332000FFFFFFFFFFFFFFFFFFFFFFFFFFFFFFFFAD
:10333000FFFFFFFFFFFFFFFFFFFFFFFFFFFFFFFF9D
:10334000FFFFFFFFFFFFFFFFFFFFFFFFFFFFFFFF8D
:10335000FFFFFFFFFFFFFFFFFFFFFFFFFFFFFFFF7D
:10336000FFFFFFFFFFFFFFFFFFFFFFFFFFFFFFFF6D
:10337000FFFFFFFFFFFFFFFFFFFFFFFFFFFFFFFF5D
:10338000FFFFFFFFFFFFFFFFFFFFFFFFFFFFFFFF4D
:10339000FFFFFFFFFFFFFFFFFFFFFFFFFFFFFFFF3D
:1033A000FFFFFFFFFFFFFFFFFFFFFFFFFFFFFFFF2D
:1033B000FFFFFFFFFFFFFFFFFFFFFFFFFFFFFFFF1D
:1033C000FFFFFFFFFFFFFFFFFFFFFFFFFFFFFFFF0D
:1033D000FFFFFFFFFFFFFFFFFFFFFFFFFFFFFFFFFD
:1033E000FFFFFFFFFFFFFFFFFFFFFFFFFFFFFFFFED
:1033F000FFFFFFFFFFFFFFFFFFFFFFFFFFFFFFFFDD
:10340000FFFFFFFFFFFFFFFFFFFFFFFFFFFFFFFFCC
:10341000FFFFFFFFFFFFFFFFFFFFFFFFFFFFFFFFBC
:10342000FFFFFFFFFFFFFFFFFFFFFFFFFFFFFFFFAC
:10343000FFFFFFFFFFFFFFFFFFFFFFFFFFFFFFFF9C
:10344000FFFFFFFFFFFFFFFFFFFFFFFFFFFFFFFF8C
:10345000FFFFFFFFFFFFFFFFFFFFFFFFFFFFFFFF7C
:10346000FFFFFFFFFFFFFFFFFFFFFFFFFFFFFFFF6C
:10347000FFFFFFFFFFFFFFFFFFFFFFFFFFFFFFFF5C
:1034800011AD8FA490A412BD2D9C255A91C5D2CD0B
:1034900091C50D8CFFFFDFFFFFFFFFFFFFFFFFFF69
:1034A000FFFFFFFFFFFFFFFFFFFFFFFFFFFFFFFF2C
:1034B000FFFFFFFFFFFFFFFFFFFFFFFFFFFFFFFF1C
:1034C000FFFFFFFFFFFFFFFFFFFFFFFFFFFFFFFF0C
:1034D000FFFFFFFFFFFFFFFFFFFFFFFFFFFFFFFFFC
:1034E000FFFFFFFFFFFFFFFFFFFFFFFFFFFFFFFFEC
:1034F000FFFFFFFFFFFFFFFFFFFFFFFFFFFFFFFFDC
:10350000FFFFFFFFFFFFFFFFFFFFFFFFFFFFFFFFCB
:10351000FFFFFFFFFFFFFFFFFFFFFFFFFFFFFFFFBB
:10352000FFFFFFFFFFFFFFFFFFFFFFFFFFFFFFFFAB
:10353000FFFFFFFFFFFFFFFFFFFFFFFFFFFFFFFF9B
:10354000FFFFFFFFFFFFFFFFFFFFFFFFFFFFFFFF8B
:10355000FFFFFFFFFFFFFFFFFFFFFFFFFFFFFFFF7B
:10356000FFFFFFFFFFFFFFFFFFFFFFFFFFFFFFFF6B
:10357000FFFFFFFFFFFFFFFFFFFFFFFFFFFFFFFF5B
:10358000FFFFFFFFFFFFFFFFFFFFFFFFFFFFFFFF4B
:10359000FFFFFFFFFFFFFFFFFFFFFFFFFFFFFFFF3B
:1035A000FFFFFFFFFFFFFFFFFFFFFFFFFFFFFFFF2B
:1035B000FFFFFFFFFFFFFFFFFFFFFFFFFFFFFFFF1B
:1035C000FFFFFFFFFFFFFFFFFFFFFFFFFFFFFFFF0B
:1035D000FFFFFFFFFFFFFFFFFFFFFFFFFFFFFFFFFB
:1035E000FFFFFFFFFFFFFFFFFFFFFFFFFFFFFFFFEB
:1035F000FFFFFFFFFFFFFFFFFFFFFFFFFFFFFFFFDB
:10360000FFFFFFFFFFFFFFFFFFFFFFFFFFFFFFFFCA
:10361000FFFFFFFFFFFFFFFFFFFFFFFFFFFFFFFFBA
:10362000FFFFFFFFFFFFFFFFFFFFFFFFFFFFFFFFAA
:10363000FFFFFFFFFFFFFFFFFFFFFFFFFFFFFFFF9A
:10364000FFFFFFFFFFFFFFFFFFFFFFFFFFFFFFFF8A
:10365000FFFFFFFFFFFFFFFFFFFFFFFFFFFFFFFF7A
:10366000FFFFFFFFFFFFFFFFFFFFFFFFFFFF98DEF2
:10367000CD83D0AC11B56EA4087B51BD91C5F3CDFF
:1036800073BD9EFFFFFFFFFFFFFFFFFFFFFFFFFF79
:10369000FFFFFFFFFFFFFFFFFFFFFFFFFFFFFFFF3A
:1036A000FFFFFFFFFFFFFFFFFFFFFFFFFFFFFFFF2A
:1036B000FFFFFFFFFFFFFFFFFFFFFFFFFFFFFFFF1A
:1036C000FFFFFFFFFFFFFFFFFFFFFFFFFFFFFFFF0A
:1036D000FFFFFFFFFFFFFFFFFFFFFFFFFFFFFFFFFA
:1036E000FFFFFFFFFFFFFFFFFFFFFFFFFFFFFFFFEA
:1036F000FFFFFFFFFFFFFFFFFFFFFFFFFFFFFFFFDA
:10370000FFFFFFFFFFFFFFFFFFFFFFFFFFFFFFFFC9
:10371000FFFFFFFFFFFFFFFFFFFFFFFFFFFFFFFFB9
:10372000FFFFFFFFFFFFFFFFFFFFFFFFFFFFFFFFA9
:10373000FFFFFFFFFFFFFFFFFFFFFFFFFFFFFFFF99
:10374000FFFFFFFFFFFFFFFFFFFFFFFFFFFFFFFF89
:10375000FFFFFFFFFFFFFFFFFFFFFFFFFFFFFFFF79
:10376000FFFFFFFFFFFFFFFFFFFFFFFFFFFFFFFF69
:10377000FFFFFFFFFFFFFFFFFFFFFFFFFFFFFFFF59
:10378000FFFFFFFFFFFFFFFFFFFFFFFFFFFFFFFF49
:10379000FFFFFFFFFFFFFFFFFFFFFFFFFFFFFFFF39
:1037A000FFFFFFFFFFFFFFFFFFFFFFFFFFFFFFFF29
:1037B000FFFFFFFFFFFFFFFFFFFFFFFFFFFFFFFF19
:1037C000FFFFFFFFFFFFFFFFFFFFFFFFFFFFFFFF09
:1037D000FFFFFFFFFFFFFFFFFFFFFFFFFFFFFFFFF9
:1037E000FFFFFFFFFFFFFFFFFFFFFFFFFFFFFFFFE9
:1037F000FFFFFFFFFFFFFFFFFFFFFFFFFFFFFFFFD9
:10380000FFFFFFFFFFFFFFFFFFFFFFFFFFFFFFFFC8
:10381000FFFFFFFFFFFFFFFFFFFFFFFFFFFFFFFFB8
:10382000FFFFFFFFFFFFFFFFFFFFFFFFFFFFFFFFA8
:10383000FFFFFFFFFFFFFFFFFFFFFFFFFFFFFFFF98
:10384000FFFFFFFFFFFFFFFFFFFFFFFFFFFFFFFF88
:10385000FFFFFFFFFFFFFFFFFFFFFFFFBEFF919C8A
:103860008FA4F0B492C550BDF3CD35D6D4CDF2AC13
:10387000FFFFDFFFDFF7FFFFBEF7FFFFFFFFFFFFE9
:10388000FFFFFFFFFFFFFFFFFFFFFFFFFFFFFFFF48
:10389000FFFFFFFFFFFFFFFFFFFFFFFFFFFFFFFF38
:1038A000FFFFFFFFFFFFFFFFFFFFFFFFFFFFFFFF28
:1038B000FFFFFFFFFFFFFFFFFFFFFFFFFFFFFFFF18
:1038C000FFFFFFFFFFFFFFFFFFFFFFFFFFFFFFFF08
:1038D000FFFFFFFFFFFFFFFFFFFFFFFFFFFFFFFFF8
